S0110000626F6F746C6F616465722E733337B8
S11300009810002061370000B1370000B5370000B8
S1130010B9370000BD370000C137000007B0CD5E1E
S11300200001000000400000004000000000040047
S1130030170100006D3300007133000068360000C2
S1130040426822F4407202E0426822F440621143A2
S11300504160704710B54A688B68CC6809680160D4
S113006002600360046010BD10B502680368046890
S113007000680A608C604B60C86010BD38B50446E7
S11300800D46FFF7E7FF05F110012046BDE83440B7
S1130090E0E738B504460D46FFF7E6FF05F1100129
S11300A02046BDE83440DFE780B508B9012002BD31
S11300B04FF4877100F038F8002002BD022800DBFD
S11300C010E0B4220FF604415043084440687047DE
S11300D0022800DB06E0B4220FF6F0315043084456
S11300E0806870474FF0FF30704710B50446022C0B
S11300F003DB40F23D1100F017F800F00EF8007B2E
S113010010BD10B50446022C03DB4FF4A47100F0BB
S11301100BF800F002F8407B10BDB4210FF6AC30B0
S113012011FB04F1084470470FF6643000F028BE58
S113013010B502280B4600DB14E000F00DF800F1C6
S1130140140112E010B502280B4600DB0AE000F0AF
S113015003F800F1340108E0B4240FF67031604371
S113016008447047DFF8380A10BD2022184600F012
S113017009FE002010BDB4220FF65031504308444C
S113018054307047F8B51646212E04460D4603DB5D
S113019040F28911FFF7C8FF2021204600F02EFE0F
S11301A000200FE0311A771E491E3F1A89082B5C84
S11301B054F82120FF0007F01807BB401A4344F805
S11301C02120401CB042EDDB0020F2BDF8B51646FC
S11301D0B6F5807F04460D4603DD4FF4CD71FFF77D
S11301E0A3FF2021204600F009FE002001211BE08E
S11301F0821000EB5272D210C0F10707AB5C07EB20
S1130200C20201FA02F213420DD0321A521E371AF8
S113021052097F1E54F8223007F01F0701FA07F72E
S11302203B4344F82230401CB042E1DB0020F2BDE5
S11302302DE9F04104460F46781007EB90708010CA
S1130240B7EB800015461E460FF6442804D040F252
S1130250AD11404600F094FD701006EB90708010D4
S1130260B6EB800004D04FF4D771404600F088FD0F
S1130270B808B108401E491E03E054F8200090B9A4
S1130280104651EA000214D0421E8142F5DB4B1E97
S1130290884255F8211002DA59B91946F1E754F8A1
S11302A02000814201D2012004E0884228BF104688
S11302B0F3D20020BDE8F081DFF8E8280265406948
S11302C00860000E00F0010070472DE9F04700F0CF
S11302D0F0F888B091469A4600F0E7F84FF486703B
S11302E02518494600F0DFF84FF48870261809F104
S11302F0200100F01BFBDFF8B0082065414600F048
S113030009FB00F04EF84FF4847004EB000908F187
S1130310200100F0D6F908F1400100F007FBDFF8F6
S11303208C0820650AF14001DFF88408606501202B
S1130330A0654FF4807026183046FFF7AAFE694680
S11303404846FFF7A6FE00F0ADF8DFF86808206520
S113035008F12001DFF860086065DFF8600800F04C
S113036020F8DFF85C0820655146DFF8580860651E
S11303700120A0654846FFF78CFE69463846FFF722
S11303807DFEDFF8440820650AF12001DFF83C080F
S113039060650120A0653046FFF77BFE08B0BDE82C
S11303A0F087A0650120E065384667E62DE9F0474F
S11303B000F07FF898B0914600F070F8DFF8E80795
S11303C0206508A9DFF808086065DFF80808A0655B
S11303D04FF4807025182846FFF75BFE00F062F8A2
S11303E0DFF8F407206510A9DFF8F00760654FF423
S11303F08670A065261800F045FC69462846FFF77C
S113040048FE00F052F8DFF8D80720654146012085
S113041060654FF4847004EB000A00F082FADFF8A0
S1130420C40720656946DFF8C0076065DFF8BC07CC
S1130430A0650120E0655046FFF720FE10A9304674
S1130440FFF71CFEDFF8A80720654946DFF8A4077C
S11304506065DFF8A407A0654FF488702044FFF7B7
S113046018FE00F01BF808F1400100F05AFA08A940
S11304703046FFF703FEDFF88407206509F14001E9
S1130480DFF87C0760652846FFF703FE09F12001C9
S11304903046FFF7FEFD18B0BDE8F08708F12001F3
S11304A03846EBE541462846E8E508F14001384680
S11304B0E4E504464FF482708846271870472DE916
S11304C0F04F05468BB06868159CDFF838B720F00C
S11304D0100000900E462000009808BF40F0100065
S11304E06860914698462022414601A800F05AFCD3
S11304F001AF0020386249464FF4827000F0C5FB1A
S11305004FF48470314600F0C0FB4FF486704146CE
S113051000F0BBFBDFF8F006286500264FF480707E
S113052005EB00094FF4C47A04E0DFF8E00628651F
S1130530C5F850A069462846FFF7BEFE002840F0E3
S11305409C800098C00504D4DFF8C4062865761E94
S113055076E0002E13D5DFF8BC062865DFF8B80670
S1130560686520000AD14FF4CC70286501A948467B
S1130570FFF78FFD6869C0F30340386276420120BB
S1130580711E220026D1DFF89426DFF894362A65FE
S11305906A69C5F850A0120A12F00302DFF8842633
S11305A00CBF0E464FF0FF3069692A65090A012223
S11305B06A656A692B65120A01281BD101F00100E2
S11305C002F0010108420FD0DFF85C062865012023
S11305D068650CE0DFF8540628650E46DFF850061F
S11305E068650120A8652BE0DFF848062865DFF878
S11305F0480624E010F1010F22D101F0010002F0BD
S1130600010181F00101084305D1DFF830062865B6
S113061040F2811003E0DFF82806286501206865B0
S113062001A9DFF8200628655846FFF727FD97F84B
S1130630200000F00F00CBF8480040F2831028653A
S11306404FF4C87028656869C0057FF56EAF200057
S11306500BD1DFF8B805286500F032F8DFF8E805BB
S11306602865DFF8E805686562E700F029F8DFF837
S1130670E00528654FF4C170F5E7DFF8D805286573
S11306806946149F2846FFF717FE20B14FF488707F
S1130690394628440FE0002C4146484604D1FFF770
S11306A0EDFCDFF8B40503E0FFF7E8FCDFF8AC0588
S11306B0286539464846FFF7ECFC0BB0BDE8F08FDF
S11306C041464846DAE4F8B50D46042D044616467C
S11306D00FF2BC5704DA40F29551384600F050FB53
S11306E0681005EB90708010B5EB800004D040F2E8
S11306F09651384600F044FB54F8040BB04203D042
S113070007E054F8040B20B92D1F012DF9DA01205C
S1130710F2BD0020F2BD2DE9F04188B004460E463A
S1130720154698462021684600F068FB0120009099
S113073020210E9F384600F061FB202107F12000A4
S113074000F05CFB202107F1400000F057FB30462D
S1130750FFF7CBFC0146204600F054FB00F0D5F82F
S1130760002E0CBF4FF4006100212046FFF76CFC03
S11307700020206020636063B4210FF2505011FB0D
S113078006F108448068461E00E0761E012E16DB42
S113079000F03FF8F9D512E020222946384600F04F
S11307A001FB202205F1200107F1200000F0FAFAF4
S11307B02022694607F1400000F0F4FA761E002E6C
S11307C023D43A4639462046FFF7F0FD00F021F8DD
S11307D0F4D5002220213846FFF775FF70B10022BE
S11307E0202107F12000FFF76EFF38B100222021FD
S11307F007F14000FFF767FF0028CDD13B462A46AA
S113080039462046FFF761FDD8E7002008B0BDE86F
S1130810F081301106EBD060401158F82010A6EB9F
S11308204010C140C80770472DE9F04704460D4603
S11308309AB0904699462846FFF757FC0146204651
S113084000F0E0FA00F061F8002D0CBF4FF40061F5
S113085000212046FFF7F8FB00202060206360633E
S11308602846FFF721FC074620210AA800F0C6FA13
S113087001200A9012A92846FFF75AFC87F00100CC
S1130880019012AB02A8009008F140020AA9204688
S1130890FFF715FE4FF4807025184FF48870261862
S11308A04FF4867004EB000A4FF48270002F20444A
S11308B002A90ED0FFF7E2FB00F032F800F034F8A2
S11308C0DFF8E402206500F025F8A0650120E0656A
S11308D00EE0FFF7D3FB00F023F800F025F8DFF873
S11308E080032065DFF87C0360654FF48E70A0659B
S11308F009F120012846FFF7CCFB49465046FFF793
S1130900C8FB00201AB0BDE8F0874FF40071204600
S1130910FFF796BBDFF850036065DFF850037047BC
S113092041465046FFF7AABB08F120013046FFF7C5
S1130930A5BB38B504460D0018BF002C00D103E058
S1130940202100F05BFA01E0C94832BD1F20424279
S1130950295C2244401ED177F9D5002032BD2DE90F
S1130960F04FBBB005468A46144698460AA90020B3
S1130970FFF7E8FB002810D1449F20230AAA202176
S11309803846FFF755FC002807D120230AAA202166
S113099007F12000FFF74CFC002840F0BB80FFF774
S11309A08DFB83460020286028636863FFF7A9FB5A
S11309B00146284600F026FA0020FFF789FB4FF491
S11309C080716E184FF4847105EB0109811000EBFE
S11309D05171C910B0EBC10001D05C4508DA5C4527
S11309E0C8BF5C462246514612A8FFF7CBFB30E055
S11309F00020FFF76DFB0246514612A8FFF7E6FB05
S1130A000020FFF765FB02A9401E420901EB8201A9
S1130A102A9000F01F00096CC140C80719D52AA903
S1130A200020FFF78FFB00212846FFF70DFB12A9DA
S1130A304846FFF723FB4FF486702AA92844FFF7A2
S1130A401DFB8C48286512A94FF4C870686500F036
S1130A5019F920212AA800F0D1F901202A900AAB23
S1130A60686820F44060686007F12002686840F418
S1130A70006068602AA90020019032A800902846EE
S1130A80FFF71DFD4FF482702C1832A92046FFF7A2
S1130A90F5FA4FF4887005EB000A12A95046FFF7E7
S1130AA0EDFA4FF48670394600F0EFF87248286585
S1130AB012A9724868655046FFF7EBFA32A900F0B4
S1130AC0E1F80020FFF757FB1AA90091024612AB88
S1130AD000212846FFF71FFEE0B902A8009032ABC0
S1130AE0424600212846FFF716FE98B91AAB1AAA07
S1130AF000212846FFF798FE60B902AB1AAA02A9A2
S1130B002846FFF7E2FB02AB02AA00212846FFF7C2
S1130B108BFE08B1002040E020212AA800F06EF9E5
S1130B2001202A900020FFF7ECFA0146284600F045
S1130B3069F9686840F01000686002A92046FFF770
S1130B409DFA2AA94846FFF799FA4D48286502A953
S1130B5000F098F80720072102AC04E057F82000C1
S1130B600028D7D1104651EA000215D0421E814216
S1130B70F4DB4B1E884206DA02AA52F8211000293F
S1130B80C8D11946EFE757F8200054F821108842DD
S1130B9008BF1046F5D0BDE701203BB0BDE8F08F9B
S1130BA0026000D0353938018AD11C81D01482CB3F
S1130BB01481E11C8CE11C811C84D91C8391D11CFF
S1130BC0E014D8141482E11C84D31482D11CE014E0
S1130BD0821CC00C0C0C0100C00C0C83D91C83D8E3
S1130BE08AD11C83DA0C811482D11C81C80C0C813B
S1130BF08CE11CD01484E31482D11C01D81483D159
S1130C001CC00C0100010F4030848801D23E8201D7
S1130C10C93E810188998390A2840100D90801000A
S1130C20DB3E0100C93E8198C8340981D931C02412
S1130C3081E23182C8088101E20C820183D9341136
S1130C4083D91081E2148201C024D03409820100C6
S1130C50D031C02498390100E0100100E0310100D6
S1130C608AD91C83D11C81E1D91C83D11C81E11C4C
S1130C70016000D030DA10FC30E11C8430D91C0152
S1130C80D11C01003046FFF704BA2844FFF7F6B937
S1130C90433A5C4150495C424C455C576F726B73FC
S1130CA0706163655C626F6F6C746F616465725CC4
S1130CB0706C7567696E5C73656375726974795C71
S1130CC06563635C6563632E63000000983700000E
S1130CD02000000000010000050C000001000000DD
S1130CE0FFFFFFFFFFFFFFFFFFFFFFFF000000000C
S1130CF0000000000000000001000000FFFFFFFFF3
S1130D00512563FCC2CAB9F3849E17A7ADFAE6BCA9
S1130D10FFFFFFFFFFFFFFFF00000000FFFFFFFFDB
S1130D2096C298D84539A1F4A033EB2D817D037781
S1130D30F240A463E5E6BCF847422CE1F2D1176B1C
S1130D40F551BF376840B6CBCE5E316B5733CE2BEF
S1130D50169E0F7C4AEBE78E9B7F1AFEE242E34F1E
S1130D60FFFFFFFFFFFFFFFFFFFFFFFFFFFFFFFF8F
S1130D70010000000000000000000000000000006E
S1130D80FEE7000062B38B0708D0521E11F8013B46
S1130D9000F8013B00F024808B07F6D1830740F074
S1130DA0208000BF103A07D330B4B1E83810103AAD
S1130DB0A0E83810F9D230BC530724BFB1E80810BA
S1130DC0A0E8081044BF51F8043B40F8043BD207A4
S1130DD024BF31F8022B20F8022B44BF0B78037098
S1130DE07047083A07D3B1E80810083A40F8043BC2
S1130DF040F804CBF7D25307E4E70000002200F0E8
S1130E004BB8000042685209042941EA421209D948
S1130E10491F022908D9C91E032903D9091F022918
S1130E2002D905E04260704742F01001416070470A
S1130E3040F25F110FF20400FFF7A2BF433A5C5384
S1130E40696C69636F6E4C6162735C53696C69634E
S1130E506F6E4C616273456D6265725A4E65745C67
S1130E60352E382E302E302D414C5048415F315CA8
S1130E70706C6174666F726D5C656D6C69625C73D5
S1130E8072635C656D5F63727970746F2E630000CA
S1130E9062F30F2262F31F4200B500BF13009646AF
S1130EA09446103928BFA0E80C50FAD85FEA417C78
S1130EB028BF0CC048BF40F8042BC90728BF20F83E
S1130EC0022B48BF00F8012B00BD000030B59A4248
S1130ED03FBF9C1A456C2C19412C01D3002030BD16
S1130EE0846C456C2C1904F03F0404448D5C25711A
S1130EF0521C446C641C9A424464F1D3012030BDFA
S1130F0070B5059D00240CE0866C064436790E55B8
S1130F10641C866C761C06F03F068664466C761E5E
S1130F204664466C0EB1AC42EED3049805E0965D7F
S1130F300E55641C1E68761C1E601E68864238BFEF
S1130F40AC42F4D3AC420CBF0120002070BD406C15
S1130F50081870474FF48071014408684A68801A81
S1130F604A7F2AB18A68C968511A814238BF084643
S1130F7070474FF482721044427E3AB182684368EB
S1130F808A1882609A4224BF002242760268891835
S1130F90016070472DE9F84F80468A4616469B4605
S1130FA0FFF7D8FF08F14405814628684FF48C7197
S1130FB008EB0104A0B348452FD2814668682F6826
S1130FC03918412928BFC0F140074044011D3A4661
S1130FD008F1940000F03EFC6868226840443946F9
S1130FE0001D00F04FFC2060607940B16868404407
S1130FF0021D011D3B4608F14C0000F070FC6868BE
S1131000381800F03F00686039462868C01B286023
S1131010A9EB07094046FFF7ACFFB9F1000FCDD1AA
S11310204046FFF797FF5FEA000908BF01202DD073
S11310303068584524D2ABEB0001494538BF894696
S11310400AEB00014A4608F1940000F003FC306802
S113105022684946504400F015FC2060607940B194
S113106030680AEB00014B460A4608F14C0000F0D8
S113107036FC30684844306049464046FFF779FF03
S11310804046FFF767FF401E8041C00FBDE8F28F66
S1131090FEB51646044630680D461F46391A00F060
S11310A0ABFB042808D232683B4629462046FFF7AA
S11310B00DFF4FF48030FEBD0420019000973346AD
S11310C02A4602A900F08CFB10B9DFF86806FEBDC1
S11310D04FF4807025180421AA6902A800F0D2FBFD
S11310E0A861089F697F04F1940002AEB1B10422A3
S11310F002A900F0AFFB042302AA02A900F064FBDA
S11311009DF80800717841EA00203880F178B078C1
S113111041EA0020788000F01DF816E09DF80810E0
S1131120727842EA01213980B278F37843EA0222E4
S11311307A804FF20A7291421CBF4FF604429142E8
S113114003D0042202A900F085FB788828600020DF
S11311506860FEBD042120460BE780B500210170C4
S1131160002200F144010A604A604FF48A7101448C
S11311700A724A728A7294304FF0FF324A60002237
S11311800A6000F05DFB002002BD00002DE9F24F73
S113119094B00446002002904FF48070DDF878B0DB
S11311A090461E46251804F194090DF1100A52E2E6
S11311B000F019FBB0F5803F27D048BBBDF80E0006
S11311C0286000206860BDF80C00002862D04FF24F
S11311D00861401A03D040F20111401A012840F27C
S11311E09A824FF4FF71401AF9D0FF38F7D0FF38D4
S11311F002D0FF38F3D028E009202070012028779E
S113120029E200F0F0FAB0F5803F00F0EB8110B174
S11312100D212170E7E1287F28B3687F18BBBDF852
S11312200C000028DBD04FF20861401AD7D04FF4ED
S11312308171401A3FD040F2FD11401A0CD0FF38A2
S113124008D04FF4FF71401A2FD0FF38C7D0FE38B2
S1131250C5D01AE20820FDE10A2020702868A860A1
S11312600020E860F7E1BDF80C0080B14FF208619E
S1131270401A11D04FF48171401A18D040F2FA414B
S1131280401A0FD0FF380BD0FE3807D0FDE1687F3D
S11312900028A4D00220DDE10320DBE10420D9E111
S11312A00520D7E1687F002803D10620D2E1687FBA
S11312B0002840F030820C20CCE100F09BFA0C288E
S11312C0C0F00B820C2000F09BFA002800F0108282
S11312D00C2200F063FAAA690C2100F05CFAA86100
S11312E0687F10B10C2300F06DFA00F048FA40F06A
S11312F092819AF802009AF8031000F053FA40F031
S1131300A1819AF805109AF80400090441EA0060E2
S11313109AF8061040EA01209AF807100843286159
S11313200C21FFF718FF68680C28C6D36868296881
S1131330884280F08E8100F05DFA04284FD3606CFF
S113134000281FD000F00CFA38BF084600F040FA1D
S1131350002849D000F068FA00F02FFAA861687FED
S113136008B100F066FA00F005FA08D000F0FDF9C3
S113137028693A4604A9E04728693818286139469B
S1131380FFF7E9FE0298301A0528CFD300F0E8F9F8
S113139038BF08468708029800F040FA00F038FA8F
S11313A0A861687F40B1029808EB0001BB000A46BF
S11313B004F14C0000F093FA00F0DCF907D000F0DF
S11313C0D4F900F0E2F9286900EB8700286100F005
S11313D0C1F9FFF7C0FEA9E700F00CFA0428C0F039
S11313E07C8100F00CFA002800F08281042200F0D5
S11313F0D5F900F0DDF9A861687F10B1042300F08D
S1131400E1F99AF801109DF81000090441EA00601E
S11314109AF8021040EA01209AF803100843286160
S1131420FFF798FE68680428D6D36868296888425C
S113143080F00F810298371A394600F0DDF904284C
S1131440CDD3606C00283ED000F08AF938BF08463E
S113145000F0BEF90028C7D000F0E6F900F0ADF9BD
S1131460A861687F08B100F0E4F9207803280ED160
S1131470DBF808C0BCF1000F09D0DBF80030686964
S11314803A4604A9E04768693818686117E00428F7
S113149007D100F06FF912D0DBF8000000900023B0
S11314A006E005280BD100F065F908D000F05DF9DD
S11314B028693A4604A9E04728693818286139465A
S11314C0FFF749FEB1E70298B0425AD2286869682A
S11314D0411AB942029838BF0F46BF0800F09EF97E
S11314E000F096F9A861687F40B1029808EB000209
S11314F0BB00114604F14C0000F0F1F920780328F8
S113150011D1DBF808C0BCF1000F0CD00298DBF855
S1131510003008EB00016869BA00E047686900EB35
S11315208700686116E0042807D100F023F911D080
S1131530DBF800000090002306E005280AD100F043
S113154019F907D000F011F900F01FF9286900EB30
S11315508700286100F0FEF8B2E700F04BF9042898
S113156013D300F04CF9002848D000F021F9724957
S1131570A861884240F0D88014990120887107201E
S113158020702FE000F036F91028C0F0A68010205B
S113159000F036F9002831D0102200F0FFF8AA69D3
S11315A0102100F0F8F8A86100F0AEF98021019153
S11315B00090012305AA022104F14C0000F070F907
S11315C01021FFF7C8FD68681028DBD36868296814
S11315D088423ED2334602AA41462046FFF7DAFC4F
S11315E00028F3D1002015B0BDE8F08F00F002F917
S11315F0062851D3062000F003F9002800F0788073
S1131600062200F0CBF8AA69062100F0C4F8A8610C
S113161000F0B5F803D00D2020704848E3E79AF8AD
S113162002009AF8031041EA0020012803D00D209B
S113163020704348D7E79AF804009AF8051000F0A0
S1131640B1F803D00D2020703E48CCE70621FFF707
S113165082FD012020700298B042C3D220780D2868
S1131660F9D8DFE800F00E0D0C0B0B0B0A65090826
S11316700F123265EFE7B9E7A5E76EE7D2E652E667
S1131680BFE595E501206877E3E70D2020702E483B
S1131690A9E700F0B0F840281FD3402000F0B0F8CC
S11316A030B3AA69402100F076F8A861484600F0FA
S11316B0D3F80CAA04A9484600F02EF91499C8716D
S11316C00120A8774021FFF746FDA87F0028029853
S11316D0DFD000F090F8082806D2029A334641463B
S11316E02046FFF7F3FB7DE7082000F089F818B9DE
S11316F00D2020700F4876E7AA69082100F04BF806
S1131700A8619DF810109AF8012042EA01214FF6D1
S11317100442914204D00D2020704FF0011062E782
S1131720054988423FF428AF0D20207007485AE746
S1131730074858E703000100E320BBDE0600010070
S11317400900010007000100040001000800010075
S113175005000100B900029800EB87000290704771
S113176029686A68891A81427047DBF80000009092
S113177001237047DBF804C0BCF1000F70479DF8EB
S113178010000002B0F5007F7047029808EB0001DA
S11317902869BA00604704A800F074B804A9484650
S11317A000F058B841EA00204EF2503188427047A8
S11317B0AA69042104A800F065B8AA69394604A8F6
S11317C000F060B804AA04A904F14C0000F087B842
S11317D0C01C8708BF000197009602AB424604A9CB
S11317E02046FFF78DBB03A80090334602AA41466A
S11317F020464DE40298311A2046FFF7A8BB042086
S11318000190009602AB424604A92046FFF778BB3C
S11318100298AA69B900404400F034B808EB00010A
S1131820BA00484600F016B83A4604A9484600F003
S113183011B83B4604AA04A904F14C0000F04FB8C7
S113184010B5044600F0E8F82046BDE81040002139
S113185000F0E5B800F04BB9014600F07FB9000094
S11318600A0A484000F0FF0008214308C00746BFA9
S1131870034858401846491EF7D1504070470000AD
S11318802083B8ED70B504460D461046002604E0EA
S11318900146A05DFFF7E4FF761CAE42F8D370BDAD
S11318A0F8B505460E4617461C4600F0A3FA079AFB
S11318B00699284600F0A1FA05F1240000210160F0
S11318C006750C22394605F13900FFF75BFA05F17C
S11318D04500210C01708470210A4170F1BD10B5DE
S11318E084B01C460191029200F12801009100F19C
S11318F0380300F12402214600F0C6FA1FBD00009F
S11319000248704702487047024870474A43E00F54
S11319106A43E00F8642E00F70B504000D4618BF1D
S1131920002DA2B0164600D00EB9002025E00121FA
S1131930134800F043FB402111A8FFF75FFAFFF7BB
S1131940DFFF014611A8FEF7F4FFFFF7DBFF0146B6
S113195019A8FEF7EEFF294601A8FEF7EAFF314673
S113196009A8FEF7E6FF01A8009011AB202221464A
S11319700448FEF7F4FF00B1012022B070BD00BF9F
S11319800015080000000F4010B54A688B68CC6849
S11319900968016002600360046010BD10B502684C
S11319A00368046800680A608C604B60C86010BDFE
S11319B038B504460D46FFF7F1FF05F11001204646
S11319C0BDE83440EAE738B504460D46FFF7DCFFCE
S11319D005F110012046FFF7D7FF05F1200120464D
S11319E0FFF7D2FF05F130012046BDE83440CBE7D4
S11319F010B50C4614F0030188B008D06946FFF70F
S1131A00D7FF202269462046FFF7BCF902E02146B1
S1131A10FFF7CEFF08B010BD6C21FFF7EFB979B91D
S1131A20734A0260734A4260734A8260734AC260B6
S1131A30734A0261734A4261734A8261734A0EE0D7
S1131A40734A0260734A4260734A8260734AC26096
S1131A50734A0261734A4261734A8261734AC26182
S1131A608166002202624262002070472DE9F04143
S1131A706F4E90B0044630686E4FDFF8BC8140F082
S1131A80020030600D466D486D490160416821F4E3
S1131A90406141601021016300214163694901658E
S1131AA06949416538462146FFF76EFF04F110018C
S1131AB03846FFF769FF15F0030009D04022294694
S1131AC06846FFF75FF969464046FFF77CFF03E08D
S1131AD029464046FFF777FF21463846FFF768FF5F
S1131AE0306820F00200306010B0BDE8F0812DE9CC
S1131AF0F041160004460D462ED0206A00F03F0740
S1131B003018B042C7F14008206202D2606A401C1B
S1131B106062B7B1464514D3E01942462830FFF756
S1131B2031F904F128012046FFF7A0FF4544A6EB54
S1131B300806002705E029462046FFF797FF4035B1
S1131B40403E402EF7D23EB132462946E019BDE868
S1131B50F0412830FFF716B9BDE8F0817CB50446A2
S1131B600D46616A206A324EC90041EA50718DF80F
S1131B700310C0000A0E8DF800200B0A0A0C010E97
S1131B808DF804108DF80700010C8DF805108DF800
S1131B900120010A8DF802308DF8061094F8200017
S1131BA00FF2AC0100F03F00382834BFC0F1380216
S1131BB0C0F178022046FFF79AFF082269462046C2
S1131BC0FFF795FF306840F00200306029461F4857
S1131BD0FFF70EFF306820F002003060A06E20B1E5
S1131BE0042105F11C0000F051FA73BD000000004F
S1131BF067E6096A85AE67BB72F36E3C3AF54FA59A
S1131C007F520E518C68059BABD9831F19CDE05BC5
S1131C10D89E05C107D57C3617DD703039590EF7CB
S1131C20310BC0FF11155868A78FF964A44FFABE91
S1131C30B0400E4000010F40A4010F4000000F40CF
S1131C40040010307081C872070D010030010F408C
S1131C508000000000000000000000000000000000
S1131C600000000000000000000000000000000070
S1131C700000000000000000000000000000000060
S1131C800000000000000000000000000000000050
S1131C9010B54A688B68CC6809680160026003600B
S1131CA0046010BD10B502680368046800680A6027
S1131CB08C604B60C86010BD38B504460D46FFF714
S1131CC0E7FF05F110012046BDE83440E0E71FB509
S1131CD0044611F0030008D010226846FFF752F8BA
S1131CE069462046FFF7D4FF1FBD2046FFF7D0FF0B
S1131CF01FBD1FB50C4614F0030108D06946FFF759
S1131D00D1FF102269462046FFF73CF81FBD21464B
S1131D10FFF7C8FF1FBD80B50168802903D0B1F566
S1131D20807F0FD012E0DFF8442201211160426865
S1131D30DFF83C120A6082680A60C2680A600069BF
S1131D40086001E000F026F8002002BD6FF01F00DB
S1131D5002BD38B50168DFF81842DFF8185280294F
S1131D6003D0B1F5807F0DD011E0DFF8002201210E
S1131D7011604168216081682160C1682160006947
S1131D80206001E000F006F8E562002032BD6FF04B
S1131D901F0032BDDFF8E02101211160011DDFF8D1
S1131DA0DC0189E72DE9F0470709DFF8D441102069
S1131DB0A062089D099E884691469A4614E02EB179
S1131DC027B9102249463046FEF7DCFF4946404613
S1131DD0FFF77DFF4FF40070206029465046FFF75F
S1131DE088FF103509F110093846471E0028E6D14E
S1131DF0BDE8F0872421FFF701B880B5802A18BF19
S1131E00B2F5807F00D0A1E7FFE740F8042BD208A9
S1131E10FEF7B8FF002002BD2DE9F843DFF8646146
S1131E20DFF86471DFF864918046306840F00200A6
S1131E3030601446002038607860386301291D46FC
S1131E40786309D100F01DF84046FFF764FF5FEAAC
S1131E5000080FD1052008E04046FFF77AFF5FEA4B
S1131E60000807D100F00DF80620B860294648465E
S1131E70FFF73FFF306820F0020030604046BDE8C5
S1131E80F2832146484622E72DE9F04F83B0894684
S1131E90DDF834A00E9C19F00F0F804615461E463F
S1131EA004D1002D1CBF2868002828D02F68DDF835
S1131EB030B01DE097B95B46324601214046FFF73A
S1131EC0ABFF10203118321811F8011C491C02F81C
S1131ED0011CC9B211B9401E0128F3DA1AF8010B2A
S1131EE01BF80710484004F8010B781C00F00F079A
S1131EF05FEA0900A0F10109DCD12F6032E0214D35
S1131F00214F286840F00200286000203860786083
S1131F10386378634046FFF7FEFE5FEA00081CD191
S1131F201249DFF86CB04FF4404008601249086071
S1131F3031465846FFF7CBFE1748144B1549386510
S1131F405246512078650020019000944846FFF7DE
S1131F5029FF31465846FFF7CCFE286820F00200DE
S1131F6028604046BDE8FE8F0000000000000F44DA
S1131F7024000F40058C010000000F4610010F40A3
S1131F8008000F40B0400E4000000F4080000F409A
S1131F9084000F4088000F4048054603890001EB88
S1131FA0401000F1844002607047DFF884104A68F2
S1131FB0D20702D40A680242FCD1704770B50212FB
S1131FC00C4602F00F020021521E092ADFF8645069
S1131FD023D8DFE802F005132222071518221B1F5D
S1131FE0DFF84850C0F3043611B10846FFF7DDFFAF
S1131FF0224631462846BDE87040CFE71035F1E768
S113200030350121EEE738351021EBE740354FF448
S11320108031E7E7DFF82050E4E7BDE870404FF493
S1132020BD610FF21800FEF7ABBE000000400E4089
S113203040410E40B0400E4050410E40433A5C5384
S1132040696C69636F6E4C6162735C53696C69633C
S11320506F6E4C616273456D6265725A4E65745C55
S1132060352E382E302E302D414C5048415F315C96
S1132070706C6174666F726D5C656D6C69625C73C3
S113208072635C656D5F636D752E6300002200F002
S113209001B80000401810F0030308D0C91A1FD378
S11320A0DB0748BF00F8012D28BF20F8022D1300DC
S11320B030B414461546103928BF20E93C00FAD83C
S11320C0490728BF20E90C0048BF40F8042D8900C7
S11320D028BF20F8022D48BF00F8012D30BC7047FE
S11320E0C91818BF00F8012DCB0728BF00F8012D2F
S11320F07047000080B500F090FB062000F057FB0D
S1132100BDE8014000F08BBB38B500F086FB9F2092
S113211000F04DFB00F069FB044600F06AFB054645
S113212000F07DFB012C18BF1F2C0BD0202C18BFF6
S11321309D2C07D0C22C04BF42F61400854201D165
S1132140072032BD002032BD80B500F0B6F800286B
S1132150FBD1FFF7D9FF07280CBF0FF21050002066
S113216002BD000010B5044600F0A7F80028FBD11A
S113217014B9FFF7C9FF05E02078010002D1FFF789
S1132180C3FF2070401E142824D8DFE800F01A147E
S11321901A14171A1A1D1D20171A14171A1D0B0EBC
S11321A0111417004FF4004010BD4FF4803010BDDF
S11321B04FF4003010BD4FF4802010BD4FF40020C8
S11321C010BD4FF4801010BD4FF4001010BD4FF43B
S11321D0000010BD002010BD10B50C18B4F5802F00
S11321E001D8012010BD1046FFF7BCFFA04280417A
S11321F0C043C00F10BD10B50C4600F0D8FA2046FD
S1132200BDE8104000F0D5BA70B504460D46164638
S113221000F053F80028FBD1FFF76CFF00F0FDFA43
S113222021460220FFF7E7FF03E015F8010B00F059
S1132230BEFA3046461E0028F7D1BDE8704000F0D3
S1132240EEBA38B504460D4600F037F80028FBD145
S1132250FFF750FF00F0E1FA29462046FFF7CBFFD5
S1132260BDE8314000F0DBBA10B500F02DFA42F2BF
S11322701074204600F0E8FA00F0CFFAAB2000F02A
S113228096FA00F0CCFA204600F0DEFAFFF73CFFA5
S113229010B940F2011010BD0B3802280BD2FFF721
S11322A029FF00F0BAFA012000F081FA002000F0C2
S11322B07EFA00F0B4FA002010BD10B500F0ADFABB
S11322C0052000F074FA00F090FA044600F0A7FA32
S11322D004F0010010BD10B504000AD04FF48030A2
S11322E020600020606020720320E060FFF72CFF74
S11322F0206110BD40F2014221B1032804D3002023
S113230008604860104670470FF27C3202EBC00050
S113231082680A60C06848600020704770B50D4646
S113232000F06EF810B940F2024070BDFFF7C5FF2F
S11323300028FBD100F071FA21460320FFF75BFF70
S113234003E000F052FA05F8010B3046461E00285F
S1132350F7D100F064FA002070BD38B50C46114680
S113236003281A4600D369E000F05FF800D268E061
S113237000682018BDE83840D0E72DE9F8438946C5
S113238000F03EF810B940F202402BE03746FFF768
S113239094FF0028FBD100F040FA21460320FFF708
S11323A02AFF3846471E30B100F01FFAFF28F8D044
S11323B040F2034016E000F032FA200640F2011722
S11323C04FF4807809D0200A000200F5807031199A
S11323D0814204D3051BADB202E0BE4204D23546AD
S11323E01EB90020BDE8F28345462A4649462046E8
S11323F0FFF70AFF761B2C19BE42A944F4D2EEE77C
S11324001646044600223146E6E638B50C46114627
S113241003281A4600D311E000F007F800D210E0B8
S113242000682018BDE83840A7E70FF25C2303EBEF
S1132430C000083015194368AB42704740F20140B0
S113244032BD40F2024032BD2DE9F843044600207B
S11324508DF800000D466846FFF784FE9DF80010D5
S11324608046A1F10D0240F6FF764FF6FF70042A74
S11324704FF48037814638BF064607D3A1F11100D7
S113248002283CBF4FF4004747F6FF7935420CBFA2
S1132490344240F2044038D16A4629462046FFF7C8
S11324A09BFE10B940F202402FE0B4B9454514D167
S11324B0FFF703FF0028FBD1FFF71CFE00F0ADF986
S11324C0C72000F074F900F0AAF91DE0214600F0DD
S11324D07EF804F58054A5F58055002D18BF14EA44
S11324E0090FF3D1BD420DD32146D820FFF7A9FE31
S11324F03C19ED1BF6E7214600F069F804F5805419
S1132500A5F58055002DF6D10020BDE8F2830328FF
S113251002D340F2014070470FF26C1101EBC0008E
S11325200830416800688FE780B5FFF7C6FE0028D1
S1132530FBD100F072F9B92000F039F900F06FF91D
S1132540002002BD10B504468AB04FF0FF30206071
S11325506060282269460020FFF7E0FE60B921464A
S1132560684600F085F950B1206810F1010F04BFEE
S1132570606810F1010F01D1002000E001200AB0D1
S113258010BD10B58CB0044600F052F8E0B914F157
S1132590010F02D100F01AF815E0694602A800F014
S11325A067F900281EBF009810F1010F40F20340A4
S11325B00AD100F00BF84FF0FF32214602A800F0D8
S11325C0A9F900F031F800200CB010BD0021202042
S11325D037E630B58DB004460D4600F029F808BB47
S11325E014F1010F02D1FFF7F1FF1AE015F1010F09
S11325F008BF40F2014015D0694602A800F038F93E
S113260000281EBF009810F1010F40F2034009D1C9
S1132610FFF7DCFF2246294602A800F07BF900F010
S113262003F800200DB030BD282202A90020EBE5FC
S1132630282202A9002071E610B582B002460020CB
S113264012F1010F0C46009005D0042269461C20AB
S1132650FFF7DAFD012014F1010F05D004226946C9
S11326601820FFF7D1FD012016BD00000102030070
S11326709A01000000780000001000000000100023
S11326808C3700000100000000000000030000007F
S11326900000040000000400000008000000040022
S11326A000000C0000000400890001EB401000F160
S11326B08440026070471CB500931346049C019447
S11326C00A4600F0FEF913BD80B501215648FFF714
S11326D075FC01215548FFF771FC002305220521F3
S11326E0052000F05CFA002302220321052000F0FB
S11326F056FA002305220421052000F050FA012394
S113270004220B21022000F04AFA00F04BF80521C4
S11327100520FFF7D0FF00F045F803210520FFF75F
S1132720CAFF00F03FF804210520FFF7C4FF00F0C2
S113273039F80B210220FFF7BEFF0021022000F030
S1132740A1F93B48016821F001110160416821F0C1
S11327507F414160416841F088414160C16841F076
S1132760C001C16040F6AA613248C16000218160A5
S1132770C1643149816440F20141016041F20501C3
S113278041602E49096801290CBF00214FF4807172
S113279041611021C1600B214167294981670521ED
S11327A0C16001BD00200090002300227047014653
S11327B01CE038B504461F4D2102090E00F012F842
S11327C02104090E00F00EF800F00BF8284600F082
S11327D0A7FA284600F0A4FA2846BDE8324000F0E3
S11327E09FBAE1B2284600F0A9BAFF21114800F0CF
S11327F09BBA38B50F4CFF21204600F09FFAFF2109
S1132800204600F09BFA204600F08AFA054620464E
S113281000F086FA40EA052032BD002200E00122E1
S11328200B21084840E700000025080000220400AE
S113283060A0004000000140F9FF010094400E40F8
S11328401A1D001A6CA0004082B000EB4000002169
S1132850CDE90001DDE90001421E61F10003CDE98B
S1132860002300229142F5D19042F3D102B0704787
S113287070B588B004460D464FF0FF3000902860D4
S1132880686020460FF2241100F05EFA00283CD163
S1132890009A24212046FEF7F5FF00901C4E009874
S11328A0B04215D103A8FFF716FD0026069886420C
S11328B029D200F077F840BB0198A169884208BF8B
S11328C02E600198E169884208BF6E60761CEDE7CE
S11328D0009A042104F12400FEF7D4FF009000982C
S11328E0B04212D103A8FFF7F6FC002608E000F07E
S11328F059F850B90198A169884208BF2E60761C26
S113290006988642F3D3012000E0002008B070BD91
S1132910E320BBDEF0B50E46174685B00446082218
S11329200FF28801FEF72EFA01202081FF220020F9
S113293060810C2104F10C00FEF7AAFA16F1010FD4
S11329404FF0FF3505D000F02DF810B90198A061C3
S113295000E0A56117F1010F06D001A93846FFF781
S1132960C9FC08B9019800E02846E06100952021DF
S1132970009A2046FEF786FF009024210098C04369
S11329802062E06903900020E06100952046009AEF
S1132990FEF778FF00900098C04360620398E061FE
S11329A005B0F0BD01A93046FFF7A4BC534C414229
S11329B049425200890001EB401000F1844002605A
S11329C0704700F1806300F1C060196002607047D5
S11329D038B505000C4608BF3F2013D0012D08BFB1
S11329E04FF478400ED0022D08BF4FF47C6009D01C
S11329F0032D08BF4FF47C4004D0042D05D0052DD1
S1132A0003D1FF20E040C00705D440F2C6210FF2F5
S1132A106820FEF7B5F900F02EF8BDE83840002232
S1132A2027E038B505000C4608BF3F2013D0012D20
S1132A3008BF4FF478400ED0022D08BF4FF47C60DD
S1132A4009D0032D08BF4FF47C4004D0042D05D0D9
S1132A50052D03D1FF20E040C00705D440F2F32147
S1132A600FF21420FEF78CF900F005F8BDE83840A9
S1132A7001220C309EE721463023774813FB05F3EF
S1132A801844704738B5050018BF012D0C4607D00F
S1132A90022D18BF032D03D0042D04D0052D02D11F
S1132AA034F0011002D0812100F0D2F830236A48BA
S1132AB013FB05F322461844BDE838404FF00111DA
S1132AC07FE72DE9F04107000C4615461E460FF23C
S1132AD0FC1808BF3F2013D0012F08BF4FF47840E3
S1132AE00ED0022F08BF4FF47C6009D0032F08BF1B
S1132AF04FF47C4004D0042F05D0052F03D1FF20D0
S1132B00E040C00703D4BC214046FEF739F9A808C9
S1132B108000A108B0EB810F03D0BE214046FEF730
S1132B202FF90F20082C06D2A10007FA01F200FAAF
S1132B3001F14A4807E0A4F10801890007FA01F20B
S1132B4000FA01F14648FFF73CFF0323082D04F087
S1132B50030006D2A90000FA01F203FA01F1414888
S1132B6007E0A5F10801890000FA01F203FA01F176
S1132B703D483E4DFFF725FF324621463C48FFF7CE
S1132B8019FF069A21462846FFF714FF0120A040AA
S1132B9028612146079A3748BDE8F0410AE7F8B5AD
S1132BA0044620000D4616461F4608BF3F2013D09A
S1132BB0012C08BF4FF478400ED0022C08BF4FF40C
S1132BC07C6009D0032C08BF4FF47C4004D0042C53
S1132BD005D0052C03D1FF20E840C00703D44FF4EF
S1132BE0877100F035F8300008D0002F29462046C0
S1132BF002D0FFF716FF01E0FFF7EAFE30210F22B3
S1132C00154811FB04F1082D084409D2AB004168B2
S1132C109A4021EA020206FA03F1114341600AE0F4
S1132C20A5F108039B0081689A4021EA020206FA92
S1132C3003F11143816056B9002F294620461CBF79
S1132C40BDE8F440FFF7EDBEBDE8F440C0E6F1BDD9
S1132C500FF27800FEF794B800A0004000A40040F2
S1132C6004A4004008A400400CA4004014A40040A4
S1132C7010A4004028A40040433A5C53696C696383
S1132C806F6E4C6162735C53696C69636F6E4C6107
S1132C906273456D6265725A4E65745C352E382ECA
S1132CA0302E302D414C5048415F315C706C617462
S1132CB0666F726D5C656D6C69625C696E635C65A0
S1132CC06D5F6770696F2E6800000000433A5C53C3
S1132CD0696C69636F6E4C6162735C53696C6963A0
S1132CE06F6E4C616273456D6265725A4E65745CB9
S1132CF0352E382E302E302D414C5048415F315CFA
S1132D00706C6174666F726D5C656D6C69625C7326
S1132D1072635C656D5F6770696F2E63000000000D
S1132D2001690906FCD506E002695206FCD5416337
S1132D3001698906FCD5C069C0B2704702695206B0
S1132D40FCD5416370470000820707D010F8012BBF
S1132D5011F8013BBAB19A42F6D014E002680B684C
S1132D609A42A2F1013301BF934313F0803F50F81C
S1132D70042F51F8043FF3D010F8012B11F8013B54
S1132D800AB19A42F8D0D01A7047000072B6994836
S1132D90016811F1010F1CBF491C016000687047F4
S1132DA09449086818B1401E086000D162B67047A3
S1132DB0914841F671318163016849084900016015
S1132DC000F04EB98C4801684908490001600021AF
S1132DD08163704789498A4A01E021B1491E136918
S1132DE0DB07FAD411B96FF002007047506001207C
S1132DF01060106910F0060F09D0410702D54FF09A
S1132E00FF307047800702D56FF001007047002043
S1132E1070472DE9F8430D460026002D804649D021
S1132E207848DFF8D8910168754C0FF2E410CAB9FC
S1132E30754A91423CBF40F2F311FDF7A1FF002710
S1132E40AF4237D258F8040BE0607F1C08202060A2
S1132E50484601E060B3401E2169C907FAD400283E
S1132E60EED125E0694A91423CBF4FF40771FDF76A
S1132E7087FFFFF78BFF00270EE0206900F01900A1
S1132E80102808BF206020690007F6D558F8040B05
S1132E90E0607F1C10202060AF42F4D3FFF780FF76
S1132EA0484601E020B1401E2169C907FAD408B997
S1132EB06FF002063046BDE8F2832DE9F84F044670
S1132EC014F003000D46174698464FF0000B0FF21E
S1132ED0401904D040F275214846FDF751FF17F020
S1132EE0030F04D04FF41E714846FDF749FF424ECC
S1132EF0306840F001003060B808009004D140F21E
S1132F007F214846FDF73CFFD946AA4602E0B94472
S1132F100AEB870A0098814519D204EB89073846E1
S1132F20FFF758FF010027D1C7F30A00C0F500607E
S1132F3087080098A0EB0900B84238BF074642460C
S1132F4039465046FFF765FF5FEA000BDFD0206883
S1132F50296888420BD02046FFF73CFF5FEA000B4C
S1132F6005D1424601212846FFF753FF83463068C6
S1132F704008400030605846BDE8F28F38B5054639
S1132F8068051E4C05D040F2E2210FF28400FDF7E3
S1132F90F7FE1948016841F00101016085600121D3
S1132FA041604169490704D500F01DF84FF0FF3036
S1132FB032BD4169890704D500F015F86FF00100AE
S1132FC032BD0221416001E024B1641E4169C90798
S1132FD0FAD424B900F007F86FF0020032BD00F013
S1132FE002F8002032BD01684908490001607047B9
S1132FF0012362E78C00002008000E4080969800B0
S11330000C000E409000002040420F00809FD5002D
S1133010433A5C53696C69636F6E4C6162735C53D1
S1133020696C69636F6E4C616273456D6265725A57
S11330304E65745C352E382E302E302D414C504860
S1133040415F315C706C6174666F726D5C656D6C50
S113305069625C7372635C656D5F6D73632E63009C
S113306080B500F00AF81549154A0968C1F308212A
S1133070491CB0FBF1F0106002BD124912480A6805
S113308002F00702022A09D00AD3042A01D002D38B
S113309006E0406805E04FF4004002E0006800E00C
S11330A08068C96EC1F30421491CB0FBF1F070477C
S11330B00648016841F470010160704708410E4000
S11330C09000002094400E408000002088ED00E035
S11330D038B505000C4608BF3F2013D0012D08BFAA
S11330E04FF478400ED0022D08BF4FF47C6009D015
S11330F0032D08BF4FF47C4004D0042D05D0052DCA
S113310003D1FF20E040C00705D44FF443710FF210
S11331100820FDF735FE3022774912FB05F2012025
S11331201144A040886131BDF8B504460D461646E9
S113313000271BE0401C8442FCDAE80703D50C217D
S11331400120FFF7C5FFA80703D50B210120FFF7D6
S1133150BFFF680703D502210020FFF7B9FF280746
S113316003D504210020FFF7B3FF7F1CF8B2B0425F
S113317038BF0020DFD3F1BDF0B56048D1B000689E
S1133180000E8F2810DA5E485B4C016841F004029F
S113319002604FF05013002230255543521C6351F6
S11331A0062AF9D3016001E0902806DA554801683F
S11331B0C909C90141F02001016000F0D7F80123D9
S11331C004220C210120FFF7EAFC012304220B2135
S11331D00120FFF7E4FC0123042202210020FFF771
S11331E0DEFC0123042204210020FFF7D8FC6846FA
S11331F0FFF7A8F900281CBF009810F1010F424CFA
S113320040F2012535D000F043F800984FF49C7249
S113321002A900F0AFF802A800F0D3F80646AE42C7
S1133220F9D000F035F840F20327BE4219D100F07E
S11332302BF800F02DF80399029800F041F958B9E1
S113324001220A21FFF770FF0A220A212F48FFF703
S11332506BFF384600F0D8F900F01AF800F014F8C3
S113326007E008220A212046FFF75EFF384600F0F7
S1133270CBF906220A212046FFF756FF284600F024
S1133280C3F9002051B0F0BD0622052120464BE7CA
S113329001220A21002047E780B51D480068B0F5E7
S11332A0803F05D000F012F878B900F052F960B10F
S11332B02820184900680860016881F3088881F3B0
S11332C009884068BDE80240004701BD1048006815
S11332D040050FD54FF000504FF20F024188914244
S11332E008D1008840F20221401A01D0C01E01D149
S11332F0012070470020704700A00040FC81E00FCF
S1133300B0400E402C400E4040420F0020A1070068
S113331004500E4008ED00E0433A5C53696C696365
S11333206F6E4C6162735C53696C69636F6E4C6160
S11333306273456D6265725A4E65745C352E382E23
S1133340302E302D414C5048415F315C706C6174BB
S1133350666F726D5C656D6C69625C696E635C65F9
S11333606D5F6770696F2E6800000000FEF77CBF18
S1133370FFF7DAB830B5B2F59C7F83B005460C464A
S113338002D24FF401703EBD4FF49C712046FDF70C
S113339035FD69462846FEF7ADFF25604FF496706B
S11333A020440199016000214160816061602172C3
S11333B06172A172E17204F10C00FDF7CEFE0020EF
S11333C03EBD70B5C4B0044601A80021002200230C
S11333D00EC04FF49670261840F20225B06800BB68
S11333E07168306881421CD220684FF4807304AA4B
S11333F0FEF7B3FF01A800904FF4807304AA211DC7
S113340004F10C00FDF7C2FE7168B06001F5807133
S1133410716000281CBF084988420AD140F201208B
S113342008E0A07A00281EBFE07A002840F20320BA
S113343000D1284644B070BD050001002DE9F843D1
S1133440044628200D4600681646844221BF06EB38
S113345004082821496841452FD300F13401089814
S1133460A14228BF884500F1400702D3081B285811
S11334703860012BA14619D1387930B1E00AC00275
S113348000F0E6F80020387104E0600504BF484607
S113349000F0DEF804F50060C40AE40204E020460B
S11334A000F0D6F804F500644445F8D332462946C2
S11334B04846BDE8F84300F0D3B8BDE8F18370474F
S11334C070B5ADF5227D044650A80FF2E001482204
S11334D0FDF768FC0FF21C114CC905A803A94CC0E8
S11334E050A8059000250FF21810D0E90023CDE96B
S11334F001232046FEF7FEFE00F0A6F808A8FDF71B
S11335002CFE0498854213D24FF4807362AA294694
S11335102046FEF722FF05A800904FF4807362AAAC
S113352001A908A8FDF732FE002805F58075E8D04A
S11335309DF80A009DF80B10084204D021464FF074
S1133540FF30FFF779F800F081F801200DF5227DB6
S113355070BD30B528249BB0206802684168456B73
S113356002F16042B2F5F84F08D8814224BF626884
S11335708A4203D3854228BFAA4201D2002012E026
S11335806846FEF75DF921686A1A6846FEF762F933
S11335906846FEF761F905F1200229466846FEF700
S11335A0BBF900B101201BB030BD000000000000D9
S11335B00000000000000000000000000000000007
S11335C000000000000000000000000000000000F7
S11335D000000000000000000000000000000000E7
S11335E00000000000000000000000008040000017
S11335F001000000000000003D340000BF34000062
S113360000000000000000004FF0005108804FF25D
S11336100F0048800948016821F4E06141F48061A9
S11336200160BFF34F8F0648064A016801F4E06168
S113363011430160BFF34F8F00BFFDE700500E4000
S11336400CED00E00400FA05FFF7B2BBFFF7BABBCC
S113365080B5FFF793FCFFE7401E8041C00F02BD19
S113366080B5FFF7C5FCF7E7D7220000F52200007C
S11336705B2300000B2400000F25000083250000BD
S1133680D325000075330000C3330000BB220000C3
S11336901D2300007B2300004924000010B450F8CF
S11336A0041B79B10268436802440830DC0744BF54
S11336B0A9F10104E31852F8044B43F8044B091F21
S11336C0F9D1ECE710BC704710B5074979441831BB
S11336D0064C7C44163404E00A68081D11448847EB
S11336E00146A142F8D110BD2C0000003C000000AE
S11336F04EF68851CEF20001086840F4700008606C
S1133700BFF34F8FBFF36F8F4FF00070E1EE100ADD
S11337107047000089FFFFFF140000005C000000F8
S113372080000020000000000120C046002801D0D5
S1133730FFF7CAFF0020C046C046FFF71DFD00F09A
S113374000F800F001B800000746384600F002F81F
S1133750FBE700002021090326311820ABBEF9E75E
S1133760024880470248804702480047B1300000C1
S113377099320000A537000000F0490200800000E3
S1133780C0EA210100000000000000004D5832355D
S11337905238303335460000736563703235367203
S11337A031000000C046C046FFF7A2FFFFF7BCFF90
S11337B0FFF7FEBFFFF7FEBFFFF7FEBFFFF7FEBF39
S10737C0FFF7FEBF4E
S90337A520
