:10400000F87B002033ED010041ED010043ED01009C
:10401000A70A00010041000000000080000000002D
:104020000000000000000000000000000000000090
:104030000000000000000000000000000000000080
:104040000000000000000000000000000000000070
:1040500000000000FFFFFFFF000000000000000064
:104060000000000000000000000000000000000050
:104070000000000000000000000000000000000040
:104080000000000000000000000000000000000030
:104090000000000000000000000000000000000020
:1040A0000000000000000000000000000000000010
:1040B0000000000000000000000000000000000000
:1040C00000000000000000000000000000000000F0
:1040D00000000000000000000000000000000000E0
:1040E00000000000000000000000000000000000D0
:1040F00000000000000000000000000000000000C0
:10410000F87B002033ED010041ED010043ED01009B
:1041100045ED010047ED010049ED01000000000000
:104120000000000000000000000000004BED010056
:104130004DED0100000000004FED010051ED0100C8
:1041400041A600003B67010053ED010043670100F9
:104150006F6701004D6701004B6701006767010051
:1041600055ED010057ED010059ED01005BED010037
:104170005DED01005FED010061ED010063ED010007
:1041800065ED010067ED010069ED01006BED0100D7
:104190006DED01006FED010071ED010073ED0100A7
:1041A00075ED010077ED010079ED01005767010021
:1041B0005F670100BF0301007BED01007DED0100A1
:1041C0009FEC01007FED01000000000000000000F6
:1041D00000000000000000000000000000000000DF
:1041E00000000000000000000000000000000000CF
:1041F00000000000000000000000000000000000BF
:104200000298380002984400029896010298B8017A
:104210000298680002987C00029868000298960054
:104220000298D6000298F20002980801029818013C
:1042300002985C010298700100C6CC0F002106981C
:10424000AA0400F800C6CC0F00210698AA0400C5F5
:104250009C0F0021069816060698F6070698600837
:1042600000C5A00F002100F800C6CC0F0021069861
:10427000AA040698840806985A0700F800C6CC0FCE
:1042800000210698AA0410B902BA0698380300C59E
:10429000A00F002100F800C6CC0F00210698AA0448
:1042A0000698300503DC147210B902BA0698380378
:1042B00001D8087120B802A800F80698840800C543
:1042C000A40F00210698300503DC0472042506982B
:1042D00060060298B20900C6CC0F00210698AA0415
:1042E0000698840800C5AC0F002106986006029865
:1042F000B20900C6CC0F00210698AA0400C2000033
:1043000002020698360300F800C6CC0F002106987A
:10431000AA0406985A0700F800C6CC0F0021069898
:10432000AA040698300507DC0A7200C5A00F002118
:1043300000F806985A0703B900C200000200069868
:10434000380300C5B00F0021069816060698F60738
:104350000698600800C5B40F002100F800C6CC0F15
:1043600000210698AA0400C5B80F00210298B209DE
:1043700000C6CC0F00210698AA040698E60A069803
:10438000840806985A0700F80698D40500C024004F
:104390000840207800F800C6CC0F0021B11007605B
:1043A00000D80E7100C0084008407F78020C7E786B
:1043B0000698AA040298AA0800C6CC0F0021069805
:1043C000AA0400C2020200000698360304D906714E
:1043D00001B802A800C00C0F0021041301DB3471E6
:1043E0000698EC0202DB1871FC2224101128112817
:1043F0000698620B00C218000840FF20081200C097
:10440000620F00210410076007600698380B01D87E
:10441000067110DB06720298A20200BB00C55C0F99
:10442000002154155114076407644112FF321071C2
:10443000511000C11C0F00210698AC02014341122B
:104440000762FF3216715110076000C11C0F002176
:1044500020210698AC020768014300C0600F0021CC
:104460000698620B013B00C1180F00211411311096
:10447000FF300C7104610112006001DAF871311033
:104480000760FF300C7100610112006001DAF87101
:1044900001D9107200C00000100006A802B80298EE
:1044A00088010698940900B8477800F83088408859
:1044B0005088FFD8087102ECFF20F87000B802ECB9
:1044C00000CD1414108801BB4111FF31505104710B
:1044D00031400764006B10DBF07100910421FF2272
:1044E000DE720F4800950094009300A000C2640F94
:1044F000002124111114FF3402EC00C8FF24FA76C5
:104500000761113807610698380B01110822241041
:10451000112806984C0B00DC087201B8029888013B
:1045200000A000A088BA727A811204DAFC7200A09E
:1045300088BA527A00A0267000C0140F002100C46F
:104540006000084044140410014410D906710CDBCB
:10455000087200B8103C067201B8076A00BB00C1BF
:10456000100F002100C4B4500840141120391272F9
:10457000417B007CB82400C200000101281400A087
:104580000698240300C20C0F0021241220DA0672C0
:10459000617B007C0298300300C06C70084003B956
:1045A00018100110011001B9181000A0B11001D8A5
:1045B000047200A000C0287008400411108800C1D7
:1045C00000180040181000C06C70084004111088DA
:1045D00000C0147008400411108800C200002000C0
:1045E000214118103DB11088F4B842784420727807
:1045F000D8207378E82073784FB200C4FFFF808022
:10460000413A4FAA00C300004040069898030110A9
:1046100001100110011000C004700840041107616E
:1046200000C000004000003A0471084908D90E7229
:10463000311000C400007F004138015200C000006A
:104640000040003A0471044904D90E72311000C4CC
:104650000000007F4138015200C000000200003B12
:104660000A72006331424FAAA2704FAA44B801688F
:104670005378F8B853784020527800913DA90091C2
:1046800000C01470084018100091582018100091B4
:10469000BC20181000A000881DB00220015840283E
:1046A00006751EAC01EC009000A001B0076800C3C5
:1046B000700F00213414036C41500F304150081327
:1046C0000F3003640F340111C04806983E05069868
:1046D000300303DD1E7204BA00C06C0008400411F0
:1046E00010D9047106BA0C2328130478FC2302980D
:1046F000B80501DD0C7200C044000840257826781A
:1047000009DD087208230298B805411303DF067219
:104710000298200900DD067206987A0953B080BB22
:10472000006B30380A7109DD06710298A20900A0F9
:1047300000C0700F0021041003600F3000A010882B
:10474000B111076980D90A7100C1800008400811C1
:10475000009100A0B11100C2000000402039067293
:104760000298B20500C1740F0021141201DC067218
:1047700000BC247048BC00C060000840041040D851
:10478000087101B80698DC05F0DA0C720CDB0871D0
:1047900002B80698DC0500C380000840FFB801207D
:1047A00000C1780F00211411014118130142281390
:1047B000481300B80298D40500C1383008401411DD
:1047C00000C000600840041003600130056801412A
:1047D000181300A000C1740F002114120368F030F8
:1047E0002113F03331520152281100A000C02030B3
:1047F0000E40041104101050F47200A000C0000C10
:104800000000013900C028400E400A780B780412DD
:104810001142281000A00698BE0700C0F80F002122
:1048200004112EA900C0043008402178227800C06D
:10483000980F00211DB11810069890060111FF3045
:104840000769FF3151B300C4F3FFFFFF413B11592A
:1048500000290675084B027051AB06986E0700A040
:104860000698BE0700C0FC0F002104112EA9F820F5
:1048700004110698FC0500C0043008402178237814
:104880000698900600C0880F00211DB1181000A0E6
:1048900000C0FFFF00005414013C00C0BC0F002109
:1048A0000410012C0A7500B826A80698960400C0CA
:1048B000840F00211DB1181028B000C1F0FFFFFFC8
:1048C000113800C10E000000114028A800C080006F
:1048D000000000C144300840081100C0006F000013
:1048E00026A800C0043008402178050C00C0243000
:1048F0000840267800C063EF000026A8050C20ECD5
:1049000000C004300840247820EC217800C07BEF00
:10491000000026A828B000C1F0FFFFFF113800C139
:104920000A000000114028A8050C00C0043008400F
:10493000207820EC0F0C00C0984008404678417861
:104940000698EC0500C2800F0021241000C300FF70
:10495000FFFF31381140081200A00698BE0700B8CA
:1049600026A800C08C0F00211DB1181000A0A4BB08
:1049700000C17C300E40141100C0008001000039DD
:104980002871B11004D822716E7B6F7B00C060303B
:104990000E40041100C20000001021411810142024
:1049A000041101BA21411810B11002D81071707BA6
:1049B00030B8627860780DB001D8FC7100A030B8D2
:1049C00040780DB101D9FC72427800C074300E40BD
:1049D000041100C2FEFFFFFF21391810EC20041162
:1049E00000C2FFFFFFEF213918101C78A4BB707BB9
:1049F0004E7B4F7B00A008B86E784EB010D818726E
:104A000000C00E0000003EA8140C00C00F00000003
:104A10003EA802982E0800C00E00000044A8140C06
:104A200000C00100000000C1B0300E40081100C0FD
:104A300077801F003DB201423DAA00C1C40F002192
:104A4000141054A8140C00C077E01F0001423DAAC6
:104A500051B801687D7800C00000004002A800A0A5
:104A6000069824030698AC0306983003541406985D
:104A70009604F4B84578090C00C0940F00211DB1CC
:104A8000181000A051B801685D7800B844A83EA88D
:104A900000C1B0300E40081100C0001000003DB150
:104AA00001393DA908B86F7800A0541000DC1871D6
:104AB00001F801140698960400C00000010006A841
:104AC00000B8417800F80298CA0801F800C5800FC4
:104AD000002154155114FF3507644113FF34076357
:104AE0003112FF330762FF323110212B0158012AA6
:104AF0000698EC050158512804750158412818758D
:104B000051B00CD806712158067031101159012985
:104B10000675FF0FB87000C00000800006A800F8FE
:104B200000C37C0F0021341300C4E010084044127D
:104B300000C000010400013A127108242814084B37
:104B400000C458100840237C287004DBF4720DDD8B
:104B5000EE7100C1401008401410F82114110158E2
:104B600011280E7100C17810084008110760081163
:104B7000308800B806985405009300C07C0F0021CF
:104B8000041102D90A7100C16C000840247900B9EF
:104B9000181000A000C07C0F002104110449181057
:104BA00000A00698E60A11510698FC0501B8029883
:104BB000540500C0FFFF000054144115013D076477
:104BC0000764013C069896045088069822030095D5
:104BD000B11040D80C7108B8657818B8757800F82D
:104BE00008B86C7820B85A7859785B7800C1C80F3B
:104BF0000021141054A84EB010D806710298520A21
:104C00004DB100C09FFFFFFF113840B102D91472AF
:104C1000604800C1040000401112104A04BB415416
:104C20000C70204802B903BA02BB02BC4DA840A9CF
:104C3000F8B87078190C3EB141413EA9F4B97379C6
:104C40007378717800C1C00F002100C40041084092
:104C5000287000C20000010044AA230C00C200001A
:104C60000B0044AA00C1C00F002100C22000004078
:104C700004BB00C41841084000C0C83F0000141124
:104C8000113821400814050C114008140F0C2FABEB
:104C9000050C0424B11008D814711CB879787B78FD
:104CA0007A7820B879787B787A78607CF42441131C
:104CB000511406989604727B00C04C410840050CC4
:104CC000687840EC00C0900F00211DB1181000F86A
:104CD00000C068600840041100C000008000103867
:104CE000047240EC00A0015053A80698D00A4EB0C0
:104CF00010D80A7200C4F8400840087000C410417F
:104D0000084041130C23527C407BFC2301502FA808
:104D1000050C341200C1FF3FC0E0113A28130A0C01
:104D200000C000000100081406322813050C0150D1
:104D3000081408B86D7800A004D90471036002D982
:104D40000471016001D90471006000A01088041191
:104D5000033008710761FF20FC721110FF300091D1
:104D600000A010880411023006710761076111105C
:104D700000C1FFFF00001138009100A0DF02000019
:104D80000028012803280118052A0018002A012AF2
:104D90000A18292A02290000F01921B4478FA4BF5C
:104DA000A14F63FDEED6141D636032E0375EA48828
:104DB000534E6DFB6435BFF753A1811F582CD0A50E
:104DC0004540FC34F32742980C0237000C070020C2
:104DD000130C110053A1811F582CD0A54540FC3461
:104DE000F3274298080100000000000013080F009C
:104DF000636032E0375EA488534E6DFB6435BFF7C5
:104E000010F01921B4478FA4BFA14F63FDEED61453
:104E10001D0000000C53696C69636F6E204C616269
:104E20007300000005020C00292A0000020A180085
:104E30000240030005020900012A000000000000F2
:104E400005020700002A00000200180028000400E4
:104E50004407002005280300052A0000020118006D
:104E600000000108000000005C4E00000200010884
:104E700000000000544E0000040002080001000081
:104E80004C4E00000A00070800030000020000006A
:104E90000000010800000000484E00000200010868
:104EA00000000000404E0000060001080000000065
:104EB0003C4E00000200010800000000344E0000DB
:104EC0000700010800000000304E0000000001084B
:104ED000000000002C4E000002000108000000004D
:104EE000244E00000900010800000000144E0000DC
:104EF0000000010800000000004E00000200010850
:104F000000000000EC4D00000180020800070000D6
:104F1000E44D00000200010800000000D04D000038
:104F20000280060800010000C84D000003000F00C9
:104F300011000000604E0000110000000B00000096
:104F4000804D000003000000984D000003000000A9
:104F50002C4F00001EF50000000000001FF50000AF
:104F60000000000000000000A00042010A600706E7
:104F7000020A060700000000636032E0375EA48882
:104F8000534E6DFB6435BFF753A1811F582CD0A53C
:104F90004540FC34F327429820010000CDE5010094
:104FA0002004000101E601002001000211E60100D9
:104FB0002000000333E601002000010097E9010012
:104FC00020010101C9E9010020000103EDE8010011
:104FD0002002010A6FE901002001010B19E901001B
:104FE0002001010C59E9010020070300DFE701005F
:104FF0002002030195E701002001030239E80100C6
:10500000200003034BE80100200503045BE80100D6
:105010002008030589E80100200503066DE801006A
:1050200020020307A9E7010020010308CDE70100E2
:1050300020090800050001002001080143000100CB
:10504000200208026300010020020900D958010073
:1050500020010901EF58010020020902195901003D
:105060002005090363590100200609047B5901004A
:10507000200409059D5A010020030906B55A0100C4
:10508000200309079759010020060908CB590100A0
:1050900020040909355A01002004090A4B5A01006D
:1050A0002006090B615A01002002090C7D5A0100FB
:1050B0002001090D135C01002003090ECB5A0100E9
:1050C0002004090FE15A0100200509104B59010085
:1050D00020020911115A010020070912B1590100DB
:1050E00020040A00015B010020020A013B5B010071
:1050F00020050A02A35B010020050A03BB5B010037
:1051000020040A04E55B010020040A05FD5B0100A0
:1051100020030A06755B010020020B00A5000100B8
:1051200020020B013901010020010B028F01010057
:1051300020050B03DD01010020050B04DF01010048
:1051400020010B05E101010020060C00BB600100FD
:1051500020000C0B0F610100200A0C0CDD60010027
:1051600020010C0D3561010020000D0059E6010001
:1051700020000D01D1E6010020030D02EFE6010041
:1051800020020D0307E7010020020D045DE7010086
:1051900020030E00D1E9010020010E01E7E9010022
:1051A00020000E0207EA010020040E0C17EA01009D
:1051B00020010F006B62010020020F01C16201009B
:1051C00020020F024763010020010F045562010015
:1051D00020010F068162010020000F07A362010079
:1051E00020050F08E162010020020F09F9620100A9
:1051F00020010F0A2563010020000F0B3962010016
:1052000020020F0E6563010020000F0F7B63010079
:105210002001110091EA01002004110107EB0100B7
:105220002000000003000100200200010300010033
:10523000200200020300010020020003030001001D
:105240002002010003000100200001010300010011
:1052500020060103030001002002010A03000100EF
:105260002003010B030001002002010C03000100D8
:1052700020030300030001002002030103000100DA
:1052800020020302030001002002030303000100C7
:1052900020020304030001002002030503000100B3
:1052A000200203060300010020020307030001009F
:1052B000200203080300010020020800030001008F
:1052C000200208010300010020020802030001007F
:1052D000200209000300010020020901030001006F
:1052E000200209020300010020020903030001005B
:1052F0002002090403000100200209050300010047
:105300002002090603000100200209070300010032
:10531000200209080300010020020909030001001E
:105320002002090A030001002002090B030001000A
:105330002002090C030001002002090D03000100F6
:105340002002090E030001002002090F03000100E2
:1053500020020910030001002002091103000100CE
:10536000200209120300010020030A0003000100CB
:1053700020030A010300010020020A0203000100C9
:1053800020020A030300010020020A0403000100B6
:1053900020020A050300010020040A0603000100A0
:1053A00020030B000300010020030B010300010098
:1053B00020030B020300010020030B030300010084
:1053C00020030B0403000100200B0B050300010068
:1053D00020020C000300010020060C0B030001005A
:1053E00020020C0C0300010020020C0D0300010040
:1053F00020020D000300010020020D010300010046
:1054000020020D020300010020030D030300010030
:1054100020020D040300010020020E000300010021
:1054200020020E010300010020020E020300010011
:1054300020060E0C0300010020020F0003000100F3
:1054400020000F010300010020020F0203000100F1
:1054500020020F040300010020020F0603000100D8
:1054600020020F070300010020020F0803000100C3
:1054700020020F090300010020020F0A03000100AF
:1054800020020F0B0300010020020F0E0300010099
:1054900020020F0F0300010020041100030001008F
:1054A0002001110103000100A0040000030001001D
:1054B000A002000103000100A00C01000300010094
:1054C000A004010303000100A00001040300010087
:1054D000A002010503000100A00B0300030001006E
:1054E000A000030103000100A00A0800030001005E
:1054F000A003080103000100A00808020300010046
:10550000A003080303000100A00309000300010039
:10551000A006090103000100A00509020300010023
:10552000A004090303000100A0070904030001000F
:10553000A006090503000100A003090603000100FD
:10554000A0070A0003000100A0060A0103000100F1
:10555000A0070A0203000100A0060A0303000100DD
:10556000A0030A0403000100A0030B0003000100D4
:10557000A0020B0103000100A0070B0203000100C1
:10558000A0010C0003000100A0080C0103000100B1
:10559000A0030D0003000100A0040E0003000100A1
:1055A000A0080E0203000100A0050F000300010087
:1055B000A0010F0103000100A0050F02030001007C
:1055C000A0020F0303000100A0030F040300010069
:1055D000A0080F0503000100A0000F060300010052
:1055E000A0010F0703000100A0020F090300010042
:1055F00000000000000000000000000001000200A8
:1056000015005400A9005301A7024F059F0A00008E
:10561000020000000100000008070F000A00C80097
:1056200020000000A000000000000000A0004201D7
:105630000A200706020A0407000000000002070013
:105640000000000000000000A00042010A20070640
:10565000020A04070000000000020700000000002A
:10566000C001C001F4010000FA0000009600000033
:10567000640000004B000000320000001E0000002B
:1056800014000000000000000100000009000000FC
:1056900000000000010000001000000001000000F8
:1056A00000000000040000000100000008000000ED
:1056B00001000000100000000100000000010000D7
:1056C00001000000000800001D00000000020000B2
:1056D0001D000000000400001D000000000001008B
:1056E0001D0000000100000000000000000000009C
:1056F00000000000000000000000000002000000A8
:105700000000000000000000030000000000000096
:105710000000000000000000030000000100000085
:105720000000000002000000010000000200000074
:1057300003000000000103FF04FF0200420000001C
:1057400000F04902000000000000270080841E00D5
:10575000809C2B8F48570000010000003C008A000D
:105760003C008C0000000000571601006516010087
:1057700000010602010000000C08040108000000FE
:10578000070000000200000004000000000000000C
:105790000400000000000000050000006C888391F8
:1057A000AAF5A53860370BDB5A6083BE0000000005
:1057B00000000000010000000000000001000000E7
:1057C00000000000000000000100000000000000D8
:1057D00001000000020000000200000003000000C1
:1057E00000000000020000000000000000000000B7
:1057F00000000000000000000000000002000000A7
:105800000200000001000000000000000200000093
:105810000000000000000000010000000000000087
:105820000100000000000000050000000100000071
:10583000000000000500000002000000020000005F
:105840000300000000000000020000000000000053
:105850000000000000000000000000000000000048
:105860000200000005000000010000000000000030
:1058700005000000FFC1FBE84C90728BE7B3518933
:1058800063AB232302841872AA612F3B51A8E5372A
:1058900049FBC9CA0C18532CFD45E300F40F010164
:1058A00000000000F80F010100C00300FC0F01011F
:1058B0000BC00300040001000161000008000100AA
:1058C0002F00000018000100000000001C00010073
:1058D0000100000028000100000000002C00010071
:1058E0000000000030000100000000003400010052
:1058F000000000003C00010000000000400001002A
:10590000A007000048000100000000005400010052
:10591000000000005800010000000000A00001008D
:1059200001480000A4000100FF4C0000A800010095
:1059300001490000AC000100FF4D00000020010003
:105940000807000010200100FFFFFF0018200100E1
:105950000060DA00083001003FAC00002C3001008C
:10596000AA6AF40130300100AA2A10003430010084
:10597000010000003C300100AB6A00004030010033
:1059800000000000A04001007A27000FF440010051
:10599000201000003441010080080000384101005F
:1059A000E6870000404101004800880044410100B2
:1059B000C0E65311146001001000000018600100DF
:1059C000000000841C6001001FC001002060010075
:1059D000C8200000246001000000000028600100D1
:1059E000000000032C600100000000003060010096
:1059F000C804FF0034600100A20800003860010004
:105A00000A0000013C6001009200040040600100B7
:105A1000D6BE898E4460010000000000486001008D
:105A20008C00D40A4C6001000000000050600100AE
:105A3000D1032A00546001000000000058600100FA
:105A4000000000005C600100040A13226060010095
:105A500032414A4F646001000000000014700100F0
:105A6000F870020018700100000300001C700100B3
:105A70006000D081287001000000800148700100A2
:105A80003C3D00004C700100BC190000707001002A
:105A9000050102007470010013010000787001001C
:105AA00000235500FFFFFFFFF40F0101000000007D
:105AB000FC0F01010BC00300083001003FAC0000E7
:105AC000F440010020100000FFFFFFFFF40F010170
:105AD00000080000FC0F010108C0030008300100AD
:105AE00037AC0000FFFFFFFFFC0F010109C00300FE
:105AF0000830010037AC0000F44001002000000035
:105B0000FFFFFFFFF440010020000000FFFFFFFF48
:105B1000FC0F010109C003000830010037AC000090
:105B2000FFFFFFFF4648050359450000784648053A
:105B3000035964000545000000000000780564007A
:105B40000000000006450000000000007806640028
:105B50000000000000020000000000000001000042
:105B60000000000000020000000000000001000032
:105B70000000000000020000000000000001000022
:105B80000000000000020000000000000001000012
:105B900000000000F8510545F94651054503480548
:105BA00059000000000000007846510545F90348FF
:105BB000055964FB0448055100000000F8510545F3
:105BC000F998460348054558528346510545580003
:105BD000F903480546785A64F878FE510545FB04F8
:105BE00048055100F946034805590000000000002F
:105BF000000000000000000078F9460348055964E1
:105C00000000000000000000000000000000000094
:105C10000000000000000000000000E1FFFFFFFFA7
:105C2000FFFFFFFFFFFFFFFF00000000000000007C
:105C30000000000001000000FFFFFFFF4B60D227C3
:105C40003E3CCE3BF6B053CCB0061D65BC86987684
:105C500055BDEBB3E7933AAAD835C65A96C298D841
:105C60004539A1F4A033EB2D817D0377F240A46385
:105C7000E5E6BCF847422CE1F2D1176BF551BF378E
:105C80006840B6CBCE5E316B5733CE2B169E0F7C61
:105C90004AEBE78E9B7F1AFEE242E34F512563FCFD
:105CA000C2CAB9F3849E17A7ADFAE6BCFFFFFFFF97
:105CB000FFFFFFFF00000000FFFFFFFF80B5B449BA
:105CC00009684860B34829E038B5B14D04462868F2
:105CD000047122462868401D00F09CF92968AE48EE
:105CE0000DE038B50C46AA4D11462A689080947193
:105CF00022462868C01D00F08DF92968A74800EBEE
:105D0000042041F8040B00F031FAA5480068001D9A
:105D100032BD80B59E4909688880A24841F8040BCD
:105D200000F024FA9E480068001D02BD9E488008CD
:105D3000800000F2FF70C00AC00200F1100140F6BE
:105D4000A7230A889A4207D1098F39B10906974AD1
:105D5000490B8142116001D000207047012070473B
:105D60002DE9F04FADF6A46D82A8E42100F048FAC9
:105D7000C42082900DF52C7800208DF8A902012115
:105D800001208DF8AC024FF0005740F6B830A8F86B
:105D900004000125BBA8AC90854C8648C8F81800C3
:105DA00085488008800000F2FF70C60A834800F032
:105DB00087FB834801683968F602012904BF002582
:105DC0004160FFF7B3FF10B90120386008E03DB132
:105DD00000203860706920603068854670688047B0
:105DE000022038604FF482717648774D684E774FC5
:105DF000DFF8DC91DFF8DCA1206002A800F000FAF7
:105E000030227549754C76A800F014F9CC227449FB
:105E100043A800F00FF943A876900DF5867B02A801
:105E2000579000208DF8080076A8C8F8100082A8C6
:105E300001F093F80DF5DB700190DFF8A88109E01F
:105E4000316800200871684930680160011D6648AA
:105E500000F09DF901F0BEF9644A01681140A029E3
:105E600009D0634A914258D0624A9142E8D0624ACE
:105E700091425AD0EEE73620FFF74BFF018841B937
:105E800081788DF80810C11C82780DF1090000F0AE
:105E9000C1F83520FFF73DFF018881B9C11C0422FC
:105EA000684600F0B7F8BBF8AA0000990843ABF8C1
:105EB000AA0001980099008B0843019908833A21B0
:105EC000306881804D490160011D4C4800F04EF959
:105ED0004B4A10210020FFF704FF018809B94088D0
:105EE00020601021474A0020FFF7FBFE018809B916
:105EF00040882860206800281CBF28680028A9D096
:105F00003168022008713168487130683E4901608B
:105F1000011D3D4800F02AF99CE7B0F805102A68F9
:105F2000914297D100F072F894E70179CAF8001015
:105F3000B0F80510C9F800102268914211D1C07A5A
:105F400028B1022802D0032804D00FE00020FFF778
:105F5000B5FE0BE030680760011D384600F006F919
:105F600004E02A68914201D100F050F83268D9F873
:105F70000000DAF8001011713168A1F80500002066
:105F8000C8713068C0F80080011D4046C2E70000BB
:105F900010010020200400012001000220030A0655
:105FA0001401002020020D03B7F10100700600204B
:105FB00008ED00E0644F0000B7F101000055080053
:105FC00004500E40004100006C0600202000000339
:105FD0006406002060060020344F000068060020A0
:105FE000604E000020040A0420010101F800FFFFB8
:105FF000A0000A00A0000801A0000A022002090077
:10600000784F0000884F00002002030100F10B01CF
:10601000807A59E662B38B0708D0521E11F8013B13
:1060200000F8013B00F024808B07F6D1830740F095
:10603000208000BF103A07D330B4B1E83810103ACE
:10604000A0E83810F9D230BC530724BFB1E80810DB
:10605000A0E8081044BF51F8043B40F8043BD207C5
:1060600024BF31F8022B20F8022B44BF0B780370B9
:106070007047083A07D3B1E80810083A40F8043BE3
:1060800040F804CBF7D25307E4E7052A50490868E3
:1060900000220A60002804BF012001F07FB9704788
:1060A0004C490860704700F11C025169802900D1F9
:1060B000704710B51168FF2309B191F83E303C30AC
:1060C000454984780C715269C1F805204B72002350
:1060D0000078404C88720022404808600B208BE01A
:1060E00010B53D4CA180214690F83E00A0710023E0
:1060F0003B4820600022374C24680720A04710BD91
:1061000010B503460846344993F83E300B71487188
:10611000831C1C0244EA1323324C23430B601346B6
:106120002C4C246802460620A04710BD70B5284DAF
:1061300082B028600024417A081800F11006306807
:10614000009001F069FC010004D04968301D8847C7
:10615000012403E03068311D00F02AF8286808B1F6
:1061600001F06FF900202860204676BD38B504465E
:106170000D4601F051FC010004D02846BDE8344032
:106180004968084729462046BDE8344010E0EDE75D
:1061900010B50446082001F06FFC10B94FF4C1702F
:1061A00010BD114904600A6842600860002010BDFB
:1061B00070B504460C4806680D4604E0326829466E
:1061C000204690477668002EF8D170BD0000000090
:1061D000E0060020EC06002030090020A0070B029A
:1061E000A0030B00A0000B01E406002010B5014C39
:1061F00002E000BFEC0600202468A04710BD002A82
:10620000002201F04BBC0028890001EB401000F196
:10621000844002607047890001EB401000F1844027
:106220000068704700F1806300F1C060196002608F
:106230007047401CB0FA80F0C0F11F00704710B5E5
:106240008142A441E20F1021DFF8400AFFF7DCFF92
:10625000E20FBDE810401821DFF8680BD4E7DFF843
:10626000301ACA6B02B1012241F67133CB63D2B24C
:106270000B68DFF8203A1818DFF84C3B984234BF1F
:106280004FF0807000200B6823F0407318430860C3
:106290000AB10020C8637047C01C0F2834BF000734
:1062A0004FF07040704738B50446002500F071FA91
:1062B000DFF8F42ADFF8781A944208D0DFF8EC2AE5
:1062C000944206D0DFF8E82A944204D006E0086839
:1062D00002E0486800E0886800F00700012806D066
:1062E0001BD303280DD005D3042806D015E001F0F8
:1062F0002DFC04E001F030FC01E001F02AFC054631
:106300000BE0DFF8C00A0068C00103D501F0E0FB34
:10631000850802E001F0DCFB4508284632BDDFF8C5
:10632000AC1A4A68D20702D40A680242FCD170470C
:10633000DFF89C0A0068704738B5DFF8982A0446F1
:1063400094421FBFDFF8902A9442DFF8902A9442CB
:10635000DFF88C0A2AD0DFF88C2A944224D0DFF8A8
:10636000882A94421ED0DFF8842A944218D0DFF89D
:10637000802A944212D0DFF87C2A94420CD0DFF8B5
:10638000782A944206D0DFF8742A94420CBF056B39
:1063900000250CE0C56A0AE0856A08E0056A06E0A7
:1063A000C56904E0856902E0C56800E00568DFF8BA
:1063B000200A04601921DFF8140AFFF72CFF0028D7
:1063C000F8D1DFF8100A84420AD0DFF80C0A8442C0
:1063D00008D0DFF8080A844208BF25F0C06504E051
:1063E000022000E0012060F35A65DFF8140A05601E
:1063F00031BD10B5DFF80C4A31B1022911D00ED3EE
:10640000042902D00FD310E0012121606060012037
:10641000606100F04AF80028FBD0606810BD0321DD
:10642000F3E70021F1E70221EFE7002010BD10B5EE
:10643000DFF8D0391C6824F0770441B102290CD070
:1064400008D304290CD038BF44F030040AE044F0EB
:10645000200407E044F0400404E044F0100401E0AC
:1064600044F05004586042B1012A09D0032A0AD0EE
:10647000042A08BF44F0040407E044F0010404E0E7
:1064800044F0030401E044F002041C6010BD10B5A8
:10649000DFF8704908212046FFF7BDFE18B900F06B
:1064A00004F80028FBD0606810BD1021DFF85809FF
:1064B000B1E680B500F0B0F8401C02BD491EDFE037
:1064C000F8B50446201200F00F000026401E0928EF
:1064D0000D46DFF8387914D8DFE800F0051E1413F4
:1064E00007202313262ADFF8A477C4F3043416B157
:1064F0003046FFF714FF2A4621463846BDE8F840EB
:1065000082E6F1BDDFF8080900F015F8DFF8E818B9
:10651000FFF795FE0837E8E71037E6E73037012642
:10652000E3E738371026E0E740374FF48036DCE702
:10653000DFF8E078D9E770B5DFF89418DFF8D848CD
:106540000E68DFF86428DFF86418012510F478106D
:106550005AD0B0F5003F27D0B0F5802F1ED0B0F54F
:10656000002F51D0B0F5202F24D0B0F5402F43D0CC
:10657000B0F5602F4DD0B0F5801F38D0B0F5901F2A
:1065800021D0B0F5A01F27D0B0F5C01F19D0B0F5AD
:10659000D01F1FD0B0F5F01F29D039E001F0A7FAC5
:1065A0006168C1F308210AE001F0A1FA2168C1F392
:1065B000082104E001F09BFAE168C1F30421491CC1
:1065C00012E0104615E01046FFF76DFEA16901F0DC
:1065D0000F0107E008460CE00846FFF764FE216A59
:1065E00001F0030105FA01F1B0FBF1F611E0DFF86B
:1065F000C007FFF758FE09E0DFF8200800F0C9F8EF
:10660000072806D0082803D101F071FA064600E0F9
:106610000026304670BD0000031103F00F03012275
:106620005B1E072BDFF89C1728D8DFE803F0040671
:106630000A0E10141C27086800E04869C0F3042003
:1066400070470868C0F300607047C86800E0886859
:10665000C0F308207047DFF8C83798420ED1086AA7
:1066600000F00F0006E0DFF8BC37984206D1886AD8
:1066700000F0030002FA00F0401E7047002070474F
:106680002DE9F8458A46011101F00F01491E07293D
:10669000DFF83077DFF87857DFF88C67DFF88C8722
:1066A000DFF8544773D8DFE801F004131A21273FBD
:1066B000546501F01AFAFFF7D2FD21464046FFF774
:1066C000BEFD386820F4F85040EA0A20386020E027
:1066D000786920F4F85040EA0A20786157E0386879
:1066E00020F0807040EA0A60386050E0F86830407E
:1066F00040EA0A20F8604AE001F0F7F9FFF7AFFD41
:1067000021464046FFF79BFDB868304040EA0A202A
:10671000B86001F0DDF9FFF7A2FD2846FFF70BFF97
:106720002146BDE8F4458AE5DFF80417884225D004
:10673000DFF8EC1688422AD15046FFF77AFD04466E
:106740000420FFF7ECFD386A000944EA00103862C3
:106750001DE0DFF8D016884219D15046FFF769FDD9
:1067600004464020FFF7DBFDB86A800844EA800059
:10677000B8620CE0DFF8B816884208D14FF48020E8
:10678000FFF7CDFD386B00094AEA00103863BDE819
:10679000F185012100F00F000128DFF8982608D0CC
:1067A000022814D0032816D0052820D006282BD084
:1067B00034E0506A00F00700022804D005D3042812
:1067C00007D01FD301E0042129E0052127E010694B
:1067D0000EE0022123E0506900F00700012811D0EB
:1067E0001DD3032801D0F4D308E0062117E09069F7
:1067F00000F00700012805D00228EAD0042808BFCD
:1068000009210CE003210AE0106810F0010003D018
:10681000012804D1082102E0072100E000210846F8
:1068200070472DE9F0410326032700F00F000128EF
:10683000DFF85844DFF8C085DFF8F45406D00228AA
:1068400036D0032833D005282FD03EE00229DFF8C8
:10685000DC0506D003291ED004291ED0052922D02C
:106860003DE00426002701220121384600F070F99E
:1068700001F03BF9FFF7F3FC6667DFF89405FFF7DB
:106880005AFE4146FFF7DBFC01F09FFA01F020F9C8
:10689000FFF7E5FC19E00127E5E70226022741465C
:1068A000FFF7CDFCDFE70126F9E7083500E02D1DF5
:1068B000012908D0022914D0032919D006291ED095
:1068C000092929D00BE00020286010212046FFF77D
:1068D000A2FCBDE8F0411821DFF8E8049BE4BDE824
:1068E000F08101220121002000F032F90220EBE7C3
:1068F00001220121012000F02BF90120E4E701F041
:10690000E7F84146FFF79BFC01220021DFF8FC0479
:10691000FFF77AFC0320D7E70420D5E7DFF8AC14B3
:1069200018B108680028FCD1012048607047DFF8E2
:1069300008050068704770B5DFF898240446944253
:106940001FBFDFF894249442DFF890249442DFF8CC
:10695000EC042AD0DFF88C24944224D0DFF8882479
:1069600094421ED0DFF88424944218D0DFF88024AB
:10697000944212D0DFF87C2494420CD0DFF87824C3
:10698000944206D0DFF8742494420CBF056B0025B6
:106990000CE0C56A0AE0856A08E0056A06E0C56998
:1069A00004E0856902E0C56800E00568DFF8880456
:1069B000046000F0B0F8052803D101F096F8FFF765
:1069C0004EFC1821DFF80404FFF725FC0028F8D15D
:1069D000DFF800148C420AD0DFF8FC138C4208D098
:1069E000DFF8F8138C4208BF25F0C06504E00220F0
:1069F00000E0012060F35A6500F08DF80528DFF80B
:106A0000F86303D131462046FFF719FCDFF8300464
:106A1000056000F080F8052803D101F059F8FFF770
:106A20001EFCDFF8EC03FFF786FD3146BDE8704041
:106A3000FFF705BC38B5DFF80C341C6800F0804067
:106A400040F04055AC4309B14FF08051002A14BFCB
:106A50004FF00055002504432143294319600028C5
:106A600008BF002A0BD001F05DF80446FFF7F7FBE2
:106A70002046BDE83440DFF88013FFF7E0BB31BDAE
:106A800010B500F047F801220021022000F060F864
:106A900020690022022808BF0122207808B142F4B0
:106AA000807240F20111DFF89C03FFF7BBFBE27A32
:106AB000DFF894030721FFF7B5FBA088617A41EA6C
:106AC000C022DFF88813DFF88803FFF7ABFB207ADA
:106AD000FFF7E2FB227AE188D20142EAC121A27AE1
:106AE000114340EA01026FF07F61DFF86803FFF7AE
:106AF00099FB617B207B090341EA0040A17B40EACE
:106B00000110E17BBDE8104041EA0002D249D348C0
:106B1000FFF788BB044611203BE600207047704712
:106B200010B5FFF7F7FF00220021002000F010F859
:106B30002078617840EAC120A17840EA016061686C
:106B4000BDE8104040EA0122C549C648FFF76ABBCC
:106B50002DE9F84F040090464ED0022C3AD045D390
:106B6000042C3DD071D201260220B2460025002916
:106B7000DFF89492B34F5FD0022C04BF386810F056
:106B8000300F4FF0000B0AD13868C0074FF0010BEF
:106B900005D5386820F0300040F010003860FE6302
:106BA00000F055F80028FBD0B8F1000F49D051464D
:106BB00000F04EF80028FAD0022C42D1BBF1000FB1
:106BC0003FD03868C0071FD501222021022000F0E5
:106BD000D0F81DE0042608204FF0030A0225C6E77E
:106BE000102620204FF0050A0425C0E7402680200B
:106BF0004FF0070A0625BAE74FF480764FF400708D
:106C00004FF0090A0825B2E70021022000F092F8AF
:106C1000022000F020F80446012200210220FFF7A4
:106C200097FF2146022000F037F8FE63514600F03E
:106C30000FF80028FAD004E0F86300F008F8002804
:106C4000FBD1BDE8F14F01F0C0B8BDE8F18F294696
:106C50004846FFF7E0BA0128794906D014D3032843
:106C600007D00CD3042806D00EE00869C005C00D7B
:106C70007047086800E0886800F07F0070477A4835
:106C800000684005400D70470020704700400E40EE
:106C900004000E407F4573FE70B50D46012805F0D7
:106CA0007F01674C494E06D041D3032811D02AD327
:106CB00004281BD070BDED05ED0D1A213046FFF7FD
:106CC000AAFA0028F9D12069400A45EA402020614B
:106CD00070BD0D4618213046FFF79DFA0028F9D106
:106CE0002068C00945EAC010206070BD0D4619211A
:106CF0003046FFF790FA0028F9D1A068C00945EAAC
:106D0000C010A06070BD534E306E606920F030003E
:106D100040F010006061C5F3C310FFF7BDFA40EA10
:106D200005023046BDE870405049FFF77BBA70BDA0
:106D300080400E404348026812F0300F18BF00290F
:106D400007D0202902D0302903D005E04FF40001FC
:106D500003E04FF4400100E04549C26E0A408A4218
:106D6000FBD1490243BFC06F800A00F0010001203F
:106D7000704710B502280BD121B13E4B4FF480640F
:106D80005C641960002A1CBFBDE81040FFF7D2BF49
:106D9000012010BD30B91F48006810F0020002D079
:106DA00001207047002070470200180003001A00FD
:106DB00005001E00002201B101224000411C1548BF
:106DC000FFF722BA00410E40809FD50040410E409F
:106DD0000C01002040420F0080841E0000093D008D
:106DE0009082E00FC0CF6A00405DC6000024F4002E
:106DF000C0EA210180BA8C010048E80180D5430235
:106E000018400E4050400E4090400E40B0400E40A2
:106E10000005080050410E4008410E4006000C00DD
:106E20006006120070071400FF00FEFF0148E80131
:106E30008009100070400E40080100203082E00FF1
:106E400010400E4024400E4028400E407FF80F00B6
:106E50002C400E4030400E40FFF00F0034400E40FA
:106E60007F1B000738400E409C400E40FF0700F09B
:106E7000FF03F10764400E400146DFF8900390F9EC
:106E8000000001F0FFBA10B51868DFF88413DFF8CE
:106E9000844348600023DFF88003086000222468F0
:106EA0000820A047002010BD10B504460022002194
:106EB0000020FFF7BFFD05211120FFF7B2FC0022E3
:106EC00000210220FFF744FED448D54A01686FF341
:106ED000D321016002EAC42201681143016001224A
:106EE00001210220FFF734FE04211120FFF799FC55
:106EF000BDE81040012201210120FFF79BBD80B5B4
:106F00006A460021322001F0D9FC18B9BDF8000012
:106F1000FFF7CAFF01BD70B50446C2480078A8B1AA
:106F2000C14DC2492E680968A019884201D30020CA
:106F300070BD22460021304601F03CFD2868201833
:106F4000C01C800880002860304670BD2046BDE827
:106F5000704000F082BD01F039BD2DE9F04F83B0E3
:106F6000044601F0F4FE04F1A80504F1A106002C8A
:106F70002868DFF8B892DFF8B0A21ABFF778002FC0
:106F800004274FF01E0830B1CAF80000A98808187D
:106F9000C9F800000120DFF88CB2A5498BF8000089
:106FA000062001F015FF002300220021002001F03F
:106FB000E5FE00233A466821022001F0DFFE384654
:106FC00002F051FA9BF8000040B1D9F80000DAF85D
:106FD0000010001F401A6021B0FBF1F800235FFA97
:106FE00088F25C21012001F0C9FE01F020FA02F0D4
:106FF00039FF34B9002001900090012300220021C4
:107000000DE0206800F0080101918008296A0091D4
:1070100000F0010080F00103EA69A969686903F0E2
:10702000BCF901F0AAFA207800060ED404F1D803C6
:1070300004220021352001F004FB04F1DC00436848
:1070400002780021362001F0FCFA03F0D3FBFFF7B1
:1070500056FF2068800900F00107704800680003AF
:10706000C00DADF802006A460021342001F026FC74
:1070700048B9BDF80000BDF8021088420AD017B127
:10708000FFF712FF06E00DF1020302220021342077
:1070900001F0D7FA00275CB13078400748BF0127DC
:1070A0002078400748BF0027286908B101F08EFC0E
:1070B00003F072FC0020019001AB6A4600212C20F5
:1070C00001F0B8FB00281FBF9DF800000628002033
:1070D0000190686A03F0A3FC1CB900230022012080
:1070E00008E020682A6A400800F0010004F1D0039B
:1070F00080F00100019903F0F3F803F0AFFC4D4874
:107100004D49006808601CB104F1B30003F0B8F900
:1071100000214A4801F0A7F93C490870002F0CBF34
:107120000220032003F069FEBDE8F78F80B500F070
:1071300055F808B1002002BD3E48006803F0D1FEBA
:1071400010F1010F02D14FF0FF3002BD4FF47A7100
:10715000A1FB0001C00B40EA414002BD80B510F127
:10716000010F0FBF4FF0FF30C0034FF47A71B0FB37
:10717000F1F003F0DFFF4FF47A714843C00B02BD1A
:10718000F8B5044603F0D0FB2D4D2B4E0FE072B640
:10719000286810F1010F1CBF401C2860384603F01E
:1071A000C9FF286818B1401E286000D162B6214886
:1071B00000683060306804F035F8074603F0BDFB26
:1071C00038B902F086FE01F075F90028F2D1002CE2
:1071D000DDD1F2BD0120D3E70020D1E780B501F079
:1071E00099F920B91348006803F06EFE00B1012040
:1071F00002BD80B513490A78904202D140F2811055
:1072000002BD087004F03AF8002002BD8E14002080
:1072100030090020EC060020A004010330400E409D
:1072200000F80F008F140020D8060020DC06002094
:10723000176F00000820044074060020876E0000CD
:10724000540800209014002072B6DFF8B8070168D7
:1072500011F1010F1CBF491C016000687047DFF885
:10726000A417086818B1401E086000D162B67047C4
:10727000427A8A184272827A8918817270477047FE
:10728000F8B5044600200D4600900FE0707AFFB27A
:1072900080193A46214600F02BFAB07A3818B072BD
:1072A0003146684600F05CFA3C19ED1BEDB2A5B121
:1072B0004320432DD8BF284600F07EF8060000D1B9
:1072C000BAE0307AC0074CBF00204C20B17A421A95
:1072D000AA4234BF471A2F46D8E70098F2BD2DE9DD
:1072E000F84304460F0008BF4C27FFF7ADFF002509
:1072F000DFF8149727B9D9F80000002848BF012506
:10730000DFF80877DFF808874CB1012C2DD13868F9
:1073100000251A2808DBFFF7A2FF00203CE025BB70
:10732000D8F800001A28F6DA012001F058FD0646C8
:10733000FFF795FF7EB300200021002200230FC637
:10734000103E40F00800B060B1727172316074603C
:10735000B068400845EA4000B060F1604DB1D9F82E
:107360000000401CC9F8000015E0002DDCD003200F
:10737000DBE7012C03D13868401C38600BE02CB9E6
:10738000D8F80000401CC8F8000004E0DFF88406CC
:107390000168491C01603046BDE8F2834C219EE73C
:1073A00010B54C210220FFF79AFF04001CBF0921F1
:1073B000FFF75EFF204610BD10B5442801DB00201A
:1073C00010BD00F109010220FFF789FF04001CBF76
:1073D0000921FFF74DFF204610BDF8B504460020F7
:1073E0000D46009000261EE0607A7872A07AB8728E
:1073F000A068B968400860F34101B960A068B96845
:10740000800860F38201B960607AA17A0A1A0019D3
:1074100000F043F900F06CF9009800B9009706B14C
:10742000376024683E462CB12846FFF7B7FF0700B7
:10743000DAD101E00098F2BD684600F0ABF8002018
:10744000F2BD10B5040024D0FFF7FEFEA06820F0C6
:107450000800A060C00748BFDFF8AC050BD4606827
:10746000012808BFDFF8A40505D000280CBFDFF80D
:10747000A005DFF8A0050168491E01602146207AB9
:10748000C0074CBF0320012001F0BAFCBDE810404A
:10749000E5E610BD70B5DFF87415DFF874354568A2
:1074A0000A681C68012D11D1C5687DB10CE000256A
:1074B0004560521EC56895F83860761C85F83860BE
:1074C0000025C560641C00680028F0D11C600A60BB
:1074D00070BD10B508E0427A837AC9B29C1A8C421A
:1074E00005DAC91A006851180028F4D110BD101827
:1074F0000818103010BD70B504461546207AC00734
:107500004CBF00204C20A37AC61AB54228BFC51A2A
:1075100018192A4600F0ECF8A07A2818A07228461C
:1075200070BD2DE9F0425FEA000918BF00290BD0B9
:107530000C46607AA17ADBB20F1A9F4206DA591A1A
:1075400024684318002CF4D1002021E0A67A011908
:10755000301A5918C51A1031EDB202EB09064F4620
:1075600005E0607AA27A0119151A1031EDB2B7421E
:107570000CD2E81986423CBFF51BEDB22A463846CC
:10758000FEF748FD2468EF19002CEAD1A7EB0900AB
:10759000BDE8F08238B5044603E00568FFF751FF07
:1075A000256020680028F8D131BD00B9704710B5BA
:1075B000016821B900220260084610BD026003681C
:1075C0001A68002AF6D09468C4F34004002CF5D061
:1075D00000241C60EFE770B50446607A884202D34D
:1075E000401A607217E0227AD2074CBF00224C2268
:1075F000A37AD21A82188A420FDB1A1A0D1A0619B8
:10760000A81906F11001103003F040FE002060724E
:10761000A07A2818A072012070BD002070BD38B576
:1076200004460D46FFF7D7FF08B1204632BDFFF7ED
:10763000B5FE68B10460017AC9074CBF00214C2136
:107640008172017AC9074CBF00214C21491B41724C
:1076500032BDF8B504460D46607AA17A0A1A081AB6
:10766000561B8542B6B204DA0020FFF797FE0700EA
:1076700001D10020F2BD607A001900F00DF800F091
:1076800036F8B87A3018B872A07A801BA0722068D9
:10769000386027600120F2BD281800F11001787AC7
:1076A000C019704738B504000D4618BF002D0BD027
:1076B000207AC0074CBF00204C20697AAA7AA37AAE
:1076C000521AC01A904201D2002032BD481900F16E
:1076D0001001181900F00CF8A07AA97A0818697A34
:1076E000401AA0722846FFF7ACFE012032BD324698
:1076F0001030FEF78FBCF8B504460F462668002010
:10770000354605E0B07A717A381A0F183046366877
:10771000FFB267B15EB1B07A717A401A8742F1DA8E
:1077200039463046FFF795FF0028EBD1F2BD08B18E
:107730000021016026602846F2BD016821B10A6877
:1077400002600020086001E00022026008467047E5
:10775000016819B10A680260084672E60160704764
:10776000026812B901607047024610680028FBD118
:10777000116070472DE9F8430400884618BFB8F13E
:10778000000F164600D00EB9002022E0A14600E00E
:107790008146D9F800000028FAD14D4637460EE060
:1077A0003A4641462846FFF7A6FEC0B23F1A4D456D
:1077B0001CBFC9F80050A946FFB28044002537B16C
:1077C0001DB96068FFF7EAFD0546002DE8D1F01B02
:1077D000C0B2BDE8F28338B505680C4615B904603F
:1077E00031BD054628680028FBD1206818B1204625
:1077F00000F052F803E02846FFF754FF00B92C6070
:1078000031BD026802B10A60016070470A0001D10F
:1078100070471A461368002BFBD1036813600160A0
:10782000704738B504460D4604E06D1A01682160C2
:10783000FFF707FEEDB24DB1206838B1427A817A88
:10784000891A89B28D42F0DAA918417231BD70B53A
:1078500004460D46206810B970BD00203060EDB2BE
:10786000CDB12068002816D0002601E00646084663
:1078700001680029FAD1417A827A531A9D4202DACC
:10788000511B817270BDAA1A8D18FFF7DAFD002E08
:10789000E3D10020206070BD70B5044642E0A27ABA
:1078A000617A801A50FA81F5ADB2002D39D069B1F4
:1078B000521A081900F1100104F1100003F0E6FC5F
:1078C000A07A617A401AA07200206072206840B3EA
:1078D0008168C1F3400121BB417A827A521A92B287
:1078E0002E469542C8BF1646081800F11001607A6E
:1078F000A37A00191818FFF7FAFEA07A3018A072C0
:10790000AD1B2068417A71184172ADB22068817A4E
:10791000427A891A03D101682160FFF792FD002D98
:10792000D4D124682CB1207AC0074CBF00204C2051
:10793000B5E770BD70472DE9F94D82B0002402987B
:107940000094002888464AD006460027A246002513
:1079500023E0A8EB0A0B5FFA8BFB57B9029840684B
:107960004146FFF7BCFC070033D039466846FFF7B5
:10797000F7FE707A8019FFF78FFE50445A46FFF7E2
:10798000B7FEB87ADA4458445FFA8AFAB8725D44AE
:10799000C245EDB204BF0027A246707AB17A0A1A36
:1079A00095420FDA521B13464245C8BF4346A8EB27
:1079B0000A0C6345CDDA4245AEBFC346081AA0EBB8
:1079C000050BC8E73668002EC1D1009C002000904E
:1079D00004E0009810B16846FFF7DCFD204604B0D3
:1079E000BDE8F08D09480A490068096840EA0120AD
:1079F0000849096840EA01400349096840EA016012
:107A00007047000054080020FC060020F00600200B
:107A1000F4060020F806002001B40E4800E008300B
:107A2000416899B101789DF8002001F0F80102F059
:107A3000F802914202BF81789DF80220914202BF74
:107A4000C1789DF803209142E9D100E0002001B007
:107A500070470000984F0000704738B5C01C84087C
:107A6000A00003F04FFC050001D1002032BDA100B1
:107A700003F0A0FC284632BD38B50446FFF7EDFF01
:107A800005001CBF214603F095FC284632BD03F0DB
:107A900095BC002862F30F2262F31F4200B500BFBD
:107AA000130096469446103928BFA0E80C50FAD827
:107AB0005FEA417C28BF0CC048BF40F8042BC907CF
:107AC00028BF20F8022B48BF00F8012B00BD022878
:107AD00080B500F00CF82749274A0968C1F308214E
:107AE000491CB0FBF1F0106002BD244870472448E7
:107AF000016801F00701022909D00AD3042901D045
:107B000002D306E01F4905E04FF4004103E01E499F
:107B100000E01E490968C06EC0F30420401CB1FBA0
:107B2000F0F070471848006870471749086014481B
:107B3000006800F00700022808BFFFF7C9BF7047C0
:107B40001348016841F47001016070474FF4004030
:107B500070474FF47A7070470A48006870470949C7
:107B600008600748006800F00700042808BFFFF716
:107B7000AFBF704708410E40E806002000F0490200
:107B800094400E4004010020000100200801002064
:107B900088ED00E0890001EB401000F184400260B4
:107BA0007047890001EB401000F184400068704785
:107BB00010B5DFF8E807016845F60E020260002301
:107BC000DFF8DC271268D40748BF0123D40648BF7A
:107BD00043F01003540648BF43F04003540748BF26
:107BE00043F00403D205DFF8BC2748BF43F4807399
:107BF000D363DFF8B4371B7803F00703022B10D0F0
:107C00001ED3042B08D01BD213689B0018D4D36E4C
:107C10001B06FCD5032312E0D36E9B05FCD5042381
:107C20000DE0D36E1B07FCD5136813F0300F05D1A0
:107C3000D36E03F44003B3F5400FF9D1022313656B
:107C4000C90744BF0021016010BDDFF86017DFF8ED
:107C5000602738B110680860106820F47F4040F455
:107C6000EE4000E008681060DFE0DFF848070168D8
:107C700001290BD1DFF840170A6802F00302012A3C
:107C800002D1CA6BD203FCD502210160704738B51E
:107C90000446DFF82807DFF808270168DFF80857EF
:107CA00011604068288000F047F8FFF7DEFF30BF22
:107CB0000020FFF7CAFF002C1CBFBDE83140FFF7D2
:107CC00077BF287800F0070001281CBFBDE83140CD
:107CD000FFF7FEBE31BD38B50446DFF8E406DFF835
:107CE000C026016BDFF8C056116045F60E03416BEC
:107CF0002980DFF8A8160A680B604FF42073036030
:107D0000D00744BF0020086000F016F8FFF7ADFF71
:107D100030BF0020FFF799FF002C1CBFBDE83140A9
:107D2000FFF746BF287800F0070001281CBFBDE818
:107D30003140FFF7CDBE31BDDFF88806016841F064
:107D400004010160012080E7F8B5DFF87C46206976
:107D500020F4403040F4003520694AF6E85740F4FA
:107D6000403627602069C00708D4A06B00F00300EC
:107D7000012812BF0228002000F095F82069C007F2
:107D800006D5DFF848060760816841F08001816010
:107D90000120FFF75AFFFFF768FF04202561401E0E
:107DA0002661FBD12561F1BD80B5012201E080B5DE
:107DB00000220021DFF81806FFF7ECFEBDE80140C5
:107DC000C2E7DFF8101608607047DFF8F005DFF84B
:107DD000D025016811604068DFF8CC150880704735
:107DE0000078DFF8F4150028086812BF40F00100A1
:107DF0004008400008607047DFF8D4150A6803782F
:107E0000920992010BB142F0040243780BB142F0A7
:107E1000020283780BB142F0080243680BB142F0D2
:107E200001028068104308607047DFF8B025DFF872
:107E300080050168128802F12803C1F3032103EBD6
:107E4000D373491C02EB6302283201EB8103B2FBBE
:107E5000F3F2521E072A34BF12064FF0E0620368A5
:107E600023F0EE631A4342F480120260DFF87025BB
:107E7000B2F90020002A15D492B202F1280303EBD4
:107E8000D37302EB63024B08283203EB4101B2FBD0
:107E9000F1F1072934BF09017021426822F0700214
:107EA00011434160704710B50446DFF83805416A58
:107EB000C907FCD4220018BF01220D21FFF76AFE7A
:107EC000DFF8F4040168890844EA8101016010BD0B
:107ED00070B5044682B02068DFF80C1508600968A8
:107EE00001F00F01814240F08980DFF80005006851
:107EF00010F1010F13D0DFF8F80441680268116037
:107F0000C16882681160416902691160C169826952
:107F10001160416A026A1160C16A806A0160A089C9
:107F20004B28B8BF00200DDBB0F5FA7FB8BF4FF08B
:107F3000805007DB40F6C4118842B4BF4FF00050B8
:107F40004FF04050DFF8AC54DFF8AC342969B4F995
:107F500014201940D243084340EAD2702861286BAC
:107F600040F080702863042000F053F9686A20F024
:107F7000C0406862286940F006002861DFF87C0490
:107F80000068C0F30746684603F058FAA6F11000EF
:107F90000C2803D3512E18BF532E19D19DF8010080
:107FA000012815D19DF80000032811DADFF8040438
:107FB000016869B9A968DFF8482441F00101A960A6
:107FC000696A1140DFF83C241143696201210160B4
:107FD000B4F91400E189DFF804241180DFF80014FB
:107FE00008806089DFF820140880608900F0DEF8DE
:107FF00020890122012100F00FF808B9002076BD88
:10800000226902B1012205212846FFF7C3FD6068FD
:10801000FFF749FF012076BD2DE9F74FDFF8C803D0
:10802000016801F00F0100260229B44640F0AF803C
:108030000099A1F5E161B1F5966FF7D80021DFF85D
:10804000CC2300E041B99DF80430002B09D051B990
:1080500000F12C03012409E0012904BF9DF8083038
:10806000002B00F09B8000F124030824009DB5F54F
:10807000E16F0ED94FF0010E4FF4E16840F6B839C8
:1080800059B315684FF0020A4FEA156CC5F307465D
:108090006DE04FF0000E4FF496684FF4E169F24640
:1080A000E9B9456905F0405555EA0A0722D07F1E17
:1080B00011D06FF0704BB7EB0B071DD07F1E13D0A4
:1080C000B7EB0B071AD07F1E10D0B7EB0B071AD0F7
:1080D0007F1E0DD01CE0D66811E0F246E1E715687E
:1080E000C5F3072CEEB242E0D6680DE0166906E053
:1080F000166909E0566802E0566805E09668C6F31E
:10810000072CF6B204E096684FEA166CC6F30746F1
:10811000BF4F3F68FFB2042F08DA5569BEF1000F68
:108120000CBF5FFA85FEC5F3072E13E0D2F818E006
:108130002D0F0DD0022D05D007D3032D27D14FEAE7
:108140001E6E07E0CEF3074E04E0CEF3072E01E0EB
:108150005FFA8EFE4FEA0E3E3EF4704517D1456B36
:1081600025F470454EEA0505C84545630FD2009DCC
:10817000A5EB080EACEB060505FB0EFEA9EB080807
:10818000BEFBF8F8B044C44528BFB04501D200207A
:108190000AE008FA04F44AEA04041C60491CC9B263
:1081A0000229FFF64FAF0120BDE8FE8F10B58049D0
:1081B0004B6A0C68E4074FF0FF3203F0070312D557
:1081C000022B10D3142815D3143814281FD30F22D0
:1081D000086820F47F4040EA022040EA023008604C
:1081E000BDE8104021E60C68E40709D4022B07D251
:1081F0000A2801D20322EBE70A380A2807D3E6E768
:108200000C68E407E4D5022BE2D22828DFD207224B
:10821000DEE738B50446664D00212846FFF7C1FC6D
:10822000686AC00844EAC0006862BDE83240764827
:108230000088BBE76C480F210160016CC907FCD4C2
:108240000321816001680F2903BF80680328012092
:1082500000207047A0F59660C82202FB110014218F
:10826000B0FBF1F07047B0B500F064F80302276886
:10827000684943EA05322FB1022F19D014D3032FD6
:108280001AD0B0BD227A02B10422677A07B108275A
:10829000000440EA055040EA053018431043A27A32
:1082A000384310430860B0BD00F016F84860B0BD18
:1082B00000F012F88860B0BDE07A00B11020237A97
:1082C00003B10423657A05B1082510431843A27A47
:1082D00028431043C860B0BD207A00B10420637AFF
:1082E00003B108231043A27A184310437047F8B52E
:1082F00000F020F80646A068A0F59661C82291FB20
:10830000F2F73946FFF7A6FF216891B9217B01B149
:108310000421627B02B10822330443EA055343EA95
:10832000073343EA00200843A17B1043084339493F
:108330000860F1BD0446C8226068A0F5966191FB13
:10834000F2F5294686E7334B28B1022809D006D337
:10835000032808D070470A46002118461AE41B1D5E
:10836000F9E70833F7E70C33F5E780B528B10228C1
:1083700007D004D3032806D007E0012106E002213C
:1083800004E0032102E0042100E000212248FFF77D
:1083900008FC00B10120C0B202BD000080410E40C7
:1083A0000407002024400E407C1400200807002011
:1083B0004C300E400007002040300E4090400E40F0
:1083C00060400E4010ED00E008300E4090310E404D
:1083D00018300E400C300E4000300E407E1400204D
:1083E0008214002054300E4038300E401C83E00FC1
:1083F0003880E00F3C300E40FEFFFFCFFC81E00FE5
:10840000000F0EF0B4C0400B801400201883E00F62
:108410000082E00F90300E4004300E40890001EBE6
:10842000401000F10850026070470122F6E73C4816
:108430000021002206C028213A48FDF7E1BE384954
:108440004868C04390FAA0F0B0FA80F0C0B20528A6
:1084500002DB4FF0FF3070474A68012383401A4324
:108460004A6040B2704770B504460D46FFF7E7FF1B
:1084700006462C482A46214600EBC60002F0C8FDFD
:10848000304670BD10B5052809D200F009F852E851
:10849000003F0B4342E80034002CF8D105E010BD4A
:1084A000204A02EBC002121D7047BDE81040C1B265
:1084B0001B48BAE7F8B51B4C1B4D194E00E028705D
:1084C000306830B32F780121B94008421AD0002219
:1084D00039463046FFF7A2FF04EBC700001D00221B
:1084E00050E8001F40E80023002BF9D1080000915C
:1084F00008D028780D496A4604EBC00002F0CFFD91
:108500000120F2BD28787168884234BF401C0020E9
:10851000D5E7F2BD0248006800B1012070470000B5
:10852000E8080020F0080020921400207856341249
:1085300010B5044602F0A1FF0021201D02F0A2FFA9
:10854000012104F1080002F09DFF221D00F028FA2D
:108550000146204602F096FF002010BD4105490D5E
:108560000831B1F5006F04D280884FF6FF71884260
:1085700001D1012070470020704710B502F078FF4C
:10858000DFF82844206800F00AFA21680968884268
:108590001CBF2068FFF7CCFF606800F000FA61683C
:1085A000096888421CBF6068FFF7C2FF2068406806
:1085B0006168496888428041DFF8F413C00F087091
:1085C00010BD2DE9FC4104464FF6FF75AC4214BFC7
:1085D000002840F212200E462AD000F0D7F850F8BA
:1085E000218008F10C073846FFF7B8FFF8B9B888C2
:1085F000304006EA040188420ED1D7E90001CDE9F6
:108600000001ADF80650BDF804006840ADF8040064
:10861000381D019902F036FFB87900F005F907EB33
:10862000800000F10807F80A00F004F8DBD0002011
:10863000BDE8F68108F10C01C002C90AB0EBC12FF8
:1086400070472DE9F84D0EB480464FF6FF70804517
:1086500014BFB8F1000F40F212200D4616461F4617
:1086600023D000F093F850F8210000F10C044FF0F3
:10867000000B00F10C0A2046FFF770FF002832D1F2
:10868000A079011D221D00F08CF92168884204BFE9
:10869000A08840451CD1A079864207D10298324675
:1086A00004F1080102F0F4FE002866D0D4E90001CC
:1086B000CDE90001BDF804004FF6FF714840ADF868
:1086C0000610ADF80400201D019902F0DBFE834680
:1086D00000F0E8F800F054F808BFBBF1000FCAD072
:1086E000BBF1000F48D1002E46D054FA86F0083076
:1086F000C00A00F045F80ED000F0FBF80446600513
:10870000400D05D050FA86F00830B0F5006F02D960
:1087100040F2015031E046EA0520ADF80480ADF8A2
:108720000600251D0199A046284602F0ABFE2C1D2F
:1087300000250FE03878797840EA0120B97840EADE
:108740000140F97840EA0161204602F09BFE3F1D9E
:10875000241D6D1C30B9F01C411000EB9170B5EB7D
:10876000A00FE7DB08F10402311D00F01AF9014601
:10877000404602F087FE8346584604B0BDE8F08DBF
:10878000C0024FEADA21B0EBC12F70478849874811
:1087900091F9001070472DE9F0470C46844991F992
:1087A00000100746814850F821A0154699460AF165
:1087B0000C0846463046FFF7D1FEE0B9B079011DFE
:1087C000321D00F0EEF83168814218BF7F1CF0883E
:1087D000FF2190FBF1F1C1EB0121401A00F024F8D8
:1087E00008EB800000F108084FEAD8200AF10C01DC
:1087F000FFF722FF02D040F2025012E03846471E37
:10880000C0B20028D5D1B088208015B1F088000A08
:108810002870F08889F8000006F1080008990860BF
:108820000020BDE8F087A879C01C411000EB9170D2
:10883000801070472DE9F8430D465D4991F900100D
:1088400081465A4850F8218016461F4608F10C040C
:108850002046FFF783FEE0B9A079011D221D00F03C
:10886000A0F82168884204BFA08848450CD184B193
:1088700015B1E088000A2870E088307004F1080023
:1088800038600020BDE8F28300F00CF8FFF7D2FE5C
:10889000DED00DB10020287000203070386040F22A
:1088A0000250EFE7A079C01C411000EB91708010DE
:1088B00004EB800000F10804E00A70471CB5144680
:1088C0006B4601AAFFF7B6FF10B99DF8040010B976
:1088D00040F2025016BD0098007820809DF80410E8
:1088E000022904DB0099497840EA01202080002019
:1088F00016BD2DE9F0472E4C2C4994F9000051F893
:10890000209080F0010051F82070384602F0B5FD4B
:1089100009F10C0A07F10C0805E0FFF784FF0AEBE8
:10892000800000F1080A4FEADA2009F10C01FFF794
:1089300083FE1BD155462846FFF710FEB0B9A87933
:10894000011D2A1D00F02DF829688842E5D1002676
:10895000FFF769FF801C8642E5DA5AF8041B40469F
:1089600002F090FD08F10408761CF1E7D9F8040044
:10897000411C381D02F086FD012107F1080002F0BC
:1089800081FD3A1D00F00CF80146384602F07AFDF0
:10899000207880F0010020704046BDE8F087021D7D
:1089A00008214FF0FF3002F0A5BD0000600100205B
:1089B0006801002010B5044610460A4601462046CC
:1089C00002F0B0FD204610BD02F0E1BD02F0F8BD9E
:1089D00080B502F0F9FE00281CBFBDE8024003F09C
:1089E00073B8C2E038B500F047F8050000D17AE06E
:1089F000204603F0BBFD10B94FF4C07032BD2146D4
:108A000028462269BDE83840D2B203F0E8B810B574
:108A100000F032F800B90EE02146BDE8104003F046
:108A200004B910B500F028F800B904E02146BDE80B
:108A3000104003F084B940F2011010BD70B500F091
:108A40004EF8060000D125E0284603F08FFD00B95E
:108A500037E02A46214630462B69BDE87040DBB23C
:108A600003F003BA10B500F007F800B9E3E72146B8
:108A7000BDE8104003F017BA0C4602F0A5BE70B571
:108A800000F05BF800B905E000F053F8BDE8704075
:108A900003F092BA40F2011070BD70B500F01FF8FB
:108AA000060000D1F6E7284603F060FD00B908E0B3
:108AB0002A46214630462B69BDE87040DBB203F000
:108AC0009DBA4FF4C07070BD38B500F008F800B919
:108AD00009E02A462146BDE8384003F0ADBA0C460D
:108AE000154602F071BE40F2011032BD70B500F0C3
:108AF00024F800B9CEE700F01CF8BDE8704003F0A0
:108B0000B1BA70B500F019F800B9C3E700F011F878
:108B1000BDE8704003F0BCBA70B582B000F00DF84B
:108B200000B9C7E00699009100F003F803F0BEFA1F
:108B300076BD33462A46214670470C4615461E46EA
:108B400002F042BE10B5FFF797FF00B973E7214668
:108B5000BDE8104003F0C1BA80B502F035FE002830
:108B60001CBFBDE8024003F0EFBC40F2011002BDA3
:108B700010B5FFF781FF00B95DE72146BDE8104061
:108B800003F032BB70B5FFF7D8FF00B982E7FFF7FB
:108B9000D0FFBDE8704003F039BB38B5FFF79FFF49
:108BA00000B9A0E72A462146BDE8384003F0A5BA3F
:108BB0007CB50E4615461C46014601AB6A460020B0
:108BC00003F05CFF0146019828B100202080019845
:108BD00000F5806076BDBDF80000B04204D20020F0
:108BE000208040F2074076BD801BADF80000711870
:108BF0002088BDF80020904238BFADF80000BDF8D5
:108C0000000018B102462846FDF704FABDF800003E
:108C10002080002076BD38B50C46154604F051F88A
:108C20004FF6FF71884204D10020288040F20140B5
:108C300032BD01044CBF102102212980214603F0DE
:108C4000CBFC002032BD2DE9F04104460D46904694
:108C50001F460020FEF7A2FB060008BF4FF4C170BC
:108C600019D0307AC0074CBF00204C203A469042C1
:108C700038BF4FF4C0700ED3B7724146707A801976
:108C80001030FDF7C7F9FFF754FF002003F032FF63
:108C900008B100F58060BDE8F08170B582B0FFF7E3
:108CA0004CFF00B906E0069B00953246214604F0D1
:108CB000DEFC76BD40F2011076BD38B5FFF70FFF40
:108CC00000B910E72A462146BDE8384004F0ECBC64
:108CD000F8B50024FF280D4616461F4606D002F0C0
:108CE00073FD040002D140F20110F2BD3B46324652
:108CF0002946204601B0BDE8F04004F07DBC70B5C7
:108D00000C4615461E4678B10146204603F035FC58
:108D100002464FF6FF70824206D005B90125014692
:108D2000284603F092FF10B940F20A4070BD002EB1
:108D30000EBF40F201403080002070BD103032285C
:108D400004D20C4A41F0010142F82010704710B5DE
:108D50000948084B0168002253F822401CB951F819
:108D6000224043F82240521C322AF5D343F00051EE
:108D7000016010BD0002002008ED00E070B514464F
:108D8000C91C4FF6FC721140C91C02EA01052849B2
:108D900001EB00160020274935807480F06004FB49
:108DA00005F009688847706015FB04F1318189B2CC
:108DB000706802F0FFFA002006E07168F26800FBBC
:108DC0000511401C0A60F160A042F6DB748070BDA2
:108DD000184A1160506001011548FDF711BA144995
:108DE00001EB0011C86820B10268CA604A88521EAF
:108DF0004A8070470E4901EB00104088C0B27047AE
:108E00000B4A02EB0010C2680A60C1604188491C2D
:108E10004180704700010649425A2AB14218405A1F
:108E2000128992FBF0F070470020704700000000AC
:108E3000780600202809002072B6DFF8480D016886
:108E400011F1010F1CBF491C016000687047DFF879
:108E5000341D086818B1401E086000D162B6704722
:108E6000890001EB401000F10850026070470122B8
:108E7000F6E70022F4E750E8002F0A4340E8002319
:108E8000002BF8D1704750E8002F8A4340E80023B8
:108E9000002BF8D1704790FBF1F201FB1200002883
:108EA00048BF08187047002814BF01F1800001F185
:108EB000A4007047C8307047006A70472030DAE776
:108EC0002030E0E790F965007047012904D017D3FE
:108ED000032906D00DD313E0818C828E008E1201FF
:108EE00003E0818C008E4FF47A4292FBF0F0401840
:108EF00004E0818C408E01EB4000C01D80B27047C1
:108F0000808C704770B504460D46164600F01BFE77
:108F100040F27121636801FB06F201FB053194F810
:108F20002030A1EB10211B07616006D5E16E4000E7
:108F300000EB02204018E06670BD01EB520060605B
:108F400070BD416F00291EBF8968C1F380010029EF
:108F500008D1806F00E0006828B18168C1F380010A
:108F60000029F8D00120704780F86410704710B5D0
:108F7000044600F064FA204600F016F8BDE8104000
:108F8000012101FA00F001F03FBDDFF8101C0A7F5B
:108F9000904207D24968F82202FB001090F8201096
:108FA000C90600D400207047DFF8F01B4A68801A19
:108FB000F82290FBF2F0002802D4097F884201DBFE
:108FC0004FF0FF3070472DE9F043804608F120054F
:108FD00085B02868DFF8C47B410208F15C0629D51A
:108FE0008108C00800F0010901F0010400F0BAF89E
:108FF0000021049108F15E03317803912246A98A89
:10900000029180B2698A0191298A490800914946F2
:1090100004F0BBFF00281AD04FF4800100F0A0F844
:109020003878C00706D50020FEF7B8F9014640465B
:1090300005F0DFFC2868C0010ED500F093F8298AFE
:10904000AB8A6A8A490880B204F080FF00287AD08F
:109050004FF0807100F084F82868800108D5404600
:1090600005F06BFF00286ED04FF0007100F078F82B
:10907000286840010BD500F075F8002180B204F09B
:10908000DAFF00285FD04FF0806100F069F82868AF
:10909000C0001CD500F066F8317B002280B204F0DD
:1090A000AAFF00284FD04FF0805100F059F8787F88
:1090B0001C280CDB0521404600F006FE38B10020DC
:1090C000FEF76CF918B10146404605F0F0FC28683F
:1090D000800016D5F07AC00000F17007B07AC000A9
:1090E00000F1700400F03EF8BFB20097F37AB17A55
:1090F000A2B280B204F0B5FF28B34FF0005100F0E7
:109100002FF8286800010AD500F02CF8317A80B2D7
:1091100004F091FFB8B14FF0006100F021F8286829
:10912000400006D54FF0804100F01AF8404605F0A7
:10913000D3FF286800020FD500F014F8317A80B20E
:1091400005F003F808B9002007E04FF4000100F033
:1091500007F8404600F0F2F9012005B0BDE8F083C1
:10916000284690E640461FE710B50C4658B1801ED1
:1091700015D0401E22D0401E1AD0401E14D0401ED2
:10918000052819D910BD204600F05EF9204600F0F0
:1091900002FB6168BDE81040012006F084B906F0CA
:1091A000A9FAA0420CD139E02046BDE810400AE1FE
:1091B000204600F026F935E0012100E0002137E0EB
:1091C00010BD10B50C4658B1801E15D0401E22D0DF
:1091D000401E1AD0401E14D0401E052819D910BDBB
:1091E000204600F031F96168E06EBDE8104001EB07
:1091F0001022012006F0F5B806F07CFAA0420CD14E
:109200000CE0204600F0DFF80CE02046BDE81040FE
:10921000F7E0012100E000210AE010BDBDE81040A8
:1092200006F037B8BDE810400521DFF8740920E6E4
:109230002046BDE8104058E0DFF860190A7E52066B
:1092400009D590F82020120705D54969891E41608B
:109250004FF40061C166704770B50446002594F86C
:10926000200000070DD5206FE18C4843E16E4200DD
:10927000050A02F580725118080A00F54870E16687
:10928000E06040F27126208E401E70432061012173
:10929000204606F094F9218EE28C6068514306FB6B
:1092A0000100401B6060204606F06DF9BDE870408B
:1092B00006F0ECB900F118018A8B0B8B120392FBBC
:1092C000F3F2222392FBF3F2B0F86A30406F10B150
:1092D00003EBD3704308180290FBF2F0C0F140009A
:1092E0001E28B8BF1E20087070472DE9F8430C00F7
:1092F000804604D005F0CDFF4046FFF79DFF08F102
:1093000020054046A988DFF8947805F018F88146D2
:1093100008F15B063CB1387E800704D500F056F9B1
:10932000A8F86A000AE0B8F86A0038B92868C005E9
:109330004CBF08203E2070724FF000094046FFF7F6
:10934000B9FFB9F1000F0CD14FF400014046FFF70F
:109350000EFE0121404606F032F9BDE8F14306F069
:1093600095B9CCB12868010716D5698AA1B110F466
:10937000C02F11D1387E80070ED5D8F8780058B9A3
:10938000A988404605F03FFE698A012802DB4A1C95
:10939000904202DB481C00E00120E880A988E888B0
:1093A0004118A980B8F86A10091AA8F86A1025218E
:1093B0003378B27858438018FFF76DFDB07040469F
:1093C000BDE8F24348E738B5044605F029FF40B14F
:1093D0000146204600F02AFA0121204600F0B2FAA8
:1093E00018B12046BDE834402CE000F022F8451EBC
:1093F000AD41204600F0CFF9E80FBDE8324006F05D
:109400006CB810B504464FF4803100F018F8002114
:10941000204600F097FA18B12046BDE8104011E050
:1094200000F007F8401EBDE810408041C00F06F074
:1094300001B8DFF86807806900F48070704704F1B4
:10944000200018E5012150E7DFF850272021916125
:1094500000F1280190F85D300A684968181890F802
:10946000360005F07DBF70B50446F82514FB05F104
:109470000023012289B20520FFF780FCDFF81C677A
:1094800034770520FFF7ABFC706005FB04F1FCF7B7
:10949000B7FE002003E05318F8335350401C631EFE
:1094A0007168984205FB00F2F5DB002050507068AF
:1094B000B06070BD10B5DFF8E446E068B0B90220D6
:1094C000FDF76CFFE06002218172E068427A817AE8
:1094D0001018891A103001F06DFFE068417A081801
:1094E000012130F8102F61F30102028004F1100015
:1094F000FEF750F81B2060770020206010BD10B5EB
:10950000FFF79AFCDFF8940684680CB1216881604B
:10951000FFF79DFC0CB9002010BDF8212046FCF798
:109520006FFE04F165001B21417081707F21017085
:109530000320606100202062204610BD10B5044663
:1095400005F0B2FD04F17800FEF724F804F17C0088
:10955000FEF720F8606F18B1FDF773FF0020606719
:10956000FFF76AFCDFF83406816821608460FFF74A
:109570006EFC0020206210BD70B5044604F1200589
:109580004800298A002680B281421CBF2882012619
:10959000688A90421CBF6A820126A88A98421CBF32
:1095A000AB8201262878000705D5298A204600F0DD
:1095B000CAFA20674EB100F009F8A4F86A004FF02B
:1095C00080712046BDE87040D1E470BDA88A298A28
:1095D000000190FBF1F0704730B500210022012519
:1095E000931002EB5373DB101C5CA2EBC30305FA70
:1095F00003F31C4204D0491C022901D1012030BDD3
:10960000521C252AECDB002030BDF0B58AB00022C8
:109610000025AC1005EB5474E610012400F021F88D
:109620001CBF02F80D50521C6D1C252DF1DB0025CE
:10963000AE1005EB5676F61000F013F803D02E1896
:1096400086F8365008E095FBF2F602FB16562F1806
:1096500016F80D6087F836606D1C252DE8DB0AB022
:10966000F0BD775CA5EBC60604FA06F637427047F4
:109670002DE9F0471E4682460AF1040730687862F9
:109680000D46144606F110015046FFF7BEFF0322B7
:10969000311D0AF12C00FCF7BDFC089906220AF1E5
:1096A0005E00FCF7B7FC099810B1042100F06FF8D8
:1096B000102100F06CF84FF480015046FFF757FC82
:1096C000717D0AF15B0001F01F01017040F2712809
:1096D00071894900B98540F2E249B189F985F1897A
:1096E0003986717D490941700021398401217984CD
:1096F000717D01F01F0181700520AAF86A005046B3
:10970000FFF7D8FD4620786030894000811C08FBB7
:10971000014038605DB1DFF88C14B961F17919FB53
:1097200001F100EB510038604FF4487024E05046DE
:1097300000F009FA00F500753868A0EB15203860D4
:109740000821DFF86404B8610AF16C0400F01FF826
:109750004FF4003100F01BF8F07919FB00F06900BC
:1097600001EB002020605046B98D00F0ECF96060FC
:109770002068000A00F54870B8607089401E08FB38
:1097800000F0F8605046BDE8F04705F0FCBE0AF175
:109790002000FFF770BBF8B50646706F38B9306A25
:1097A000C00304D406F17800FDF7C7FF7067756F3A
:1097B000DFF8E84305B9E568402106F12000FFF72E
:1097C00062FBB06F00B10120316A01F0010249086B
:1097D00001F00103697A4919103102B104220E889F
:1097E0004FF6FB773E4032430A8003B108234FF621
:1097F000F77632401A430A80002814BF1023002352
:109800004FF6EF7632401A430A8028B1032104F163
:109810001800FFF72CFB04E0032104F11800FFF708
:1098200028FB2846BDE8F24005F014BEF8B50D4609
:109830000446687AD94E401900F11007307E400680
:1098400005D43868001F7061062100F077F8B06910
:10985000397931B9C0064CBF0721042100F06EF8F8
:1098600050E020F01000B0610321787984F86500A1
:1098700017F80A0F084245D0012100F05FF84FF4B5
:109880008071FFF7DCFD3888C0F3001018B10221A9
:1098900000F054F804E0022106F11800FFF7E9FA9D
:1098A000216A3888490801F00101C0F3800081F085
:1098B0000101884215D14FF4003104F12000FFF777
:1098C000E2FA4FF4803104F12000FFF7DCFA606F18
:1098D00018B1FDF7B6FD00206067206A80F0020035
:1098E0002062206A3988C1F3C00100F00102914270
:1098F00008D180F001002062687A401930F81A1F00
:10990000080A04D12846BDE8F240FDF79ABD01F0EF
:109910000300032806D14021FFF791FD4FF40031E9
:10992000FFF78DFDEC60294606F11000FDF718FFEA
:10993000BDE8F2404FF0005001F066B806F11800A3
:10994000FFF795BA70B5954D82B00646A8690C46EA
:1099500081061AD410F4C07F1BD194490A68009282
:1099600005F0EDFD3DF81410884212DB287E10F062
:109970001C0F0AD1306AC00800F00100204206D056
:10998000082105F11800FFF772FA002076BD204388
:1099900000D0012076BD2DE9F04782B0FFF74CFAE8
:1099A0007E480169009100210161FFF750FA07E04C
:1099B000A06840F00400A0602146284604F0E3FCC3
:1099C0000098002853D06846FDF7B7FE0446607A39
:1099D000E56801190C3001F1100707F10A0631782A
:1099E000607201F00308286A000405D5424621464A
:1099F000284605F06FFF28B1B8F1030FD8D0286AC8
:109A0000C00407D52046FDF71CFD3D21284605F082
:109A100093F9D5E7A06820F00400A06097F905004D
:109A200097F80680A17A5FFA80F9307800F0030693
:109A3000607A0F1A801F6072FFB2C0B2001900F185
:109A4000100A2846FFF7B0FA4CF6FF71084040EACA
:109A500006308004800CAAF80200AAF804708AF884
:109A600000908AF80180204604F03CFCA8E7BDE89D
:109A7000F387F8B50D460446A868C0F3800171B1BC
:109A8000687A216A401903261030090518D5007834
:109A90001F2807DA4649C140C80711D402E0216AED
:109AA000090507D5FFF7C8F9294604F17C00FDF741
:109AB00057FE44E0C0F34000002814BF02260126F0
:109AC000206A400404D532462946204605F0D6FED9
:109AD000A87A697A471A02212846FDF7A0FD687A1C
:109AE000401906F0030210F8101F01F0FC011143A9
:109AF000FFB241EA07214FF61F7211400180FFF7C4
:109B00009BF9294604F17800FDF72AFE94F820001D
:109B1000000706D5E08C022811DB204600F086F80D
:109B20000DE005F003FC61680D1A05F0E3FDA042AD
:109B300005D1B5F57A7FC4BF2046FFF72CFEBDE8FE
:109B4000F140FFF784B938B504460D4605F0E5FC51
:109B5000184994F85C3051F8200051F8231040F275
:109B600071226A43521C081801B0A0FB0201BDE833
:109B70003040090241EA106100020F4A002305F05B
:109B8000DDBE000054080020044A1C28507703DB87
:109B900001211046FFF76FB970470000BC09002093
:109BA000D409002069910000C391000060560000B4
:109BB0007C2C02006456000040420F0090F86600C2
:109BC000704710B500F166031C788C4204BF5C78C6
:109BD000944207D05A7019704FF00051BDE8104000
:109BE000FFF7C5B910BD38B504460D46206A00031D
:109BF0000DD44FF400212046FFF760F984F8685037
:109C00002046BDE834404FF08051FFF7B0B931BD78
:109C1000C90744BF4FF48021FFF750B97047C90707
:109C200044BF4FF48021FFF74BB970472DE9F04155
:109C30000446FFF701F905F079FB251D2968081A8C
:109C4000B0F5FA7028D4A98D40F2712808FB01F113
:109C5000B0FBF1F7288CBFB2C01B288404F15B066F
:109C6000B0783278252107FB1200FFF714F9B070A5
:109C70000021B4F86A00C01BA4F86A00204605F071
:109C80009EFCA98D2868794308FB110028602046B6
:109C900005F079FC05F0FAFCBDE8F041FFF7D7B814
:109CA0000020704710B504464FF4C051FFF708F983
:109CB00003E001462046FFF7DCFE04F17C00FDF7DF
:109CC0003CFD0028F5D110BD026A120308D590F8BA
:109CD0006800012202FA01F1084002D00120704719
:109CE00001207047002105E0827A5118427A00680D
:109CF000891AC9B20028F7D10846704780B500F02C
:109D0000E8F8012002BDDFF8C00490F9000001214D
:109D1000FEF7B8BB2DE9F04385B080460D4691466D
:109D20001F46DFF8A8048DF800800195ADF8089073
:109D300003970668DFF8984406E06A46DFF8941453
:109D4000304605F073FE366896B196F83C0000F098
:109D50000A000A28F7D1D6F804C0BCF1000FECD0F5
:109D60003B464A4629464046E04720680028EAD05C
:109D700005B0BDE8F083416A00291CBF2430FDF71F
:109D800009BC704738B50446E069002837D000F0B8
:109D900014F9A0B30020FDF703FB009078B3807A9C
:109DA0000099DFF8345443308872002004E0009BAF
:109DB000C91841180A74401C0099009A497A927A8D
:109DC000521A90420AD218B9009B5E22C918F1E7D4
:109DD000521E90420CBF21222A78E8E769462046AD
:109DE00000F00AF9009810B16846FDF7D3FB287817
:109DF000401C2870C0B23A28A4BF3020287031BD62
:109E0000DFF8D80300784FF48071401CC0B2FF28FF
:109E100004BF401CC0B2DFF8B42303E092F83E3028
:109E2000834203D01268002AF8D17047491EECD152
:109E3000FF20704738B5FFF7E3FFFF2801D100206E
:109E400032BD4420FDF709FE040009D0442101F091
:109E5000B1FA04F13E05FFF7D3FF287001206870C6
:109E6000204632BD80B50021DFF87403FEF7FBFA0F
:109E7000DFF85413087000F01DF9FFF7DBFFC0B1E5
:109E8000011D00220A604A600623DFF858238A6019
:109E9000DFF85423CA6000F13C0213701023CB6238
:109EA0001F23937000230B620121D170BDE8024093
:109EB00000E001BDDFF814130A680260086010F8C2
:109EC0003C1F41F0010101708078DFF81013087029
:109ED000704710B5DFF8F40204682DE0204600F06A
:109EE00087F994F83C00C00744BF2046FCF7DBF834
:109EF00094F83C0000F0FE00810784F83C001AD57D
:109F000040070BD5216908001CBF20468847606ABE
:109F100020B1E16808001CBF2046884794F83C0047
:109F2000000708D5A068010005D0804718B1014698
:109F30002046FCF7D5F82468002CCFD1002010BDB6
:109F400038B50446251D0020E861A86184F83C006E
:109F500068602860A860686A28B104F12800FDF7ED
:109F600019FB00206862286A28B104F12400FDF77B
:109F700011FB00202862954809E08169A14204BFD5
:109F800000218161C169A14204BF0021C161006853
:109F90000028F2D131BD10B50446FFF7D1FF8B4840
:109FA00000E00846016819B1A142FAD121680160B8
:109FB0002046BDE81040FDF76ABD08B90120704792
:109FC00000F13C010A7802F00603062B11D150F88B
:109FD0000C3F73B1C97801B901218069002201E009
:109FE0000068521C0028FBD1D2B28A428041C00FC7
:109FF000704702F0020070472DE9F04704460D4615
:10A00000E66906B396F83C10301D01F006010629FA
:10A0100010D1816871B12868FFF764FEA16B51FA15
:10A0200080F0A06306F124002968FDF799FB00F099
:10A0300096F80FE00068010005D0FCF731F802E067
:10A040003046FDF7FEF92846FDF777FB060003D101
:10A0500000F030F800202BE0707AB17ADFF87091D0
:10A0600000F077F809E0A06B5044A063A7EB0A0763
:10A07000707A50447072D044BFB2002FE0D0FD2FF0
:10A08000ACBF4FF0FC0ABA4642465FFA8AF120465E
:10A09000FCF736F8D9F800000028E4D0314628460D
:10A0A000FDF7AFFB0020C9F8000000F003F8012025
:10A0B000BDE8F0874D48FBF7F3BF2DE9F8435FEAB1
:10A0C00000090D4606D12846FDF764FA00202860F5
:10A0D000BDE8F28309F1040699F83C0000F006009F
:10A0E000062811D1B06878B12868FFF7FBFD316B05
:10A0F00051FA80F0306309F124002968FDF730FB44
:10A1000000F02DF80020E3E73068010005D0FBF7F0
:10A11000C7FF02E03046FDF794F92846FDF70DFB36
:10A12000060002D1FFF7C6FFECE7707AB17A00F0C3
:10A1300010F807E04246E1B24846FBF7E1FF3F1B5B
:10A14000A044BFB2002FE5D0FD2FACBFFC243C469D
:10A15000F0E70F1A8019BFB200F110087047002015
:10A1600028600121184890F90000FEF78BB9174AC2
:10A1700012683AB1136B834204BF136A8B42F7D162
:10A1800010467047002070471049096800291CBF1D
:10A1900091F83E208242F8D10846704710B5044637
:10A1A00094F83C00626920EA0101100002D02046C8
:10A1B000904701E084F83C1094F83C0040F0010026
:10A1C00084F83C0010BD000093140020B409002066
:10A1D000B8090020020001005C0100209414002056
:10A1E000FD9C0000779D0000859D0000159D0000EE
:10A1F00038B5044604F13C056878C00713D52878C3
:10A20000400610D52046FFF7D8FE60B1287800F050
:10A21000BF0028704021687800F0FE00687020467A
:10A22000BDE83440BAE731BD70B588B006460C468B
:10A23000154602A8DFF89C131422FBF7FBFEDFF89B
:10A240009803D0E90023CDE9002316B31422314648
:10A2500002A805F019FC04208DF8160002A8FCF7EE
:10A260000FFC04211120FCF7DCFA0022002103205E
:10A27000FCF76EFC0121DFF86403FCF721F90121F2
:10A28000DFF85C03FCF71CF9012201210120FCF737
:10A29000D1FB0CB308222146684605F0F5FB684661
:10A2A000FCF73EFC002D07BF032401200224002000
:10A2B00001220121FCF74CFC2146CA48FCF7B1FA07
:10A2C0002146C948FCF7ADFA2146C848FCF7A9FA6F
:10A2D0000121C748FCF7F4F808B070BD704770471B
:10A2E00070B58CB00446002B1CBF187800280D46B2
:10A2F000164601D0587800B10120BE4908605020B0
:10A30000ADF8080002AA00213120FEF7D7FABDF906
:10A31000080000F01DF93EB12422314603A805F0E3
:10A32000B3FB03A805F0BDFB0021485D10B9491C33
:10A330000629FADB0629B0480AD000214A5DFF2A27
:10A3400002D1491C0629F9DB062918BF002D17D1B7
:10A35000AA49D1E90023CDE900239DF8001001703E
:10A360009DF8011041709DF8021081709DF8051054
:10A37000C1709DF8061001719DF80710417103E04E
:10A380000622294605F080FB05F038FC204605F042
:10A390004EFC05F02FFE0CB070BDF0B507460C4624
:10A3A0008DB015461E469649964800F0F4FC964836
:10A3B0000068000E8F2814DA9448016841F0040206
:10A3C00002604FF050130022DFF844C24FF0300E0D
:10A3D0000EFB02CC521C062ACCF80030F4D30160EC
:10A3E00001E0902806DA8B480168C909C90141F0EB
:10A3F0002001016007A8884991EC060B80EC060B50
:10A400004FB117F1100F02D10020089003E018227D
:10A41000394605F039FB07A8FDF75AFD1398D8B166
:10A4200002A87E491422FBF705FE7D48D0E90023EF
:10A43000CDE9002324B11422214602A805F024FB13
:10A4400025B108222946684605F01EFB32466946BA
:10A4500002A8FFF7E9FE04E0324629462046FFF74E
:10A46000E3FE01216F48FCF72BF8FDF7F5FA00F049
:10A470005AFD05F017FF05F081FF0DB0F0BD00009B
:10A4800038B50446207800285CD094F90110664D58
:10A4900011F1010F28D000F056F842F202002866B0
:10A4A00094F90100801F05281AD8DFE800F00305A1
:10A4B000090D1115286912E0286940F480300EE07A
:10A4C000286940F400300AE0286940F4403006E092
:10A4D000286940F4802002E0286940F4A020286127
:10A4E000286840F48060286094F9021011F1010F8F
:10A4F00028D000F028F842F20100686694F90200C2
:10A50000801F05281AD8DFE800F00307090D111590
:10A51000286940F0A06010E028690EE0286940F04A
:10A5200080700AE0286940F0007006E0286940F079
:10A53000407002E0286940F080602861286840F49B
:10A540000060286031BD00230422022005F07FBF97
:10A5500030B585B004467D307E288041C00F019023
:10A56000ADF80C402348006802900020ADF80E00C2
:10A570000420ADF8100001A805F0A7FF204606F062
:10A58000FDFA04B242F60720ADF802000DF1020117
:10A59000022001F0F2FF02464FF6FF71012002F0A7
:10A5A00054FB050012D0012CACBF601D601F0A21B6
:10A5B00090FBF1F08DF8000001216846FCF760FE89
:10A5C000034600222946002002F094FA204605B0F6
:10A5D00030BD0000285600003C5600000025080051
:10A5E000005508000200180003001A0005001E00B4
:10A5F000000508005801002018090020F081E00F34
:10A60000DFA20000DDA20000FC81E00FB0400E40A0
:10A6100000A000402C400E401056000044560000A0
:10A62000585600000035080008600E40012100F077
:10A630001F029140DFF89C22400942F82010704729
:10A6400000BF70B5DFF89042E0682168084010D57F
:10A65000DFF888522E68306820B100F02EF9326899
:10A660000021904728680021002206C04FF00040DA
:10A6700011E0400010D5DFF868522E68306820B134
:10A6800000F01BF932680121904728680021002260
:10A6900006C04FF08040A060BDE8704059E0F0B5C2
:10A6A000DFF84002DFF840420568DFF84062DFF87B
:10A6B0004072DFF84022012908BF6D1C01D061B94A
:10A6C0006D1E02EBC501D1E90023C7E9002306EBAB
:10A6D000C501D1E90023C4E90023DFF81C1205609D
:10A6E00000220B684AF6E854012BDFF8103204BF51
:10A6F00001220C60DC620068022818D81C6844F053
:10A7000070041C6000F002009C6B44F008049C6321
:10A71000DFF8EC41256825F440652560256845EAA9
:10A7200080202060986B20F00800986303E0186890
:10A7300020F0700018600020D86202B10860F0BDFF
:10A7400071484FF0404101604168890089084160CB
:10A750007047F0B56249664B0A68002053F83040F4
:10A7600044B1156803EBC0041DB115792679B542D3
:10A7700000D22246401C0628F0DB0A6011466348DE
:10A780000A685AB10268120A120202600268097964
:10A7900011430160416941F0804102E0416921F0CB
:10A7A00080414E4A504C41610021136854F83150A9
:10A7B00045B11E6804EBC1051EB12E791F79BE425A
:10A7C00000D22B46491C0629F0DB13601A6862B1DF
:10A7D000026822F47F4202600268197942EA01218C
:10A7E0000160416941F0004102E0416949004908C6
:10A7F0004161F0BDF8B546493D4C3B4D0120087024
:10A8000030212046FBF7FCFC30212846FBF7F8FC02
:10A81000334940483B4B0860304908603E48016876
:10A82000406DC1F30741C0B2FF2912BFFF281921B3
:10A83000902001EB810200EBD2021A60C0000522D9
:10A84000B0FBF2F0401835490860684600F0F6FDAC
:10A8500024489DF801200168012A21D1304A13685B
:10A86000972B28BF00210DD21368812B38BF0321FD
:10A8700008D31368882B38BF022103D31268882AB3
:10A8800028BF01211B4A02EBC102D2E90067C4E9DB
:10A890000067164A02EBC102D2E90067C5E900670A
:10A8A0000160FFF74DFF0020FFF7C0FE1D490120AA
:10A8B0000860FFF74EFF0020F2BD194817490068F5
:10A8C00009680006400D052290FBF2F0081A00F31B
:10A8D0000700704780E200E024300E40D8080020D6
:10A8E000D4080020E40800209C0800201801002063
:10A8F0006C0800203801002008300E4064310E4002
:10A900003C400E40DC0800202C300E401C300E4035
:10A9100091140020CC080020B081E00FE008002056
:10A9200020300E4000E100E029490A68100003D001
:10A9300012680A60FDF7ABB870472548006800B19F
:10A94000001D70472DE9F0440D46044628780006A6
:10A9500016469A460FD53019001DFDF77EF81C4F9C
:10A96000C0B10021016000E00F4639680029FBD129
:10A970003860071D01E01748076822462946384617
:10A9800005F082F836B132465146E019BDE8F04490
:10A9900005F07AB8BDE8F08480B5FFF74BFAA8B1AE
:10A9A000011D0D4A0A600A2300224A608A60CA60BB
:10A9B0000A6100F13C0213704FF48073CB620023F4
:10A9C0009370CB61BDE80240FFF774BA01BD00008F
:10A9D000500800201401002045A9000050E8002F75
:10A9E00040E80013002BF9D11046704780B50021D4
:10A9F0001548FFF7F3FFBDE8024005F0D1B8134951
:10AA00004FF08050086070470F4951E8002F024313
:10AA100041E80023002BF8D10D480068004780B5BD
:10AA200002000B490DD10B4808606FF001000A4984
:10AA3000FEF784F94EF27C214FF0804008604EF220
:10AA4000FC01086001BD0000DC09002004ED00E00D
:10AA5000E0090020FFA90000EDA90000B34942F67B
:10AA60000110086070472DE9F04F83B0044600F0F4
:10AA70004BF9AF49DFF8BCA200FB0410AE4CAF4964
:10AA8000D4F80080B0FBF1F000F1020BA069009057
:10AA9000002500274FF0FF36A9464FEA091050F86D
:10AAA0000A1001F00301012910D150440125C168A9
:10AAB000009806F0D3F8E16D09F10802D140C9070A
:10AAC00048BF002602D4B04298BF064609F10109EA
:10AAD000B9F1050FE1D308F44030B0F5003F11D1D2
:10AAE000E06A421C08F44050B0F5805F07D1A06ACC
:10AAF00000F58070A0FB02894046494606E0110E31
:10AB0000100203E0A06A00F580700021A0FB068916
:10AB100028468B4DD5F800A001FB069989490968A4
:10AB200011F0706F04BFE16811F0060F64D10028C6
:10AB300061D00BF1040000F013F949455CD828BF3F
:10AB4000404559D200F0E0F807461120FBF7F3FC2E
:10AB50000026CDE900063A464FEA182040EA096887
:10AB60004FEA1923A2FB080102FB0311DDE90023D0
:10AB700004F0E4FEAE637449626F4A60734A626730
:10AB80000222AA614FF480726266A36EA6662F68E5
:10AB90007F1CEF630227AF63EF6B8F6003E0BF1C86
:10ABA0008F600126EF63D5F800C0E76DFF0519D56A
:10ABB0006266A36600EB0A02A2EB0B02EA63ABEB50
:10ABC00000000222AA61EA6942F00202EA612A68F0
:10ABD000EB6BD21A82420CD30120087001275C492A
:10ABE000086009E08F6807F1010EF445DBD1002E03
:10ABF000D5D0002001E001273846BDE8FE8F2DE9C1
:10AC0000F04D514F3878002875D052484A4CD0F852
:10AC100000A0A0684A4D40F4E400A060E86920F07C
:10AC20000200E8612868801CE863E86BB968401A94
:10AC300000F096F80646206810F4883F8B4627D02F
:10AC4000A06A00F5807800233046424604F076FE84
:10AC5000A8FB002308FB0133B21A6BEB0303D4F803
:10AC600078C0120A42EA036262440646B2EB182F29
:10AC700024BF761CA2EB18222261E06FE16A00F08B
:10AC80003CF8606133480068216B00F036F8A06141
:10AC9000E06DC00104D42868E96B081A0328F7D3D3
:10ACA0004FF08070606600210220A861214A786818
:10ACB0006067A06820F4E400A06000203870A069FC
:10ACC0000B019D58ED0713D5E66D01F10805EE4027
:10ACD000F6070DD49B185045DB6802D39A4507D27E
:10ACE00001E09A4501D3984202D30123AB40236689
:10ACF000491C0529E4DBBDE8F08D3018491CB0FB88
:10AD0000F1F201FB1200704710B5134801680124ED
:10AD1000C90404D40068000A00F00F0084400F4802
:10AD2000FBF709FCB0FBF4F010BD00005C600E40C6
:10AD300020A10700745008400050084040420F0016
:10AD40000820044004400840580800200300070081
:10AD500084000A438050084000200440800910000D
:10AD600038B504461120FBF7E6FB0546FFF7CCFF9C
:10AD700002460023A5FB040104F0E0FD090241EABC
:10AD80001061000234BD0228890001EB401000F17F
:10AD900084400260704710B5454A464C10602160FF
:10ADA00000214548018006F095F8C00308D506F05B
:10ADB0008DF82168080003D0BDE810400420084742
:10ADC00010BD38B572B63D4C206810F1010F1CBFA4
:10ADD000401C206000F037F80546681E032803D2A7
:10ADE000284600F03AF800E00025206818B1401E1F
:10ADF000206000D162B6284632BD022818BF032861
:10AE00000BD12D494218411812F8022C521C02286D
:10AE100001F8022C01D1012212E07047022818BF6C
:10AE200003280CD12449421812F8022C1AB14018F8
:10AE3000521E00F8022C087808B9002200E0704782
:10AE400001211F48A0E71C490A780120002A01BF00
:10AE50000220497800290320704710B504461448A1
:10AE6000016808001CBF20468847012C08D015D374
:10AE7000032C10D00BD3042C08BFFCF765FF0DE0AA
:10AE80001048016821F00401016030BF06E0012094
:10AE9000FCF7FDFE02E00120FCF71DFF05480168FC
:10AEA000080003D02046BDE81040084710BD000050
:10AEB0006408002068080020841400205408002042
:10AEC00000300E4010ED00E099490A680AB90020F0
:10AED0007047D2680021101A00D400D10121084621
:10AEE000704710B5924A12684FF0FF3109E0D368FD
:10AEF0001469E3181B1A5B005B088B4298BF194664
:10AF00005268002AF3D1084610BD10B504466069A6
:10AF100020B1A168002958BFFCF7B9FD2046BDE863
:10AF20001040FCF7B4BD82490020086070472DE94D
:10AF3000F84F7F4C25688046894692469B460026FE
:10AF400004E06F682846FFF7E0FF3D46BDB1286882
:10AF5000404501BFA8684000400848450CD15FEA61
:10AF60000B0003D068695146D84728B96868002E9D
:10AF700014BF70602060E4E72E466D68E6E7BDE828
:10AF8000F18F00230022D2E7F8B505001CBF286826
:10AF900000280E4617461C4608D127B1002E5CBF7C
:10AFA0003846FCF774FD4FF4C670F2BD1820FCF76C
:10AFB00054FD78B10021416186604761056000223F
:10AFC00006995B4B0161594909686118C1601C68A9
:10AFD00025460AE027B1002E5CBF3846FCF757FD36
:10AFE0004FF4C170F2BD2A466D6815B1EE68B142EA
:10AFF000F9D212B94460186002E0516841605060B3
:10B000000020F2BD80B500230093FFF7BDFF02BD15
:10B0100070B504460D4616460C20FCF71EFD10B90F
:10B020004FF4C17070BD456086602168016020608A
:10B03000002070BD2DE9F0410546002728680E4626
:10B040009046002801E0074620000ED042680168C3
:10B05000B24204BF826842450C46F4D1002F0CBFB7
:10B0600029603960FCF713FDEEE7BDE8F08138B5E3
:10B0700004462F492068096807E00A68A24203D104
:10B080008A6802F000428A6049680029F5D120B13F
:10B090000568FCF7FCFC2846F9E7206031BD2DE986
:10B0A000F04104000D4690460DD0276800E0374679
:10B0B0004FB13E68B8687F6843462A462146B84784
:10B0C0000028F4D000E00020BDE8F0812DE9F04137
:10B0D000164C174D20601AE070682860B068400078
:10B0E0001CBF306800280FD007686FB1B2685000ED
:10B0F0000AD0D7F80080B868736931687F68B847AC
:10B1000010B95FEA0807F1D13046FFF7FEFE266866
:10B110003046FFF7D9FE18B12E68002EDCD1F6E7D5
:10B120003046BDE8F041DCE60000000020090020C8
:10B130002409002070B50546FDF7ECF940B915F17A
:10B14000010F1E4C0DD01E48007850B9022D01D2BF
:10B15000002070BD20684019E064E06940F0040000
:10B16000E061FFF770FE0025022812DB1548164A41
:10B1700001680068C1F3031100F00F0032F81110EC
:10B1800032F810004018B43080B2FFF76CFC0500B4
:10B1900002D10220FFF731FE2668FFF712FE206879
:10B1A000861BE06920F00400E061FFF728FD15B977
:10B1B0000220FFF733FE304670BD00BF0820044078
:10B1C0009014002034400E40F855000080B5214A0C
:10B1D000002111602049086000200968887305F08B
:10B1E000A9FE05F0AFFE05F087FF05F0A7FFFCF70D
:10B1F00046F806F034FD06F0E3FE07F067FB00F0CA
:10B20000C5F9BDE8014006F04BBA1CB5044606225C
:10B2100012496846FAF70EFF204669460622FAF7F9
:10B22000F9FE16BD10B5044603E0FFF74FFF06F028
:10B2300035FA06F0DCF900282046F6D1BDE81040CA
:10B24000FFF744BF002818BF07F0BAB94FF4C07029
:10B2500070470000E4090020E8090020B00C00203D
:10B2600080B505F00DFF20B1BDE80240C08D06F0AD
:10B2700062BC4FF4C07002BD06F02DBC80B5014623
:10B28000012006F097FC002002BD022881423ABF4F
:10B2900053189842FAF7BEBE8018990707D0521E7D
:10B2A00024BF13F8011D00F8011DF6D8704781076F
:10B2B0001CD1103A07D330B433E93210103A20E9E8
:10B2C0003210F9D230BC1032121F24BF53F8041DC3
:10B2D00040F8041DF8D838BF121D521E24BF13F8C1
:10B2E000011D00F8011DF8D8704700BF083A07D3C8
:10B2F00033E90210083A40F804CD40F8041DF7D2B3
:10B300000832EAE770B5054605F10F00C408C046EB
:10B31000C046E400A54232D2082C04D2082402E040
:10B32000083000F04BF82248026811000CD1011DD2
:10B330000A6802B31368A34238BF111DF8D310E0A6
:10B340001D68A5420DD2191D0B68002BF8D112689B
:10B35000011D00E0191D0B6893420CD01D68A54229
:10B36000F8D361B10D682A68A2F10803A3420AD29A
:10B370006A680A600FE007F0EFFB0028D0D1C046F2
:10B38000C046002070BD63190B60121B6E685E60C2
:10B390000B681A602C60096800291DBF4A68002AE2
:10B3A000091D00210160C046C04605F1080070BDBE
:10B3B00070140020002200F0B9B8032800B97047CB
:10B3C00038B5A0F108042068082833D310F0070F1F
:10B3D00030D1C046C0461848416809B18C4203D2FA
:10B3E0006160446017E019464B680BB1A342FAD381
:10B3F0000B685D18AC421BD3A54204D12268D21859
:10B400000A600C4607E04A681AB123681B199A4281
:10B410000ED362604C60616851B1226813198B428F
:10B4200006D10023036008688018206048686060C7
:10B43000C046C04631BD0000701400200B494A6868
:10B440000B6802F00F02C3F3811343EA8202827099
:10B450000A6802F03F0242708A68C96802F0F0028E
:10B46000C1F3031111430170704700BFE0FF0FE00B
:10B4700080B507F0A0FB002002BD07F0FABB92B236
:10B4800007F09BBB02B504226946FFF7F8FF02BD37
:10B490000300002013F0030F09D0521E22BF13F83F
:10B4A000010B11F801CBB0EB0C00F3D07047121F69
:10B4B00022BF53F8040B51F804CB6045F7D0121D9E
:10B4C0000AD200BA9CFA8CFCB0EB0C0038BF6FF0CB
:10B4D000000088BF01207047521E22BF13F8010BE5
:10B4E00011F801CBB0EB0C00F6D0521C08BF10468F
:10B4F0007047032810B50A4B40F201141C60986095
:10B500000120586002E012F8010B98610846411EC4
:10B510000028F8D1D8694FF0FF31484010BD00BF76
:10B5200000C0014062F30F2262F31F42401810F086
:10B53000030308D0C91A1FD3DB0748BF00F8012D49
:10B5400028BF20F8022D130030B4144615461039D8
:10B5500028BF20E93C00FAD8490728BF20E90C00A1
:10B5600048BF40F8042D890028BF20F8022D48BFAD
:10B5700000F8012D30BC7047C91818BF00F8012D24
:10B58000CB0728BF00F8012D704703287047A0F1B2
:10B59000170124292FBF4FF4C0708749088000206D
:10B5A000704738B5854D864C2878800706D401F061
:10B5B00045F82060286840F002002860206832BD0D
:10B5C00080B501F037F8BDE804400021002002F00A
:10B5D000E3B838B504465420FCF74EFA050001D113
:10B5E000002032BD204605F08FFD25652C6000202F
:10B5F000616E41F4803161662862686328652A467D
:10B600001720A88120460FF2FD01FFF701FD6D48CC
:10B6100000684168002205F11400FFF7F9FCE06BB7
:10B6200001280CBF02200320E861284632BD38B54E
:10B6300004001CBF256D002D28D0002020652A465F
:10B640000FF2C1012046FFF7F5FC281DFBF7A2FF12
:10B6500005F10800FBF79EFF05F11400FFF707FD59
:10B6600005F11000FFF703FD286B08B1FCF70FFA96
:10B67000286D18B105F15000FBF78CFF2846FCF748
:10B6800006FA2046BDE8324005F094BC31BD38B51D
:10B6900004460D460420FCF7E0F968B1216891F8F2
:10B6A0002C1001704580024604F11400BDE83840BA
:10B6B00040F20161FFF7A6BC31BD80B500220092C7
:10B6C0004FF470230068FFF75FFC01BD0068FFF7CF
:10B6D00058BC10B50446E069012811D00120E06192
:10B6E000FCF7BBF960B1216891F82C10017002469B
:10B6F00004F11400BDE810404FF4C161FFF782BCB3
:10B7000010BD000010B50446521E084624D040F279
:10B710000121521A0AD0521E1ED040F20641521A7E
:10B72000012A9CBF2046FFF7D4FF17E0E0690228FA
:10B7300006D1214801881829A4BF204607F048FBFC
:10B74000E069032818BF042808D1204600F0E7FF6D
:10B75000204601F0D8FF01E0FFF769FF002010BD8F
:10B76000914288BF11461729B8BF17210846704774
:10B7700070B5114E0D463188044607F033FB328810
:10B7800029462046FFF7ECFFE169A081022904D099
:10B7900001462046BDE8704079E770BD10B504460B
:10B7A00005480A4601882046FFF7DAFFA0810146D6
:10B7B0002046BDE810406AE7E0020020780C002037
:10B7C0007C0C0020E409002080B505F059FC00B194
:10B7D000006D02BD80B5002100B10168084605F08A
:10B7E00085FC010003D0086D0028F7D002BD0020C1
:10B7F00002BDFEE7002105E0827A5118427A006816
:10B80000891AC9B20028F7D108467047C1690129D1
:10B8100002D140F203107047006A08B14FF4817002
:10B820007047F8B5170004460D461E4609D1206A38
:10B83000072803D0082808BF092700E00B2706B116
:10B840000D270698FFF7D6FF618D49B1A28D8B1A9F
:10B85000834205DA401A1118C9B206A8FBF7F7FFB0
:10B860000C20FCF7FAF8020003D106A8FBF792FEC1
:10B87000F1BD206890F82C00107055801771D680AB
:10B8800040F205610698906004F11400FFF7BAFBDE
:10B89000F1BD7CB504460D4616460C20FCF7DDF8DC
:10B8A00018B901A8FBF776FE73BD216891F82C103A
:10B8B00001704580868002460199816004F1140080
:10B8C00040F20661FFF79EFB73BD016240F2096121
:10B8D000FFF7F3BE38B50D46044640F20961FFF7A5
:10B8E000F5FE002020620820FCF7B7F868B1216857
:10B8F00091F82C1001704560024604F11400BDE877
:10B90000384040F20761FFF77DBB31BD09B1030C40
:10B910000B8002B11080704710B50446206B18B13F
:10B92000FCF7B5F80020206310BDF8B504460D46BD
:10B9300016461F46FFF7F0FF2846FCF78EF82063F7
:10B9400010B94FF4C170F2BD1EB13A463146FAF754
:10B9500061FBA7850020F2BD10B504460846FFF73D
:10B9600049FF618D19B1A28D891A88420CDAA1892B
:10B97000A38D4A1E002B02BF236A082B0A1F92B216
:10B98000904201D1012010BD002010BDF2B515007C
:10B9900082B004461E4622D10846FFF72BFF07005F
:10B9A0001DD0206AC01F012802D9C01F04D00BE09F
:10B9B000029800F015FD05E0029BA28D218D204626
:10B9C000FFF767FF00200290A08D3A18A28536B1DC
:10B9D000218D92B2204607F070FA050004D02A4665
:10B9E0000021204600F086FC00F05CFDF7BD2DE94B
:10B9F000F042044682B0A0891F46C01EB8420D46E0
:10BA0000164605DB204602B0BDE8F04207F0A7BAB3
:10BA10002585F9B22046FFF788FF5FEA000910D1BB
:10BA2000A089411F8F42A8BF471FBFB2009733466E
:10BA3000002200F009F85FEA00091CBF2046FFF76A
:10BA40006BFF4846BDE8F6822946204607F0AABAB1
:10BA500038B50D460446002107F0E6FA256331BDEE
:10BA6000F8B5044682B015461846FFF7C3FE0746F0
:10BA700000F018FD089EB6B955FA87F5A08DADB255
:10BA8000854214D2A1892A46831A4E1FB342B4BFFD
:10BA9000401B481F80B20090206B218D1318FFF7C8
:10BAA000D4FF06000FD000F0DEF9314608E000F0C8
:10BAB000DAF90121204607F0B7FA060003D0014663
:10BAC0002046FFF7C5FFF7BD30B583B00446FFF74A
:10BAD0009DFE050014D14FF6FF70E08401ABDFF846
:10BAE000E4080088ADF804000121022000902046FF
:10BAF000E28C07F024FA050002D1012100F09AFA45
:10BB000028463EBD2DE9F843089C054688469146E7
:10BB10001E4604F11C00FBF7A0FF070016D02868A2
:10BB200090F82C003870BC6149EA084078602246E1
:10BB3000314607F10800FAF76DFA3A4605F11400AC
:10BB4000BDE8F84340F20261FFF75CBABDE8F1835B
:10BB50002DE9F24F044682B01E469146484607F052
:10BB60002EFDA9F1040B4FF6FF7A07465EBB029843
:10BB7000FFF740FE8046002512E00299EBB25FFA23
:10BB800089F23846FBF7CDFCB7F802A05FFA8BF0DC
:10BB900000903B1D3988524600F0A9FB4D44ADB2E0
:10BBA0004545EADBE08C824512D2DFF81C0800F044
:10BBB0004CF90220009001ABE28C89B2204607F0DC
:10BBC000BEF9060007D040F20A40864208BF0026B0
:10BBD000314600F006FB00F065FC384631E1F0B577
:10BBE00083B000F03AFA07001DD14FF6FF70E084F1
:10BBF00033462A4631462046FFF797FE070012D10A
:10BC0000A08D01904FF42053206B00900121E28C15
:10BC1000204607F00CF9070002D000F024F902E0FA
:10BC2000022100F007FA3846FEBD7CB500F055F958
:10BC3000060018D104F1260204F128012846FFF776
:10BC400065FEDFF888070088ADF8040001AB02202C
:10BC50000090E28C218D204607F004F9060002D105
:10BC6000032100F0E7F9304676BD2DE9F24F044696
:10BC7000924682B09846504607F0A1FCB8F1000FFA
:10BC800006463AD1AAF106005FFA80FB0298FFF758
:10BC9000B1FD4FF6FF758146002708E0CDF800B0F2
:10BCA000B2887188B31D00F022FB5744BFB24F45E4
:10BCB00015DA0299FBB25FFA8AF23046FBF731FCE3
:10BCC0003588BBF1000FE9D1258571886185B08881
:10BCD000A08500F090F95FEA00080ED116E0E08C34
:10BCE000854210D2DFF8E8060088ADF80400691C30
:10BCF00000F0B1F85FEA000808D040F20A40804541
:10BD000008BF4FF00008414600F06BFA96E01CB502
:10BD10000446084604F1260201A9FFF7F7FDDFF803
:10BD2000B4060088BDF80410ADF806000DF1060356
:10BD3000022000902046E28C07F094F816BD70B502
:10BD400000F0CBF8060008D129462046FFF7DFFFB8
:10BD5000060002D1042100F06DF9304670BD2DE9D6
:10BD6000F843089C05460E469146984604F11C008F
:10BD7000FBF773FE070016D0286890F82C00387087
:10BD80007E8087F80490BC612246414607F1080096
:10BD9000FAF740F93A4605F11400BDE8F84340F2DD
:10BDA0000361FFF72FB9BDE8F1832DE9F24F044697
:10BDB000914682B01D46484607F001FC002D06461C
:10BDC00034D10298FFF716FDA9F1050B4FF6FF7A63
:10BDD000804600271DE00299FBB25FFA89F23046E7
:10BDE000FBF79FFBB6F800A0206B30B15FFA8BFB2E
:10BDF0005A46711DFFF74CFB48B95FFA8BF0009073
:10BE0000B278B6F80310731D2046FFF7A8FF4F4421
:10BE1000BFB24745DFDBE08C82450BD2DFF8B805C7
:10BE200000F013F800F017F8050007D000F05BFAF7
:10BE300008BF002500F017F800F0D2F900F032FB3F
:10BE4000304607F0C5FBBDE8F78F0088ADF8040069
:10BE50000AF1010170470220009001ABE28C89B227
:10BE6000204606F0FFBF204656E52DE9F04100F0E0
:10BE700009F95FEA000815D13B46324639462046AB
:10BE8000FFF753FD5FEA00080CD129462046FFF773
:10BE90003EFF5FEA000802D0FFF7E5FF02E0052160
:10BEA00000F0C8F8A3E070B500F017F8060012D152
:10BEB0004FF6FF70854204D1002100F092F9002076
:10BEC00070BDE0840246691C00F032F9060002D120
:10BED000062100F0AFF8304670BD04460D4695E4EB
:10BEE0002DE9F04104461F460D46904607F1180023
:10BEF000FBF7B3FD060013D0206890F82C003070DB
:10BF0000758077613A464146301DFAF783F832462C
:10BF100004F11400BDE8F04140F20461FFF772B88B
:10BF2000BDE8F0812DE9F44F01290CBF022610264F
:10BF3000B71C8246FFB21D46384607F040FB8046DC
:10BF40005DBB0098FFF756FC4FF6FF7B814600244F
:10BF500015E00099E3B23A464046FBF7E2FA98F85A
:10BF60000300B8F800B028281BD0334608F10202BD
:10BF700059465046FFF7B4FF54FA87F4A4B24C4533
:10BF8000E7DBBAF8262093450BD20BF1010189B209
:10BF9000504606F03EFF050007D000F0A4F908BFA8
:10BFA000002529465046FFF795FC00F089FA4046E7
:10BFB00007F00EFBBDE8F18F2DE9F04100F062F8CB
:10BFC0005FEA000813D12585A68507B1B8196085F9
:10BFD00016B900F00FF804E0218D3246204606F035
:10BFE0006CFF5FEA000802D1072100F023F8404609
:10BFF000BDE8F0812946204606F048BF2DE9FC4106
:10C0000000F040F85FEA000813D104F1260201A90C
:10C010002846FFF77BFC0097E28CBDF804103346FE
:10C02000204606F01FFF5FEA000802D1082100F059
:10C0300001F84FE0204648E4F8B500F00EF807009C
:10C0400009D1F2B22946204606F059FF070002D175
:10C050000921FFF7EFFF3846F2BD04460D461646AC
:10C06000FFF7D4BB2DE9F04100F00CF85FEA0008BF
:10C0700007D100F0DBF85FEA000802D10A21FFF7E0
:10C08000D9FFB4E704460D4616461F46FFF7BEBB70
:10C09000F8B5FFF7F7FF40B93B4632462946204640
:10C0A00001B0BDE8F04006F070BFF2BD2DE9F041EF
:10C0B00082B0FFF7E7FF5FEA00080BD10898009015
:10C0C0003B463246FFF7C0FC5FEA000802D10C2174
:10C0D000FFF7B0FF4046BDE8F68170B5FFF7FDFE03
:10C0E000060008D12946204606F09EFF060002D130
:10C0F0000D21FFF79FFF304670BDF8B5FFF7ADFF8C
:10C10000070013D14FF6FF70854205D140F20A4176
:10C1100000F067F80020F2BD0246691C266300F0BB
:10C1200007F8070002D11021FFF784FF3846F2BD5F
:10C1300089B2204606F06DBE2DE9F6470129044676
:10C140000CBF4FF0040A4FF0120A1F46504607F08A
:10C1500036FA002F054638D10198FFF74BFB4FF612
:10C16000FF7847468146002603E028282BD0564416
:10C17000B6B24E451DDA0199F3B252462846FBF796
:10C18000D0F9E878A97841EA002142F602122F8816
:10C190009142EAD10020ADF800000223206B8DF817
:10C1A00000006A4639462046FFF721FC0020206344
:10C1B0000EE0E08C874206D2791C4246FFF7B8FFBA
:10C1C000070002D104E040F20A47394600F009F8BE
:10C1D00001A8FBF7DFF9284607F0FAF9BDE8F38775
:10C1E00029462046FFF776BB70B5FFF776FE0600BE
:10C1F0000AD10020A08560852585FFF7FBFE06009B
:10C2000002D10E21FFF716FF304670BD2DE9F04137
:10C21000FFF738FF5FEA000807D100F007F85FEA90
:10C22000000802D10F21FFF705FFE0E63B4632464A
:10C2300029462046FFF7DBBB04B5026A062A02D076
:10C24000102A04D007E0009AFFF76CFE01BD009AA7
:10C25000FFF772FF01BD30E12DE9F241044685B0E0
:10C26000206A0228154638D1084603904FF6FF761B
:10C270004DBBFFF7BFFA8046002711E00399FBB2E0
:10C28000042202A8FBF74DF9A08DBDF80A60BDF8A5
:10C290000810C0B200903246236B00F028F83F1D12
:10C2A000B8B24045EADBE28C964210D2A08D0190F4
:10C2B000711C206B00904FF4205389B2204606F089
:10C2C000B6FD050007D000F00EF808BF0025FFF707
:10C2D000CAFDFFF785FF03A800E005A8FBF75AF9A0
:10C2E00006B0BDE8F08140F20A4085427047204622
:10C2F000FFF708BC72B5150083B0044609D1FFF7FB
:10C300002BFB30B10399012300222046FFF73EFBAF
:10C310007FBD206A032806D0072818BF082832D01E
:10C320000E2839D049E00398019040F21F2638B317
:10C33000F5B9102000900198417AA28D081800F1FB
:10C340001003618DFFF7D3FF208DE18C884213D25B
:10C3500022480088ADF8080002AB02200090208D32
:10C36000E28C411C89B2204606F07CFD050005D018
:10C37000FFF7B9FF00D13546FFF732FF01A81DE0F6
:10C38000002DF5D1F7E7039801901DB910B100F029
:10C3900027F80FE001A80BE0039800903DB930B1F9
:10C3A0000346218D00222046FFF773FA02E068461B
:10C3B000FBF7F0F8FFF714FF7FBD03A8FBF7EAF8DF
:10C3C0007FBD000006620000927A0000CE7A000075
:10C3D0008AB20000BAB30000F2B4000086AD0000DB
:10C3E0000090A38D218D00222046FFF71ABA32B5A6
:10C3F00004461546206AC01F012801D9C01F09D173
:10C400002046FFF7A9FA034600992A462046FFF77F
:10C41000BDFA31BD00F054F831BD32B5044682B0EA
:10C42000206A092815460DD101913DB900910023DC
:10C430000F2200212046FFF7F4F902E001A8FBF7E4
:10C44000A9F85FE02BE032B5044682B0206A0328E9
:10C450001D4606D0042818BF052806D0082808D095
:10C460001DE02046FFF701FC37BD2046FFF79DFC8D
:10C4700037BD009105B143E0002031B10846417A53
:10C48000009A0818891C008A517220850022002019
:10C490006085A08520460099FFF72CFF37BD00F08E
:10C4A00001F837BD02A8FBF775B802B5016A01298A
:10C4B00003D10099FFF74CFB01BD00F001F801BD6D
:10C4C0006846FBF767B8026A0A2A1CBF0F2A102ABF
:10C4D00001D1FFF7FFB9704738B5044682B0206A32
:10C4E000069D0A2803D00C2807D00F2807D1029BED
:10C4F00000952046FFF7B4FA37BD009300E0CEE781
:10C50000FFF7DEFF29462046FFF7E4F937BD026A50
:10C510000A2A03D00D2A07D00F2A07D1026B12B1C5
:10C52000114600220263CEE7FFF7D4B9704780B509
:10C53000009200231B2204E080B581840092002336
:10C540001D22FFF76EF901BD80B5C169012902D135
:10C5500040F2031002BD818C11B940F2811002BD7E
:10C560000021818406F095FD002002BD00690228AB
:10C5700016BF102801200020704770B50E462449D0
:10C580000C68022810D13078717840EA012000252B
:10C5900000E06D1CA1688D421BDAE16831F81510CE
:10C5A0008142F6D1A8B270BD102812D1002500E05A
:10C5B0006D1C206985420CDA60691022314600EB5F
:10C5C0000510FEF765FF0028F2D145F4004080B267
:10C5D00070BD4FF6FF7070BD034608460C490968F0
:10C5E0001A040AD55B040A695B0C93420EDA4969A6
:10C5F000102201EB0311F9F70DBD8A68934205DAA9
:10C60000C96831F813300370190A4170704700008F
:10C610006C0A0020DFF8EC1609680A680C2303FB9B
:10C6200000200C38008802044EBF0020C96831F891
:10C6300010007047DFF8CC160860704738B5DFF897
:10C64000C4462068021D04214FF0FF30FEF752FF60
:10C65000002507E009680C2202FB05120221FEF703
:10C6600049FF6D1C21684A689542F3DB002506E00E
:10C67000C96801EB45020221FEF73CFF6D1C2168F1
:10C680008A689542F4DB002505E049696A181021A3
:10C69000FEF730FF6D1C21680A699542F5DB32BD5B
:10C6A00038B1DFF8601609684968814201DB012072
:10C6B000704700207047F8B5DFF8485606462868EE
:10C6C00000680C2404FB0600A0F10C07787901280F
:10C6D00002D1B8680078F2BD761EB6B27EB1286885
:10C6E000006804FB0600A0F10C073046FFF792FF3C
:10C6F00042F603018842EFD1B8684078F2BD0020CD
:10C70000F2BDDFF80016096809680C2202FB001070
:10C7100010F8070C07280CBF01200020704710B547
:10C72000016891F9544014F1010F08D000F1400262
:10C730002046BDE8104010230B2107F071B810BD52
:10C7400010B50446641CA0B2FFF7AAFFC0B1A0B2A6
:10C75000FFF760FF42F6021188420AD1DFF8A40514
:10C7600000680068A4B20C2101FB040010F8020C60
:10C7700010BDA0B2FFF74EFF42F603018842E1D19F
:10C780004FF0FF3010BD38B1002905D44A1001EB3D
:10C7900092729210102A01DB002070471018A1EB52
:10C7A000820190F840004900C84000F00300704743
:10C7B00070B5040082B00D4641D0002D3FD4DFF8A3
:10C7C000440500688069854239DA681005EB90708D
:10C7D00081100846102832DA0319A5EB81014900BF
:10C7E00093F8403003268E40B3430619001986F8AB
:10C7F000403002F0030606FA01F1194380F84010B8
:10C80000900710D500F06CFAFFF79AFFA8420AD102
:10C81000FEF7C7FE00900423206890F954006A4692
:10C820000C2106F0BDFF206890F9540010F1010FB3
:10C8300005D0102304F140020B2106F0B1FF73BDB7
:10C8400070B50D4604462E46761CB0B2FFF728FFA1
:10C85000D8B1B0B2FFF7DEFE42F6021188420DD128
:10C86000DFF8A00400680068B6B20C2101FB0600E6
:10C8700010F8070C072808D1032070BDB0B2FFF7ED
:10C88000C9FE42F603018842DED12846FFF758FF71
:10C8900010F1010F01D1002070BD01462046BDE816
:10C8A000704070E7DFF85C14096809680C2202FB2D
:10C8B00000100C38417931B1022907D005D3042981
:10C8C00008D007D308E0806802E007E0806840688D
:10C8D0000078704702207047002070478068807899
:10C8E000704770B504460E4615463046FFF7D8FE31
:10C8F00008B9012070BD00F0F8F801FB06000C3803
:10C90000E90724D54188CA0701D4022070BDCA06B0
:10C9100007D5226812F8453FDB0741D500F058F8EB
:10C920004BD38A0605D500F057F82FD100F050F808
:10C9300043D349060BD500F056F831D592F90F10C4
:10C9400011F1010F33D0517D0279914235D3A907FE
:10C9500002D58178890704D5690704D5817849070C
:10C9600001D4032070BD06210D4228D04188CA059C
:10C9700007D5226812F8453FDB0711D500F028F8EB
:10C980001BD38A0507D500F027F801D0052070BD1C
:10C9900000F01EF811D3490511D500F024F801D498
:10C9A0000F2070BD92F90F1011F1010F01D1082075
:10C9B00070BD517D0279914201D20C2070BD2905D4
:10C9C00004D54088000501D4062070BD002070BD4C
:10C9D000527D03799A427047226812F8453F03F06E
:10C9E0000303032B7047216801F145021178C90741
:10C9F00070472DE9F04104460229B8BF00203BDB17
:10CA0000C04DA1F102082968496A03204F00B845CA
:10CA1000BCBF28F00107022067B1791C217060704B
:10CA20003A462868016AA01CF9F7F4FA3819841C00
:10CA3000A8EB07082968C96A07200E01B8F1030F9F
:10CA4000ACBFA8F102010021B14205DAC81001EB28
:10CA500010700011060106200EB938460AE0711C5C
:10CA60002170607032462868816AA01CF9F7D2FAFA
:10CA7000B819801C07B1801CBDE8F0812DE9F04198
:10CA80001D4616460027044688462F6037804046DC
:10CA9000FFF706FE10B90120286023E000F025F81A
:10CAA00001FB08000C38417931B1022909D005D3C6
:10CAB000042911D009D310E0806804E08068476839
:10CAC0000BE080684068471C07E0817A8E4F204663
:10CAD000FFF759FE388000E089A71FB14046FFF7F5
:10CAE000E1FE30803846BDE8F08186480068006885
:10CAF0000C2170472DE9F8430446894682B09046E0
:10CB00004846FFF7CDFD18B900F09CF8012097E0EA
:10CB10007C4E306800680C2101FB0900A0F10C0775
:10CB2000787920B1042806D0072808D00BE000F05F
:10CB300089F8032084E000F085F8062080E000F00A
:10CB400081F880207CE04846FFF7ACFE404503DAE0
:10CB500000F078F8072073E07979029A07F1080E5F
:10CB6000022904BFDEF8000080784AB11346002293
:10CB70009D7AAA185D7A1B68521B002BD2B2F7D19E
:10CB800002EB0803984203DA00F05CF80D2057E04E
:10CB9000012904D032D3032918D007D32EE0DEF8C0
:10CBA000000040680299002340440CE0DEF80010C9
:10CBB000496802EB080008700023DEF800004068B6
:10CBC00002994044401CFAF7ACFC17E00298417A05
:10CBD000827A0818521A103082B1032A0ED20178D4
:10CBE000022A24BF407841EA00219EF8000000EAB2
:10CBF00001029EF802102046FFF7DAFD14B900F09A
:10CC000021F81CE07879032811D197F8099000F0F9
:10CC100019F8B97A2046FFF7B6FD03463068C069B7
:10CC200030F819100122204600F0BEF807E0029803
:10CC300000904346626B4946204600F094F800207D
:10CC4000BDE8FE8302A8FAF7A5BC30B52D4B1B68E2
:10CC50005C688C4202DA214600E0401C89B280B256
:10CC6000814208D31C680C2505FB004434F80C4CA9
:10CC70009442F2D130BD002030BD70B5214B1B680D
:10CC8000401C0C2600E0401C80B2884216D25D6831
:10CC90000446A54212DB1D6806FB045434F80C4C14
:10CCA0002AB1022A01D002D3EDE7022C03D0002CD6
:10CCB00018BF012CE7D1401E80B270BD4FF6FF7047
:10CCC00070BD10B50446FFF7EBFC10B94FF6FF70CE
:10CCD00010BDFFF70AFF01FB040030F80C0C10BD7B
:10CCE00080B50A480088ADF8000069460220FFF7C9
:10CCF00044FC024604210120FFF7A7FF02BD00000B
:10CD0000000000006C0A0020881400208A600000E7
:10CD100018B181429241D20F00E0012210467047C3
:10CD2000F8B500F02DF838B100F031F8BDE8F84062
:10CD300040F20371FEF766B9F1BD38B504460D4601
:10CD40000820FAF78AFE68B1216891F82C1001706A
:10CD50004560024604F11400BDE8384040F2057118
:10CD6000FEF750B931BDF8B500F00AF838B100F05F
:10CD70000EF8BDE8F84040F20171FEF743B9F1BD8D
:10CD800004460D4616461F460C20FAF766BE21687B
:10CD900091F82C100170024645800671C7800699F3
:10CDA000816004F114007047F8B504460D4616463C
:10CDB0001F460820FAF751FE48B100F05AFA04F174
:10CDC0001400BDE8F84040F20471FEF71BB9F1BD54
:10CDD0002DE9F04F80468946934685B01F46594657
:10CDE0004846FFF795FF08B1012374E00E993846D5
:10CDF000FFF7C3FB0228ADF802000ED80221112074
:10CE000005F085FF01904FF0FF36B8F80C00801E4A
:10CE100003904C4603A8078802E010235BE06C1CDB
:10CE2000A4B2A34551D3BDF8022059462046FFF7CE
:10CE30000CFF040049D0BDF802205946FFF71DFF42
:10CE400005460020ADF8000004AB6A462146404686
:10CE5000FFF714FE82460398BDF80010001F8842B9
:10CE600003DA0398001FADF80000002EBDF80000A3
:10CE70000BD4B04202D1001D87420BDA01994A7AE5
:10CE80005118301D00F0B6F8B9E00646381F86424A
:10CE9000C8BF0646200A8DF809008DF80840280A08
:10CEA0008DF80B008DF80A500422019802A9FAF7B8
:10CEB00061FC0198F2B25146FAF75CFCB81B071FFF
:10CEC0004FF6FF708542BFB2A9D116F1010FD5D13F
:10CED00000F075FA0A234A461021404605F069FF22
:10CEE000D2E72DE9F04F80460D46914685B01C46AD
:10CEF00049462846FFF70CFF08B101232FE00E99A1
:10CF00002046FFF73AFB83460221092005F0FFFE89
:10CF100001904FF0FF37B8F80C00ADF80C50841EAC
:10CF2000A4B2264600E06D1CADB2A94559D35A46BD
:10CF300049462846FFF789FE050052D001222946BE
:10CF40004046FFF7CEFC029018B100F038FA029B81
:10CF500005E000F05DFA40B100F031FA80232A4686
:10CF60000821404605F025FF1EE0ADF8000002ABA9
:10CF70006A4629464046FFF781FD8246BDF800001B
:10CF8000844298BF2046ADF80000002FBDF8000095
:10CF90000BD4B84202D1801C86420BDA01994A7A3E
:10CFA0005118B81C00F026F829E00746B01E874249
:10CFB000C8BF0746280A8DF803008DF802500222E8
:10CFC00001980DF10201FAF7D5FB0198FAB251462A
:10CFD000FAF7D0FBF01B861E4FF6FF708542B6B203
:10CFE000A1D117F1010FD9D100F0E9F9BDF80C205A
:10CFF0000A23B5E748744046019905F0D3BE05B051
:10D00000BDE8F08F2DE9FC4704460F4688B0114675
:10D010003846FFF77DFE10B101233A4650E0022169
:10D02000052005F074FE00904FF6FF78A089ADF85A
:10D030000470851EADB2C14600E07F1CBDF8200023
:10D04000BFB2B84234D33846FFF73BFE8246C245F2
:10D050002ED04FF4006239462046FFF742FC0028EC
:10D06000EBD15FEA0A404CBF10260226C14509D029
:10D070000AF4004009F40041884219D1B01C8542ED
:10D0800001DA15E0D146380A8DF809008DF80870EC
:10D090000DF10A015046FFF79FFAB21C0098D2B278
:10D0A00002A9FAF767FBA81B851E4745ADB2C4D19C
:10D0B000C1450AD16846FAF76DFABDF804200A2383
:10D0C0000421204605F075FE0DE00098417A08180D
:10D0D00000F110015FEA09404CBF022001204870B6
:10D0E000204605F064FE0AB0BDE8F0872DE9FE4F4A
:10D0F0000546180A8DF8010090468DF800300E465E
:10D1000041463046FFF704FE3446002708B10120AF
:10D1100006E0284605F0A3FE5FEA000902D11120CF
:10D1200001902BE069460220FFF727FA824606E0CD
:10D13000042302AA4946284605F0D7FD01274445A5
:10D140003CD2DFF84C060068029052464146204629
:10D15000FFF77BFD040031D052464146FFF78DFDBD
:10D16000834601AB0DF1020221462846FFF786FCFB
:10D17000019959B12646484605F00BFE019B3246FF
:10D180000621284605F015FEBDE8F78FBDF8021010
:10D19000BDF83420ADF808409142ADF80AB05C46C5
:10D1A000CDD1BDF834200C99FEF772F90028C6D114
:10D1B0004946284605F08DFD0428B9DA17B90A203A
:10D1C0000190D8E74946284605F0F1FDDCE738B57F
:10D1D00014461A46456B00234363049B23B10A4659
:10D1E000294605F0E6FD07E00C2D214602D105F0A9
:10D1F0006FFE01E005F054FE002032BDFEB517467B
:10D20000002604460D46ADF804600122FFF769FBD5
:10D21000029020BB00F0FCF868B1666B0820FAF7BA
:10D220001CFC28B300F025F840F2027104F1140050
:10D23000FDF7E8FEF7BD02AB01AA29462046FFF73D
:10D240001DFC0646029850B9BDF80400B84202D24F
:10D250000720029003E0C01BBE19ADF8040032465F
:10D260000298BDF80430009029462046FFF7AFFF32
:10D27000F7BD216891F82C10017045800671C780B8
:10D28000024670470A2242630022B7E70C23436339
:10D29000B4E72DE9F04F824683B0BAF80C00461E81
:10D2A0000C461746304606F08AF900258346D846D4
:10D2B0000095A9462FB107EBD7704010B7EB40009F
:10D2C0000CD004200090009B4A460E21504605F0E9
:10D2D00070FD584606F07CF9BDE8F78F607814F8C9
:10D2E000021B41EA0029012249465046BF1EFFF7B2
:10D2F000F8FA00280090E6D14846FFF702FA08B194
:10D300008020DFE76B4601AA49465046FFF7B6FB8F
:10D3100000990029D7D1BDF80420711B9142B8BFF4
:10D32000ADF80410BDF8042001464046F8F772FE3F
:10D33000BDF804004519002F8044CFD1AAB2594648
:10D34000504605F0EFFDC4E780B5002343632AB1E2
:10D3500013460A46122105F02CFD01E005F00CFEF3
:10D36000002002BD76B50446122060630D460222FD
:10D370002046FFF7B6FA060002D000F020F812E0CF
:10D3800001980199407AC01C487200F041F830B110
:10D39000019800900023122200F037F873BD019B22
:10D3A00000F008F8064600F001F873BD3246294641
:10D3B0002046C9E7002229462046FFF79BBB01A86B
:10D3C000FAF7E8B834B582B004460D460422FFF7F8
:10D3D00088FA18B102A8FAF7DDF837BD0298029969
:10D3E000407AC01C48725220606300F011F830B1DE
:10D3F000029800900023522200F007F837BD029BEC
:10D40000FFF7D8FF0020606337BD2946204687E438
:10D410002846FFF776B9F2B504460846497A00F087
:10D4200080F82846FFF73CF998B901276846FAF7D3
:10D43000B1F800F072F83B462A461621204605F066
:10D44000B8FC092F04D140F209412046FFF775FCD2
:10D45000F1BD022229462046FFF743FA0700E5D135
:10D4600000980121F9F7B9FF08B90927DEE701465D
:10D4700004F15000FAF774F900980099407A401DC1
:10D4800048723246009B2946204605F09EFDF1BDBC
:10D490007CB5044600200D461646019026BB04F1DB
:10D4A0005000FAF782F80190F0B1417A00F039F8B3
:10D4B000FFF7AEFF00280198407A09D00199401D7E
:10D4C00048723346019800901822FFF79EFF22E031
:10D4D0000199401D48723246019BFFF76CFF0646DA
:10D4E0000020002E0190DAD0FFF769FF00F015F858
:10D4F0000020606346B133462A461821204605F0D5
:10D5000058FC06F5806103E0204605F098FD0021F7
:10D510002046FFF712FC002076BD04F15000FAF718
:10D5200039B808181030B0F80150B0F803607047EF
:10D5300010B5044631B9FFF7F0FF2046BDE81040B2
:10D5400005F07DBD1820606300222046BDE8104034
:10D5500000219DE738B50446258FDDB1FFF7C0FBFC
:10D56000A84208D1206890F95400042304F13C0239
:10D570000C2106F015F940F20A612046FEF7A6F8E4
:10D5800000F009F80346022229462046FFF70CFC6A
:10D590000020208731BD29462046FFF751B92DE9EB
:10D5A000F04104460D46164698462846FFF783F894
:10D5B0000746FFF7F0FFF90607D5C10705D500F0CC
:10D5C00097F805F045FD88B111E0B90611D580073F
:10D5D0000FD5208F68B900F08BF805F04DFD30B9FC
:10D5E000258740F20A612046FEF767F80020BDE873
:10D5F000F08140F28110FAE72DE9F84304460D4628
:10D6000090469946002600272CB1E069012808BF02
:10D6100040F2031029D02846FFF74DF83021084288
:10D6200008BF4FF4C07020D044B90126002002E0AA
:10D6300000B901272046FEF7CDF8044674B1E06931
:10D64000012809D04B46424629462046FFF7A7FF4E
:10D65000002EEDD110B108E0002EEBD187F00100D3
:10D66000064214BF40F281100020BDE8F283F8B5F5
:10D6700004460D46E069012816461F4600D13CE0ED
:10D68000FFF7C6FE00B93BE0606B0A2818BF0C2804
:10D6900007D1069800903B4600F02BF8FFF797FD66
:10D6A000F2BD40F28110F2BDF8B504460027E069F2
:10D6B00001280D46164600D11FE0FFF7A9FE00B96C
:10D6C0001EE0606B122804D0182807D0522803D01F
:10D6D0000AE0FFF76BFE05E0676307E000F009F87A
:10D6E000FFF7D6FE074601E040F281173846F2BD4B
:10D6F0004346324629462046704740F20310F2BDA9
:10D700004FF4C070F2BD2DE9FC410446FFF7E8FA82
:10D71000054620480088ADF802000DF10201022004
:10D72000FEF72BFF0126074624E001AB6A4631468F
:10D730002046FFF7A3F9019901291AD0BDF800107E
:10D74000032916DB10F8011F407851EA002810D099
:10D75000A84504D14146204600F01EF848B941468C
:10D76000FFF71AFF28B10346012241462046FFF782
:10D770001BFB761CB0B2FEF793FF38B13A464FF66A
:10D78000FF71B0B2FFF761FA0600CED1BDE8F381B8
:10D79000645700008AB500002DE9F04307460025D4
:10D7A00083B0002F0C460CBF0126002614B9FFF7EA
:10D7B00097FA04460CB9002036E00120ADF80000CD
:10D7C0004FF6FF70ADF802001EB13846FEF702F8C2
:10D7D000074647B3F869032818BF042821D121461A
:10D7E0003846FFF72DF802281BD1386890F954000D
:10D7F000042301AA0C2106F013F88046FDF7D1FEA0
:10D80000B8F1000F814602D00198814509D0042368
:10D810006A4621463846FFF7C2FE10B9C7F83C9069
:10D820006D1C002ED1D1E8B2BDE8FE8372B6DFF8E0
:10D83000A40A016811F1010F1CBF491C01600068B6
:10D840007047DFF8901A086818B1401E086000D1D0
:10D8500062B6704700234372931C837200F8101F56
:10D860004270704770B516460D461A1D0446D2B276
:10D870000E21FFF7EFFF00F040F90121A0F803505F
:10D880004671817070BD38B50D4604463E21FFF7E4
:10D89000E1FF607A0019857431BD002343720623CD
:10D8A00083720F2300F8103F81800423437082703D
:10D8B0000123C3707047816841F00401816006F064
:10D8C00054B810B504460023E2E2DFF80C0AF9F779
:10D8D00061BE38B5DFF8004A2046F9F72EFF050093
:10D8E00013D0206818B14FF00040FDF78DF8A868FC
:10D8F000C0F38000002828461CBFBDE8324000F07D
:10D9000025B8BDE8324000F077BC31BD10B5044603
:10D910000EE010B500F056F9008AC0F3013000287F
:10D9200014BF00200220A16821F002010843A0607A
:10D93000FFF77CFF2146DFF8A009F9F711FF4FF050
:10D940000040FDF761F8BDE810407AE7417A091818
:10D9500040F20642098A891A48D040F2FB72891ABD
:10D9600046D0891E43D0323965D04FF47572891A7A
:10D9700042D04FF47F72891A54D040F6FC32891A93
:10D980003BD0491F3DD0891E3CD0491E3BD0491E8B
:10D990003AD0491E39D0491E38D0491E37D0491EC9
:10D9A00036D0491F35D0C91E3DD0491E32D0491E40
:10D9B00031D0491E30D0491E2FD0491E2ED0891E8D
:10D9C0002DD0491E2CD0491E2BD0C91E2CD0891E0B
:10D9D0002BD04DF6DF32891A2BD0491E26D0491E96
:10D9E00025D0491E24D0491E24D024E025E040E063
:10D9F000002240F6014103E046E0002242F201012C
:10DA00005FE756E1E2E07CE043E16DE187E10AE2B5
:10DA1000F7E1CCE159E048E080E0BCE0A3E095E12B
:10DA2000A4E1B5E174E25BE23EE226E2E2E0EDE091
:10DA3000FDE06FE316E1F9F704BD70B5044600F0B0
:10DA40005CF84579B0F80300FBF79FFA060009D0AF
:10DA5000FFF7ECFE2946304601F030F90546FFF7A6
:10DA6000F0FE00E00225EAB240F2064100F0C7F9FC
:10DA700068E210B5044601F039FC2046BDE81040CC
:10DA8000002240F603411CE710B50446062300229D
:10DA900041F20901FFF7E6FEA07ADFF8401800190D
:10DAA00006220A30F8F7B6FAF4E110B50446082366
:10DAB000002242F21801FFF7D5FEA07A001900F10A
:10DAC0000801082005F0A5FFE4E11FB504466946FA
:10DAD00000F013F8C21C133001F01FFE10230022C7
:10DAE00042F2170100F0FAF9A07A102269460019F3
:10DAF000F8F790FA00F07DFB1FBD607A0019103036
:10DB0000704710B500F06FF8012006F010F92046BC
:10DB1000BDE81040002242F20901D2E670B500F0E3
:10DB200051F8B0F813500220F9F738FC060006D17E
:10DB3000072242F2130100F062F9204612E0284663
:10DB4000FBF723FA18B1214600F0F5FF03E0204669
:10DB5000F9F777FC0220C2B242F219013046FFF712
:10DB60009CFE3046EFE110B500F00EF820B1002128
:10DB700001F063F8024600E002222046BDE81040B2
:10DB8000D2B242F21B019CE60446607A0019B0F85A
:10DB90001300FBF7FAB938B500F014F800F11005DE
:10DBA000B5F80300FBF7F1F920B1691D01F045F864
:10DBB000024600E002222046BDE83840D2B242F2DE
:10DBC0001A017EE60446607A0019704710B500F02D
:10DBD0000AF8002006F0ABF82046BDE8104000220D
:10DBE00042F208016DE60446607A00191030011D0A
:10DBF000C278704710B500F051F906F0A8F8204639
:10DC0000BDE8104000224FF604415AE670B500F01E
:10DC10001FF800280EBF0225D6F80510FBF7F8FF05
:10DC20002A462046BDE870404FF6054149E670B5EA
:10DC300000F00EF800280EBF0225D6F80510FBF7FD
:10DC4000EEFF2A462046BDE870404FF6064138E612
:10DC500004460025607A001900F11006B6F80300AA
:10DC6000FBF793B938B504460025FFF746FFC178A6
:10DC7000012906D1406800B10120C0B201F064FA68
:10DC800000B912252A462046BDE838404FF6074124
:10DC900017E610B5FFF796FFC07C06F071F8002874
:10DCA00014BF002207222046BDE8104042F20A01BC
:10DCB00007E61FB500F045F8817B0391417B029197
:10DCC000C11D0191817900914379027941880088D1
:10DCD00006F012F800B10C200246204604B0BDE860
:10DCE000104042F20601ECE510B5044682B0607ABD
:10DCF00000191330817900914379B0F80320B0F80E
:10DD00000110007806F0A2F9002814BF00220C22AE
:10DD1000204602B0BDE8104042F20B01D1E510B53B
:10DD200000F00FF8417801B10121007800B1012025
:10DD300006F0D4F92046BDE81040002242F20C0162
:10DD4000BFE50446607A00191330704710B5FFF73D
:10DD500039FFC07C06F0FEFD002814BF00220C2213
:10DD60002046BDE8104042F21D01AAE510B5FFF7BC
:10DD7000E8FF82784178007806F0B9FD002814BFEA
:10DD800000220C222046BDE8104042F21E0198E518
:10DD900038B5044606F00AFE05460223002242F288
:10DDA0001F0100F09BF8607A0019C58292E0F8B577
:10DDB000044642F21306FFF7E8FE050001D10222F5
:10DDC00005E00220F9F7EAFA070005D107223146FB
:10DDD00000F015F8204611E0607AC01C6072FFF771
:10DDE00025FD2146284600F09BFD0446FFF729FD4E
:10DDF000E2B231463846FFF750FD38463AE0204659
:10DE00004BE510B50446FFF711FD06F057F9002861
:10DE100014BF00220C2242F20E012046FFF751FDF2
:10DE200006F03CF98FE5F8B50446FBF768FB0546BC
:10DE30000220F9F7B3FA060042F20D0703D065B9E4
:10DE4000F9F7FFFA03E015B12846FBF777FB072245
:10DE50003946FFF7D4FF20460CE0607AC01C6072A0
:10DE60002946204606F010FCC2B239463046FFF77C
:10DE700014FD3046BDE8F2401DE510B500F00EF887
:10DE8000C0B2FBF781FE0023002242F224012046AB
:10DE9000FFF7E8FC2046BDE810400CE50446607A38
:10DEA0000019B0F81300704738B5FFF76DFE05464E
:10DEB00002224DB100F09CF828B10146284600F03E
:10DEC000F6FD024600E007220023D2B242F2220110
:10DED00000F004F82046BDE83240ECE42046C1E4FE
:10DEE00070B504460225FFF750FE064600F080F8A4
:10DEF0000CB9072505E026B10146304600F079FD52
:10DF00000546EAB22046BDE8704042F21601D8E468
:10DF100070B504467F26607A0019B0F81350284681
:10DF2000FBF733F820B1FAF7CDFF0646002200E0F8
:10DF30000222032341F20541FFF7D0FFFFF7DDFD89
:10DF4000C58006722046BDE87040B4E42DE9F0417A
:10DF500004460D4616461F4600F04AF85FEA0008E0
:10DF600011D00A220321FFF78EFC98F809004044E3
:10DF700010300021C1708480C580068147814046F1
:10DF8000FFF799FC0120BDE8F0812DE9F843074631
:10DF900088461646994600F02BF8040008BF00207A
:10DFA00024D013220121FFF76EFC607A001900F1E2
:10DFB00010050C98E870AF805FEA080018BF0120D8
:10DFC000A8714946300018BF0120E871062205F10A
:10DFD0000800F8F71FF80898E881099828820A983D
:10DFE00068820B98287500F004F90120BDE8F283DF
:10DFF0000120F9F7D3B92DE9F04100F072F85FEA9A
:10E00000000808BF002014D00C220421FFF73BFCBD
:10E0100098F80900404400F110070821BC80BC1D9D
:10E020002046FDF7C7F92570FE704046FFF743FC18
:10E030000120BDE8F08170B500F09FF8060001D125
:10E04000002070BD04220821FFF704FC707A8019BB
:10E050001030691E8941C90FA0F8034041718570D5
:10E0600086E02DE9F04105460E4617469846FFF733
:10E07000BFFF040008BF002015D00B220721FFF7C7
:10E0800002FC607A001900F11001A1F80350A1F818
:10E090000560A1F80770A1F809800698A1F80B00A7
:10E0A00000F0A7F80120BDE8F081F8B500F019F8FC
:10E0B000070001D10020F2BD0D220521FFF7E3FB8F
:10E0C000787AC0191030A0F80340A0F80D5008224B
:10E0D0003146401DF7F79EFF3846FFF7ECFB012065
:10E0E000F2BD04460D4616460120F9F757B910B5A2
:10E0F000FFF77EFF040001D1002010BD0122FF21A7
:10E10000FFF7A8FB617A09190020887400F071F804
:10E11000012010BD38B504460020607204F11005DE
:10E120000220A07213202870FFF780FBE81CFBF789
:10E13000B7FDA870FFF785FBA8788000401C6870C9
:10E140006978A07A0818A072C4E670B500F015F8D6
:10E15000060001D1002070BD04220521FFF77AFBE3
:10E16000707A801910300021A0F803404571817049
:10E170003046FFF7A0FB012070BD04460D4601208C
:10E18000F9F70CB92DE9FC470D4691469A465449DA
:10E1900080460CC968460CC00A9CA07A617A461A6F
:10E1A0000D212046F9F73BFA607A00193E2100F86C
:10E1B000101F071D06F10C0141700622022181701B
:10E1C0000121C170494618F80D0038707D70B81CE7
:10E1D000F7F720FF3E72A07A001980F810A0A07A0D
:10E1E000401CA0722046F9F757FB00F002F8BDE88A
:10E1F000F3872046FFF75FBB2DE9F0470446A06890
:10E20000400800F00105607A0019067C3046FAF7F4
:10E21000BCFE5FEA000904D12046BDE8F047F9F7EB
:10E2200010B9A06820F00400A060607A001D607240
:10E230004846FBF7C3FC804625E0A07A617A401A85
:10E24000C2468045C8BF8246022078725246607A34
:10E25000001900F1100107F11200F7F7DBFE787AE0
:10E260005044B872607A50446072A068B96840083F
:10E2700060F34101B9603946A06820F00200A06057
:10E280004846FBF7F6FBA07A617A401A804519DA16
:10E290000020F9F783F80700CFD1607A001F607281
:10E2A000C0B2001930F8101F01F4704131430180F1
:10E2B0002146A06865F34100A060BDE8F04706482C
:10E2C000F9F7A4BA21464846BDE8F047FBF7D1BBB1
:10E2D0000000000054080020500C00201809002005
:10E2E0003457000005F05CBB72B6DFF8200C016803
:10E2F00011F1010F1CBF491C016000687047DFF875
:10E300000C1C086818B1401E086000D162B6704746
:10E310000A43104088420CBF01200020704750E89B
:10E32000002F0A4340E80023002BF8D1704750E843
:10E33000002F8A4340E80023002BF8D17047F8B53E
:10E3400004460D4601260027012002E0781E804188
:10E35000C00F2146FAF7A7FD836819000ED0018A85
:10E360008D4202D10022012104E00078C00705D5CA
:10E37000002200212046984700B900267F1C022F6A
:10E38000E4DB3046F2BD38B500F0A4FB00072946B7
:10E39000204644BFBDE8344000F022B9BDE8344017
:10E3A000BAE0F8B500F04AFD317802290DD007290E
:10E3B00049D0092900F085800C291AD00D2930D0C8
:10E3C00014294ED0152969D091E0717800F0A9FC8C
:10E3D000202100F0ABFC00F05AFA00F0AAFC01206A
:10E3E000009000230FF229522146002000F0C7FDC3
:10E3F0006EE000F023FB80056AD4022068724FF4BF
:10E40000007100F093FC687A40190C2100F8101F8D
:10E41000052240F2FF2141800821417001218180C5
:10E4200069E000F00BFBC00800F00100214680F01D
:10E430000100FAF738FD00F0FCFABB6818005FD065
:10E440003246032108E000F0C7F800F0F2FABB689A
:10E45000180055D032460421204601B0BDE8F040F6
:10E46000184700F053F800F04CF80646802100F001
:10E470005DFC324639462046FBF7A3FB687A40191B
:10E4800010301522411C02702A2008802A228A801E
:10E490004FF4E0704880C88008222CE000F09CF81F
:10E4A0000FF2C1318068884212D1687A401900F0B9
:10E4B0002DF800F026F8024639462046FBF781FB8E
:10E4C0000DE000F089F80FF281318068884200D0B9
:10E4D000F8E0707800F029012046FBF784FB00F09B
:10E4E000AAFA2146BDE8F440012000F06CBD0720E7
:10E4F00030707170012229462046BDE8F840E6E000
:10E50000F1BD0746F188B0882A22EAE000F1110641
:10E51000718830882A22E4E038B500F0CEF8007C1B
:10E5200004280BD0052818D0062827D00B282ED079
:10E530000E2820464DD1BDE83440E2E000F0F4FB67
:10E54000687A4019103000F10903421C00F0F1FC18
:10E550002846BDE83240F8F774BF00F03DF800F1FE
:10E560001201204601F05CF902206872294606205B
:10E57000A87400222046BDE83840A8E000F05BFA0D
:10E5800000F085F92046BDE8324001F033B900F0D3
:10E59000CBFB4FF440412046FAF792FC00F089F89B
:10E5A00000F01AF80546E86880B1417A0818103082
:10E5B00000F1130300F10B02012100F0BBFC204627
:10E5C00001F0FEF8E968162200F076FB0020E86012
:10E5D00031BDBDE83440E4E621460120FAF763BCD2
:10E5E000F8B500F06AF8017C61B1012914D0032963
:10E5F0002AD0062942D0082909D00A292AD00B2975
:10E6000033D051E029462046BDE8F440BBE329461B
:10E610002046BDE8F44074E000F110062046F18881
:10E6200000F09FFB0746701CFAF7D6FF002818BFC2
:10E63000002F00D146E000F0FDFB0FF2191200F0B0
:10E6400073FCF38800F0F3BB29462046BDE8F44094
:10E6500000F0FBBB0B21017400F02BF84FF4C0510C
:10E6600000F064FB4FF4004103E000F0E4F94FF4E4
:10E6700080412046BDE8F440FAF722BC0220A8728F
:10E6800068720221A86840F00400A86049190620B9
:10E69000087400F00EF8204601F0ACF82146BDE801
:10E6A000F440002000F08FBC29462046BDE8F4402D
:10E6B00077E600222946204609E00D460446687A9E
:10E6C000401970472846BDE8F240F8F7BABE4B7AC9
:10E6D000D218521C8A728A6842F004028A60FBF7E0
:10E6E000C8B970398B1001EB5373DB108342B8BF8C
:10E6F00098B28242B8BF10461B28B8BF1B20C0B2D8
:10E70000704770B5FFF7D9FF407C00F0290631460D
:10E710002046FBF768FA02206872092105F1120011
:10E7200008220170C0F801600021C0F805102046E1
:10E730002946BDE87040CAE780B5012904D12221ED
:10E74000FAF712FC002002BDFAF7FBFB00B1012032
:10E7500002BD000070B504460D4600F06BFB012DB4
:10E76000064602D0022D11D015E0F068417A081853
:10E7700000F111012046FAF748FFF068F8F761FE52
:10E780000020F060214600F01EFC04E0F068F8F77D
:10E7900058FE0020F060012070BD2DE9F04182B0EC
:10E7A00000F098F900F0A8F80746F868417A0918CF
:10E7B000012D01F1100602D0022D11D014E0707865
:10E7C00042007088410089B22046FAF79BFB00F0B6
:10E7D000ACFB73890FF21902404600F0D0FB03E056
:10E7E000F8F72FFE0020F8600120BDE8F681000058
:10E7F000F8B500F06FF9C00800F0010080F00107E3
:10E8000021463846FAF74FFB0646F068417A091868
:10E810001031012D02D0022D10D013E00B89CA88CF
:10E8200089882046FAF7A8FEF068F8F70AFE00206B
:10E83000F0602146384600F0C6FB03E0F8F701FE21
:10E840000020F0600120F2BD10B50129044606D079
:10E85000042902BF2146012000F07FFB00E00FE009
:10E86000012010BD10B50129044606D0042902BFBD
:10E870002146012000F071FB00E001E0012010BD05
:10E880002221FAF771FB00F002F8002010BD2146AA
:10E89000012062E32DE9F04104460D461646FAF7E1
:10E8A0000BFB00F029F8012D074602D0032D0CD0F8
:10E8B0001FE0204600F0A9FF222100F032FA214695
:10E8C000404600F04AFB002014E0F868F8F7B9FD74
:10E8D0000020F860204600F098FFF1B200F021FA25
:10E8E0004FF000612046FAF742FB2146404600F017
:10E8F00034FB0120BDE8F081C00800F0010080F089
:10E90000010821464046FAF7CEBA002070470000C1
:10E9100080B5FAF7D1FA10F0400018BF012002BD0F
:10E9200038B500F0D7F800F03800102800D012E118
:10E9300029462046BDE838400FF205028DE300006D
:10E940002DE9F041804686B00D4600F0A8F906009A
:10E9500008BF072047D0687A401900F110010E2245
:10E9600001A8F7F757FB0220B07270720221B0685D
:10E9700040F00400B0600220801900F11007002070
:10E9800038704046FAF7A1FA7881BDF80A00F8809D
:10E99000BDF80C003881BDF80840BC8000F0C4FC14
:10E9A000611C90FBF1F201FB12007880172202201B
:10E9B000787006F1100105F11000F7F73BFB707A53
:10E9C00068724146FFF709FEDFF84425C560002064
:10E9D000009041467889431E9BB200F0AAF80B22B2
:10E9E00000F004F8002006B0BDE8F0813146404652
:10E9F0006DE670B504460D46FFF7EEFD064600F0E5
:10EA00001DF8000307D500F016F84FF0805120469E
:10EA1000FAF7ADFA04E03078400703D500F00BF8C0
:10EA2000002070BD29462046BDE870400FF2150257
:10EA300013E3074676782846F8F703BD2046FAF731
:10EA40003BBA000070B504460D4682B0FFF7C4FD26
:10EA5000016841F0040101600220A8726872A86890
:10EA600040F00400A8600220401900F11006FFF7F2
:10EA7000E5FF00074CBF0E20082030700822002060
:10EA8000C6F8050029462920C6F8010000F014F94F
:10EA900000F009F8034600F048FADFF8782400F0A7
:10EAA00048F8002076BD03212046FAF70EBA38B5A3
:10EAB00000F010F8000603D5FFF7BDFF002032BDBF
:10EAC000802100F033F929462046BDE838400FF296
:10EAD0000D02C2E204460D46FAF7EEB910B504463F
:10EAE00082B00220887248721422886840F00400C4
:10EAF00088602A230220401800F8102F2A22A0F84C
:10EB00000120A0F805304FF4E072A0F80320A0F82F
:10EB1000072020460822FFF7DAFDFFF7C4FF002197
:10EB200000910346DFF8F023214600F002F80020B0
:10EB300016BD012023E238B5FFF7CCFF08221021D3
:10EB4000FFF7E6FB00B906E029462046BDE838405D
:10EB50000FF20D0281E2FFF76EFF0C2032BD0000C4
:10EB60002DE9FF4180460D46FAF7A6F900224FF441
:10EB70004041FFF7CDFB002628B100F090F80600D9
:10EB800008BF072056D04146FFF727FD0746687AA1
:10EB9000401900F11F01102207F11200F7F73AFAAD
:10EBA000687A001D687201A90A30A872687A401953
:10EBB00000F11004032020700C2004F02AFF08222A
:10EBC00001A904F10B00F7F725FA042203A904F1C7
:10EBD0001300F7F71FFA6EB100F064F80A2008740A
:10EBE0000022FFF703FFFD604FF400614046FAF793
:10EBF00065F913E00020F8F724FC04F1130304F195
:10EC00000B020121404600F0B0FD16222946FFF715
:10EC1000EEFE0020F860404600F0D2FD03214046A1
:10EC2000FAF753F90346002000904146BB4AFFF72C
:10EC300080FF002004B0BDE8F08170B5FFF74AFF07
:10EC4000800401D40C2070BD00F029F8060001D129
:10EC5000072070BDFFF748FB65B100F023F80520E1
:10EC600008740022314600F027F82946204600F0BB
:10EC7000D7FD10E0707A80190D2100F8101F0122D5
:10EC80000621417020463146FFF721FD204600F065
:10EC9000BCFD00F04EF8FFF732FB002070BD0220F3
:10ECA000F8F77CBB0220B07270720221B06840F0AD
:10ECB0000400B06089197047204608E570B582B03D
:10ECC000FFF708FF022600F03000102827D1FFF7D9
:10ECD000E6FF08B9072076BD816841F00401816034
:10ECE0000222417A0918002601F8102F4D700146C2
:10ECF0000122FFF7E1FF162100F013F8202100F0B8
:10ED000015F8FFF7C4FD00F014F80121FFF7CCFE61
:10ED10000346012000902146814A00F030F9304638
:10ED200076BD2046FAF720B94FF480512046FAF715
:10ED3000C5B82146002010E138B50D460446202113
:10ED4000FAF7BCF82946FFF7ECFFFFF7A0FDFFF745
:10ED5000F0FF012000900023724A214600F00FF9D5
:10ED600031BD10B50446FAF7A7F8800604D400F0C8
:10ED700061F80068022801D1002010BD0021FFF7D2
:10ED800093FE012010BDF8B500F058F8771C20461E
:10ED9000B7F80910FFF7E5FFB7F80320B7F801103F
:10EDA0008A4238BF002011460823A1F1010CBCF1B2
:10EDB000090FA8BF531E97F800C09BB26345B8BFA8
:10EDC0000020BCF1000F08BF0020921F40F67B43DB
:10EDD0009A4228BF0020B7F807204FEAC20C9CFBDC
:10EDE000F1FCACF101031FFA83FCBCF5FA7FC8BF4C
:10EDF0004FF4FA7CB7F80570BC4538BF00207F1C83
:10EE000079434900C91DC9080A2938BF0A218A4225
:10EE100003D3B2F5486F00DC00B953E400F00AF800
:10EE20003B4A00F081F87089431E9BB2002000F03D
:10EE3000A6F8F1BD21460020FAF735B80D46044684
:10EE4000687A401900F11006704770B588B0FFF776
:10EE500041FE800602D5FFF7EEFD54E0687A4019C6
:10EE600000F1100606F1090001A902780A70427843
:10EE70004A70711C082202A8F7F7CCF806F11303B8
:10EE800006F10B02012100F055F80220687205F12D
:10EE900012060420307004A90C2004F0BAFD0822E8
:10EEA00004A9701CF7F7B6F8042206A906F10900B8
:10EEB000F7F7B0F806F10903721C00F03AF8FFF713
:10EEC000B9FF01A9123000F108020B7813704B78DA
:10EED0005370082202A9F7F79DF84FF00071204601
:10EEE000FAF745F8FFF720FF204600F069FC0C22F6
:10EEF0002946FFF7E1FEFFF7D6FD034600F015F8BF
:10EF0000064A00F03CF808B070BD0000540800202C
:10EF10009BE7000049E8000065E8000095E8000074
:10EF200039E700000BE90000C56000200090214691
:10EF300070470021204600F018BC38B50446FFF7A2
:10EF400079FF00F112052046FAF72EF829892A46A2
:10EF5000BDE8384080B2FFF7A8B838B504460D4682
:10EF6000F9F7A1FF8368180008D000220221284683
:10EF7000984729462046BDE8344024E031BD70B5AD
:10EF800014461D46F9F78FFF0646FFF7ADF90498C2
:10EF900020B101213046FFF7C2F903E001213046DC
:10EFA000FFF7C5F9200004D002213046FFF7B7F97A
:10EFB00003E002213046FFF7BAF9B4603582BDE8BC
:10EFC0007040FFF79CB970B582B004460D46F9F762
:10EFD0006AFF0646002000900023002229462046B2
:10EFE000FFF7CDFF002C1CBF706800280AD04FF03F
:10EFF00080412846F9F7BBFF3046BDE87C4002213E
:10F00000FFF78DB973BDF8B506460C463146FFF7DC
:10F01000E4FA054631460020F9F745FF01462B6822
:10F020000A6842EA0300C00701D50120F2BD4FF68D
:10F03000FF7630469B0744BF288A001B374692075D
:10F0400044BF098A0F1BBFB280B2B842C8BF38465E
:10F05000B04208BF4FF0FF30F2BDF8B506460C468F
:10F0600017463146FFF7B9FA0546FFF73DF928780C
:10F07000800713D504212046F8F7ADFA0097042243
:10F08000607A001969461030F6F7C4FF2146281D42
:10F09000F8F766FBFFF733F90020F2BDFFF72FF911
:10F0A00021463046B847F2BD38B50446FFF794FA1A
:10F0B000054605F10C00F8F76DFA281DF8F76AFA15
:10F0C000FFF7B8FE044604F10C00F8F763FA201DC0
:10F0D000BDE83240F8F75EBA70B5044682B0FFF77B
:10F0E0007BFA0546281DF8F728FB060017D00221F9
:10F0F0002846FFF71CF9707A801900F110010422EC
:10F100006846F6F787FF707A001D70723146009AE4
:10F1100020469047072804BF3046F8F792F973BDA0
:10F12000890001EB401000F1085002607047012295
:10F13000F6E70022F4E710B5044605F087FC001B53
:10F14000C00F80F0010010BD38B5DFF8B0530446A1
:10F150002878844201D1002032BD44B1204600F01D
:10F1600080FA01214FF0004005F0E9FE04E005F0CF
:10F1700009FF002000F075FA2C70012032BDDFF885
:10F1800080130A7A52074CBF042200220A610068E9
:10F190004860042000F0A7BADFF864230021116161
:10F1A000800744BF082000F09EBA704710B5DFF812
:10F1B00050130A7A92074CBF032200220A61427A56
:10F1C000121852F8103F148903EBC4034B6000F18E
:10F1D0001003097B9171117901F001011171002176
:10F1E000417202F10A011289C91A5118817205206F
:10F1F000BDE8104000F077BAC14A0021116110F457
:10F20000407F18BF0A2006D1C10648BF072002D49C
:10F21000800602D5092000F066BA70477047704733
:10F2200038B5B74C25680120F8F7B8F820600028F9
:10F230000CBF2560284632BD10B50024B04A30B15D
:10F24000022102F10800FFF772FF012404E002210D
:10F2500002F10800FFF76DFF2046BDE810400021D5
:10F2600005F07CBF10B50024A54A30B1012102F1A0
:10F270000800FFF75CFF022404E0012102F108000E
:10F28000FFF757FF2046BDE810400122002105F09E
:10F2900079BF80B59A49002008610121022005F05C
:10F2A00023FF0020FFF7C8FFBDE802400020D9E798
:10F2B00010B59448924C05F00BFF934805F0A0FB65
:10F2C000924805F0A5FB01214FF44C7005F073FF47
:10F2D0008F4805F0C2FB206818B90120F8F75EF8E6
:10F2E0002060BDE8104005F089BF704780B5FFF78A
:10F2F000D0FFBDE80140DBE78148006870477047F8
:10F30000427A1018081810307047704738B5044614
:10F310000D4605E02946204605F0BAFB04192D1AD2
:10F32000EDB2002DF6D131BD05F092BF05F08EBBD8
:10F330000A46002808BF05F025BE0021104605F04A
:10F34000FEBD00F0DAB910B50C4611466C4A1073D8
:10F35000507302462046BDE81040012305F058BF17
:10F3600010B5044608461146654A234614730B2C13
:10F37000B8BF631C0DDB252CB8BFA31C09DB08BF7D
:10F38000002306D0262C08BF0C2302D0272C18BF40
:10F39000FF2353732246BDE81040002305F038BF19
:10F3A00070B50646564C86B0012020610D4605F02A
:10F3B0004DFB281A3C2810DB3046FFF753FF58B9A5
:10F3C00000900295012001906946002003900120E1
:10F3D0008DF8100000F029F808B100F04DF806B0E3
:10F3E00070BDF0B50646464C85B0012020610F4641
:10F3F000154607F13C00FFF79EFE88B93046FFF73F
:10F4000031FF68B9A7F13200009002950020019009
:10F410000390694601208DF81000002000F005F8E7
:10F4200008B100F029F805B0F0BD8DF81100607B3F
:10F4300005F0CEBE10B50446314801210161406897
:10F440008A30FFF778FE10B92046FFF70BFF00B1B6
:10F4500024E010BD00B583B0417A09181031009145
:10F46000817A407A081AADF80400684601F06CFB16
:10F4700008B100F001F807BD0B2000F034B910B559
:10F480001F4C02212161FFF7D7FE20B9607B0022CB
:10F49000002101F05BFB00B100E010BDBDE81040B1
:10F4A0000B2000F020B97CB50446154E02203061D7
:10F4B0000D4605F13C00FFF73EFE50B92046FFF730
:10F4C000BBFE30B9019000956A46707B114901F08E
:10F4D0003DFB08B1FFF7D0FF73BD10B504460848E7
:10F4E0000221016140688C30FFF725FE10B92046EB
:10F4F000FFF7A2FE00B1D1E710BD00009814002074
:10F50000540C00203C5700009C5800005457000049
:10F510005C570000594E0100F8E6012070470000DA
:10F52000890001EB401000F1085002607047012291
:10F53000F6E70022F4E77648C068DC38704780B50B
:10F54000FFF7F4FE7249C968081ADC3802BD10B52D
:10F550006F4C2168CA0607D521F01001216018B947
:10F56000A168CA69022090470020A0602068810736
:10F5700008D520F0020020600021BDE810400020E6
:10F58000FFF7D6BE10BD38B5044600202060636882
:10F590005F48051D00E00D46296871B14A68D21A1E
:10F5A000F9D4216080682968884206D1087E217ECE
:10F5B00088423CBF0020FFF7CAFF2C6031BD38B540
:10F5C0000446534D0846A968A14208BFFFF7BFFF94
:10F5D000281D00E00846016819B1A142FAD1096866
:10F5E000016031BDF8B54A4C6568002D37D0FFF792
:10F5F0009DFEAB686E6895F814C02A69F71A3F1A29
:10F600005FEACC7C11460AD4002F08D5D219EF68E6
:10F61000D71B04D4711818186860091A01E0002F6C
:10F6200013D4286801E0114600686A68531890B145
:10F6300042689A1A012A0EDBEB688A1ADC339A4276
:10F64000F1D22A7E037E9A42EED2EA69294603204D
:10F6500090470020F2BD03F1DC00E060A5600120CE
:10F66000F2BD10B52A4C28B102212046FFF75FFFFA
:10F67000022006E002212046FFF75BFFA06818B1D8
:10F680000320BDE810402EE0BDE8104038B5204C06
:10F690002078400726D4A06820BB02212046FFF72F
:10F6A00046FFFFF79FFF0028FBD002212046FFF70F
:10F6B00040FFA568B5B1A86838B1206840F01000D7
:10F6C00020602946EA6900209047287D800709D4F8
:10F6D000206840F00200206001206968BDE83440E5
:10F6E000FFF726BE31BD0A49896800291CBFCA69D7
:10F6F000104770470648806870470548016821F048
:10F70000020141F0100101600120ECE7000000005F
:10F71000680C0020874805F0A1BD70B588B00C4684
:10F72000002104AE4B429D181B18ED7B8D55DB7BF1
:10F7300001F80D30491C1029F4DB05F0F4FD80229E
:10F7400004A905F009FE05F0EEFD6B466A460121AD
:10F7500005F013FE0028F0D1ADEB0001C97B015587
:10F76000401C1028F8DB08B070BDF8B50C461546F3
:10F770001E46F9F79FFB074674B108222946F6F7A3
:10F7800049FC0422314607F12500F6F743FC042228
:10F79000314607F115000FE00822294607F108005D
:10F7A000F6F738FC0422314607F12900F6F732FC5F
:10F7B0000422314607F11900BDE8F840F6F72ABCEB
:10F7C00038B50546F9F776FB04464FF42051284634
:10F7D000F9F774FB002044F8100F207120612075A8
:10F7E0002846F9F769FB000747BF80202071802079
:10F7F000207531BD10B50446FAF754FA2046BDE82D
:10F8000010404FF08061F9F7B2BB10B504464FF4D9
:10F810006041F9F755FB2046BDE81040FAF742BABF
:10F82000F0B585B006460F46F9F744FB054672B6BB
:10F83000414C206810F1010F1CBF401C20604FF4A8
:10F8400040413046F9F73AFB4FF400513046F9F7A2
:10F8500037FB3A4669462846FFF75FFF002010F85D
:10F860000D102A1A401C1028D173F8DB206818B13B
:10F87000401E206000D162B605B0F0BDF0B583B087
:10F880000C461546F9F716FB0646A07A617A401A2F
:10F890001FD0284F802332460221384605F0F2FC63
:10F8A000607AA17A00950A1A001911181031019195
:10F8B000203600F110013346384605F0FFFCA07AEF
:10F8C000001DA0723068401C306002D13079401CAD
:10F8D0003071F7BDF0B583B00E461546F9F7EAFA78
:10F8E0000446B07A717A411A052918DB001FB072FC
:10F8F0008023104F22460221384605F0C3FC707A5F
:10F90000B17A00950A1A801911181031019104F189
:10F91000100300F11001384605F0E0FC08B10020AA
:10F92000FEBD2069401C206102D1207D401C207555
:10F930000120FEBD340B0020540800201B4213D1CF
:10F94000094236D12AB18446B0FBF2F002FB10C264
:10F95000704705F095BDFCD30022002370470B00D3
:10F960000200002100207047904271EB030CF6D397
:10F9700070B5B1FA81F4B3FA83F52C1BA340C4F13E
:10F98000200532FA05F63343A2405FF00046E64018
:10F9900002E05B085FEA3202841A71EB030524BFC0
:10F9A000204629467641F4D302000B0030000021A6
:10F9B00070BD012ACFD970B5140C20D0B1FA81F4F2
:10F9C000B2FA82F5C4F120046419B4F12006D6D34A
:10F9D000B2405FF00044F440002502E052085FEAC4
:10F9E0003303C61A71EB020E24BF304671466441E0
:10F9F0006D41F3D302000B002000290070BD0C46BE
:10FA0000B1FBF2F102FB11452D0445EA1045B5FBAF
:10FA1000F2F402FB145580B240EA0545B5FBF2F062
:10FA200002FB105240EA044070BD000000B970476C
:10FA300010B5046C230003D013460A460021A047EA
:10FA400010BD00224FF00111F0E700224FF4803189
:10FA5000ECE70A460849E9E768B1016419B10749CA
:10FA6000074A084B01E000220023016143610021A5
:10FA7000C260816041607047030001004BFA0000E2
:10FA800043FA000053FA000010B50446F6F7C2FA34
:10FA9000204610BD890001EB401000F18440026057
:10FAA000704710B5040030D00121354805F0EAFC5C
:10FAB00001213448F6F704FD334960684860F822B4
:10FAC00032488260227A637C42EA0322637E42EA01
:10FAD000034242602268CAB902220A60072101601B
:10FAE0000023217E6069042200F0B1FC94F820100C
:10FAF000E0690023042200F0AAFC217CE068BDE854
:10FB000010400123042200F0A2BC10BD012A03D141
:10FB10000A6005210160E9E7022A04D105220A6092
:10FB200001210160E9E7032AE7D100220A600260AF
:10FB300010BDF8B5164C144E25687068002748B102
:10FB40000F4805F0B5FC716800EB5100B0FBF1F017
:10FB5000401E070200F007F830680E4929400843AC
:10FB600038432060F1BD0122FFE71E210A4891E7DA
:10FB700009490968002944BF084908607047000026
:10FB80000034060000250800500A002074000840D8
:10FB90007C000840FC00FFFF9440084080000840C3
:10FBA00070B5040048BFFDF794FE600048BF04F044
:10FBB00039FBA00048BFF9F7EEFEE00048BF04F0B3
:10FBC000D3F8200419D0A4B2002594FAA4F0B0FA16
:10FBD00080F0012101FA00F6C0B2F9F7D6F9B4437A
:10FBE00018B1F9F7F0F900B93543002CEDD125B182
:10FBF0002846BDE87040FAF707BF70BD80B5FFF733
:10FC000057FBFDF762FE04F047F804F00BFAF9F732
:10FC100051FCBDE80140FFF77DBD000080B5012A21
:10FC200003D100F02FF8012002BD002002BD38B53D
:10FC300004461D4D1D4900222846FBF7E9F974B121
:10FC4000002003F04EFE044605F09DFCE061C46117
:10FC50002846BDE8384000220121FBF7D3B9012036
:10FC600003F03FFE124C134900222046FBF7D0F967
:10FC7000002203212046FBF7C5F9BDE832400120F0
:10FC8000FBF7BBB810B50C4C102200212046F7F74B
:10FC900001FF2046FBF79AFABDE810400022054913
:10FCA0000348FBF7B5B90000680A00201DFC0000FE
:10FCB000E4090020D3FC0000580A002038B50446AF
:10FCC0000D462278611C2846FFF7DEFE2078286169
:10FCD00031BD2DE9F84317461C4605F0DFFCDFF87F
:10FCE0004055DFF84085D5F800C0DFF83C95DFF8D7
:10FCF0003C65FF1E39D07F1E5ED0FF1F00F00481DF
:10FD0000FC3F00F0C2807F1E00F0F6807F1E00F0F6
:10FD1000DA80F83F68D0BF1E77D0FF1E00F08F80DA
:10FD2000FC3F16D040F2FF403F1A00F02A817F1EB0
:10FD300000F003817F1E00F00B817F1E00F0128116
:10FD40007F1E00F01581FF1E40D07F1E00F026812F
:10FD500031E12068B0800023A088F0800022DFF825
:10FD6000D004306031460820CCE005F0B9FF48B13E
:10FD70000120706000234FF494603060002231460F
:10FD8000082012E00220B08000230020F0803081A3
:10FD9000002240F23F50708131460020B0810120A6
:10FDA000F081DFF89004306010202C68A047FBF74A
:10FDB00063FAA8F80000FEE02068B0800023DFF8B6
:10FDC000780430600022314606209BE02088B8F895
:10FDD0000010884207D10020A8F80000E01C41680C
:10FDE000006803F027FEE6E000F0FBF80700FAD019
:10FDF0002068C069102806D06068B080002397F89A
:10FE00003E0000F0E6F8384616E000F0EAF85FEA57
:10FE10000008E8D008F12007386980280ED1606812
:10FE2000B0800023B87F00F0D4F83868C0B201F089
:10FE300027F9FBF707FA4046FAF7ADF8BBE0206870
:10FE400090F82C0006F09DF80700F7D0206800F12C
:10FE500014010622301DFFF717FE2068C069B0723A
:10FE600031462068C06B012818BF0020F0720023C3
:10FE700097F83E0030730022206890F854007073A9
:10FE8000DFF8B80330600E2093E02078307106224E
:10FE900060787071A11CB01DFFF7F6FD207A3073F9
:10FEA00004F10B03607A7073A07AB0730B30010217
:10FEB00041EA102040F4403040F0A000306031466C
:10FEC000B27B0F2075E000F079F8002873D090F82D
:10FED0003E00307100236088A6F805000022A0884B
:10FEE000A6F807003146E088A6F80900207AF072EB
:10FEF000D34830600C205CE0D24830600023002200
:10FF000031460420E04756E000F058F8070052D090
:10FF1000207801F0B5F800281CBFC06910284AD02D
:10FF200097F83E0030710023607870710022A0784D
:10FF3000B0713146C44830602EE000F03FF8002830
:10FF400039D090F83E00307160787071BF482BE076
:10FF500000F04DF830710023BD483060002231467A
:10FF6000052026E000F043F800F02CF8B94804E042
:10FF700000F03DF800F026F8B7483060314609201F
:10FF800017E000F034F8307100236068A6F805002F
:10FF90000022B2483060314607200AE000F027F81E
:10FFA000307160687071AE483060002300223146C5
:10FFB00006202C68A0470020BDE8F283217880202D
:10FFC000FAF7D5B8307100236068C6F80500002242
:10FFD0007047B071C6F8009000222C6831460720A7
:10FFE0002047206890F82C108020FAF7C0B82078BD
:10FFF00005F0ECBF80B506F003F8BDE8014006F05F
:020000040001F9
:1000000016B9704710B5044682B0207805F0ECFFB1
:10001000FF2808BF4FF4C0700AD0B4F80710009151
:10002000B4F80530B4F80320B4F8011002F0B7F8C2
:1000300000F033F88B480860002224680620A047AF
:1000400013BD10B50078794C05F0CEFFFBF708F929
:10005000A0802146844820600023714C246800223F
:1000600018E010B50446207805F0BEFFFF2808BF51
:100070004FF4C07008D0617819B1012102F01BF96A
:1000800002E0012102F023F900F007F87748086048
:10009000002224680620A04710BD6449604C888077
:1000A00000237047F8B500F06EF8050008BF4FF464
:1000B000C0703BD005F12406307E40071FD537685D
:1000C000EFB100E0074638680028FBD1387AC00756
:1000D0004CBF00204C20BB7A6278C01A90420ED3ED
:1000E000D819A11C1030FFF7CFFCB87A6178081836
:1000F000B8726178306940183061002016E02846F7
:10010000F9F75BFF10B94FF4C7700FE06178A01CDE
:10011000F7F7B6F8009020B169462846F9F7CDFF09
:1001200020B10098F7F78DF94FF4C17000F04EF848
:100130004F4800F024F8F1BD38B500F024F805462A
:100140006078FAF721F8002D14BF00284FF4C07230
:100150000AD0E9690022814206D0E86195F83C00A6
:1001600040F0010085F83C00002330498A800022DD
:1001700020782B4C88713F4800F001F831BD0860B1
:1001800007202468204704462078F9F7FDBF10B502
:10019000FFF7F9FF10B94FF4C07011E000F1200132
:1001A0000A7FD20609D40A69802A06D10868C0B23B
:1001B00000F066FFFBF746F801E0F9F7ECFE0020DF
:1001C00000F004F82C48FFF7DAFF10BD17498880CB
:1001D00000232078124C88710022704770477047C6
:1001E00070B5044600252078F9F7CEFF00260028D8
:1001F0000E490FBF4FF4C070856B466B002088809E
:1002000000232078064C8871C1F80760C1F80B50B4
:1002100000221A4808600F202468A04770BD000023
:10022000EC06002086140020A003080130090020FD
:10023000A0040E00A00C0100A0020105A00A080005
:10024000A0080802A0000301A0030803A0020F03F6
:10025000A0010F01A0050F00A0050F02A0030F04CD
:10026000A0020F0920020800200208012002080253
:1002700020030B0020030B0120030B02200B0B05B6
:100280004901002806D5054A00F00F00801800F843
:10029000041C7047024A81547047000018ED00E0CA
:1002A00000E400E080B504210B20FFF7E9FF042102
:1002B0000C20FFF7E5FF04211320FFF7E1FF0421E5
:1002C0001420FFF7DDFF04211520FFF7D9FF0421DB
:1002D0000D20FFF7D5FF04211620FFF7D1FF0421E1
:1002E0000E20FFF7CDFF04211020FFF7C9FF0421E6
:1002F0000920FFF7C5FF04211120FFF7C1FF0421EA
:100300000A20FFF7BDFF04211220FFF7B9FF0421E7
:100310001820FFF7B5FF04211A20FFF7B1FF0121D4
:100320001D20FFF7ADFF04211720FFF7A9FF0121D2
:100330000120FFF7A5FF01210320FFF7A1FF012105
:100340000420FFF79DFF01210520FFF799FF012100
:100350000620FFF795FF01210720FFF791FF0121FC
:100360001B20FFF78DFF01211C20FFF789FFBDE84F
:10037000044002216FF0010082E7000080B50121F6
:100380001C48F6F79DF81C4806F045F81B484FF04E
:10039000FF31416340F2FF7101604168C90AC9023F
:1003A00041600120164906F01FF816494FF0005031
:1003B00008601549086000201449086001BD144810
:1003C0000168CA0703D5114A13685B1C136081607A
:1003D000704710B50D490A680E4B1B680C68A242A5
:1003E000F9D1D10341EAD33101605904490C81802C
:1003F00010BD000080091000E456000020200440D9
:10040000FC56000080E200E000E100E0700A0020FD
:100410001820044008200440890001EB401000F13E
:1004200084400260704710B500F00CF8BDE8104041
:10043000002205E010B500F005F8BDE810400122EB
:100440000C30E9E71C4B302404FB00307047F8B552
:10045000160004460D461F4605D017B1FFF7EAFF08
:1004600001E0FFF7E0FF1448302101FB04000F21F9
:10047000082D09D2AA004368914023EA010106FA37
:1004800002F2114341600AE0A5F10802920083687C
:10049000914023EA010106FA02F21143816056B944
:1004A000002F294620461CBFBDE8F440FFF7C2BF1D
:1004B000BDE8F440B7E7F1BD00A00040890001EBC2
:1004C000401000F184400260704710B5040039D03C
:1004D00006F0E6F8DFF8F0040021002200230EC049
:1004E0002068DFF8E814022819D10868800229D4AE
:1004F00010222146DFF8D804F5F78CFDA08900F022
:10050000CEF900F02EF8B4F9080000F022F8DFF878
:10051000C4040168C908C9000160012010BD012898
:1005200004D1086810F4400F0CD1E1E7DFF8A8040B
:100530000068096800F0010080F0010001F480010A
:100540000843D5D0002010BDDFF89004B0F90C00AE
:10055000704780B500F002F9DFF88004B0F90C00B4
:1005600002BDDFF878044068022808BF00F03BB8FD
:10057000012808BF00F01BB8DFF86404016821F00F
:1005800006010160016841F004010160C168C90809
:10059000C900C160C16841F00501C160816821F0F6
:1005A000C0018160816841F0810181607047DFF89E
:1005B0003004DFF83024016821F006010160016891
:1005C00041F002010160C168C908C900C160C16889
:1005D00041F00601C160816811408160416821F4E9
:1005E000404141607047DFF80004416821F4EE416A
:1005F0004160416841F48A414160016841F0010174
:100600000160704730B5DFF8C013DFF8E4330A68E3
:100610001A400A60C0F3431342F47C5242F0C8020D
:100620000A6000F01F04C01300F00102DFF89C0311
:100630000068C04300F4FE10B0FA80F0C0F113006F
:1006400098423CBF03461F240BB9012300E004B9C4
:10065000012401259D4008686D1EEDB240EA8530F9
:100660000860002A40EA0460086044EA4310DFF8AA
:1006700084130A6805D042F480020A6040F4004006
:1006800030BD22F480020A6030BDB1F90020824200
:10069000B8BF1046A0F1C8026FF0270392FBF3F237
:1006A000082AA8BF072201EBC201091D01284B68D7
:1006B000B1F9021000FB0131A8BF01F5FA714FF446
:1006C0007A70B1FBF0F0072A1FBFC44949680229BC
:1006D00040F400407047012231F83230834202D3A7
:1006E000521C082AF8D3521E01EBC20120F400402C
:1006F0004FF47A7250434A68801A0128A8BF00F567
:10070000FA70B1F9021090FBF1F0704710B5AE4AE3
:10071000B94B11680B4083281360B6490EDA1C0AE6
:1007200004F47F5423431F2813600CDA0A6852082C
:1007300052000A608A69520852000BE043F47C536D
:1007400043F0C80313600A6842F001020A608A6934
:1007500042F001028A61BDE810403CE070B59F4C58
:10076000994DB4F90E1040186168012914D1296817
:100770009E4A1140296006210FF2BC3232F9113035
:10078000984201DA491EF9D132F911602868491CF2
:1007900040EA0160286015E0A26801B1921C0FF2E6
:1007A0008821442303FB02163146FFF76EFFFFF753
:1007B00029FF212808BFB6F9026003D0311DFFF7D9
:1007C0008AFF06463046FFF7A1FFE089301AA08174
:1007D0002868606170BD10B5804A1278014687486C
:1007E000CAB1792917DB026F854B1A40026793392A
:1007F000844A146823401360052391FBF3F1093107
:100800008900036F41F457410B4303671368194391
:100810001160012200E00022BDE8104003214DE6F6
:1008200038B569486E4D01684A0821F47F110160AE
:1008300002F4FE142143016006F093FA28B12868FF
:1008400020F47F102043286004E0A86920F47F1082
:100850002043A8614FF000706B49086031BD5F48CC
:100860005949406908606948016821F08061016068
:10087000704738B506F075FA654C594D18B12868BF
:100880002040286002E0A8692040A8615F48016814
:1008900021F00061016031BD5048008A70477CB58D
:1008A0004E4C06466068022808BF962503D00128F2
:1008B0000CBF3225B425F6B1F7F734F96421B0FB4B
:1008C000F1F0544970436943B1FBF0F04FF400413B
:1008D000B1FBF0F04FF0FF3101E04008491C002867
:1008E000FBD149B21029A8BF4FF4706005DA002986
:1008F00058BF080201D54FF480700FF22411D1E9DE
:100900000023CDE90023009028040190684600F000
:1009100010F800F01AF80546F7F704F96421B0FB67
:10092000F1F042F210716943B1FBF0F02082208AAD
:1009300076BD394942684A600A68120B12030A60A0
:100940000A68006810430860704730B532494A6849
:1009500048684B680C680D68D2B2000404F00F04BC
:10096000000E096802FA04F4821AC5F303151B028B
:10097000AA401B0E090A5211181A01F00F0102EBCE
:100980006412884002EB601030BD401E234906D03F
:10099000801E01280DD9801E01280CD90EE00420EC
:1009A00008600E48406801280CBF04200020486001
:1009B0007047002000E03020486002E0F0204860EE
:1009C000A020086070470000C00F002188410E4041
:1009D000CC02002058410840D481E00FC80200201A
:1009E000004108403EFFBFFF204108403F00C0E0FB
:1009F000FF3FC0E00841084037C0FFFF9440084077
:100A00008220FFFF1C4108401C4008402040084055
:100A1000FFFFDF7F00409C0068600840C40F00219A
:100A20000000000000000000C800FCFE1F811D0B3C
:100A30006ABDFBFFB0807F054A32FFFF748016035A
:100A4000EA4B00005180B50127B200003F80490108
:100A500084C500003280D100F0C3000028807400FB
:100A600034B4000028004B00EAB500008C00FCFE06
:100A7000FFFF0000000000001F8158114C42FAFFE8
:100A8000A180CA050197FFFF5D806A024CA40000A7
:100A900041805701A7CC00003480E000BECA0000AE
:100AA0002A808C00CABC000029005200B5B90000A1
:100AB000C800FCFE1F01C80B7D30FBFFAB001C050E
:100AC000035BFFFF7300FD02DC5500005300D501FE
:100AD000BEAF00003F001901E4C800003300AC00C5
:100AE00090C700002C006C00B1BC00002700430040
:100AF00046AF00009600FCFEFFFF00000000000073
:100B00001F016D0FA182FAFF7E00C103791F000053
:100B10005500E401F4B1000041003701C7C90000ED
:100B20003300C000CAC700002B006E00F7B90000F8
:100B3000260038008AA8000083FFBFFFE2FFF1FF14
:100B4000F9FFFEFF0000000004F04EB970B5044646
:100B50000D46164604F021F908B9022070BD204662
:100B600004F0CEFA08B9012070BD3246294600884B
:100B7000201ABDE87040C0B204F07AB904F034BA6B
:100B8000012100F01F029140DFF8F822400942F8ED
:100B900020107047890001EB401000F18440026092
:100BA000704772B6DFF8E002016811F1010F1CBF57
:100BB000491C016000687047DFF8CC12086818B162
:100BC000401E086000D162B6704738B5DFF8BC52ED
:100BD0000121284604F056FCDFF8B442DFF8B402E5
:100BE0002060284604F064FC4FF47A71B0FBF1F009
:100BF0004002B0FBF1F0A0F58071090AC0B240EAF2
:100C00000120A0624FF0FF3000F018F9401E206371
:100C100031BD80B51C20FFF7B3FFDFF87C124FF029
:100C2000805008600122BDE8084000210BE080B53B
:100C30001C20FFF7A5FF99494FF080500860012262
:100C4000BDE8084002219648A4E79648006874E091
:100C5000954800210160416081607047934A1368A4
:100C60000A1A3CBF581C82181046704710B504463B
:100C70008F480022002100EB0410FFF78BFF4FF498
:100C800080708C49A040086010BD2DE9F84F814666
:100C900016460C46FFF785FF4846FFF7E7FF00279B
:100CA000012EDFF814822AD1D8F80000401C041964
:100CB000D8F81850DFF8F8A1A5423CBF601B441ECD
:100CC0004FEA09102C40009000985044C460112055
:100CD000009941F80A002046D8F800B05946FFF7BD
:100CE000BDFFA90881420DD3D8F848004FF48071A8
:100CF00001FA09F10840401E8041C00F03E0022EB6
:100D0000D6D10BE000207F1C012E07EB0B0408D18D
:100D1000062F06D20028D7D1FFF74EFF0120BDE8ED
:100D2000F28F0028F8D04846FFF7A0FFFFF744FFF6
:100D30000020F4E75E490001405800F001007047D0
:100D400001F460015A4A000141F0030181507047EB
:100D5000F8B504460D46164605F093FE00F06EF811
:100D600007462046FFF782FF012E03D1BD4238BF60
:100D7000002100D3E91B04F1090000024F4A40F0B2
:100D80000100106032462046BDE8F8407DE74B493F
:100D900000200860704770B500F028F805F0DCFE10
:100DA00000F04CF8012E03D1854238BF002100D35A
:100DB000291A04F109000002414A40F001101060B4
:100DC00032460FE070B500F011F83D483D4A016829
:100DD000114004F1090241EA026141F480310160ED
:100DE000324629462046BDE870404EE704460D468F
:100DF00016463BE732493448086070472E48006881
:100E000070472B4901EB0010C068704780B5222065
:100E1000FEF7AEFEFFF7C5FE012212212048FFF7C4
:100E2000B9FEBDE80140C7E61E48006810F00600A4
:100E300018BF01207047C10F4000704700F001014A
:100E400001EB500070472DE9F843164CE568FFF7B9
:100E5000F5FF0646606A47082068C00701D40FE026
:100E6000361AB046BE4288BFB846D4F80C90494600
:100E70002846FFF7F3FE4045F7D3B0424D46EFD387
:100E8000BDE8F18380E200E0540800200004060081
:100E9000005008400011010000E100E080E100E0A6
:100EA000045008400C500840105008403050084092
:100EB0007450084064500840185008407050084072
:100EC0006C500840FFFFE0E00000010115490120DF
:100ED0000860704770B51448144B01680020002268
:100EE00003EBC20453F832506468114E366876073B
:100EF0000DD4B5F5007F18BFB5F5806F05D0B5F5F9
:100F0000006F18BFB5F5803F01D144F480742942C9
:100F100002D0214208BF2843521C092AE0D370BDE9
:100F20000000000008500E4004500E409C56000087
:100F30007A40E00F02480021017070470000000075
:100F4000991400207047000070B505460E46022037
:100F5000F7F745FF040028D06821FAF72BFAE6617D
:100F60000622294604F11400F5F754F84FF0FF303B
:100F700084F8540000206349401C0A68C0B204E0B1
:100F800092F82C309842F7D09268002AF8D104F1F8
:100F90002C02107040F6FF705080002050610868ED
:100FA000A0600C60204600F0AFF8204670BD00B194
:100FB000C185704710B504003ED094F904000128A3
:100FC000A4BF401E207194F90400012809D1207BA0
:100FD000800706D5206900281EBF0128204600F0A2
:100FE00086FB94F90400012826DA204600F05AFB1B
:100FF00004F13000F6F7CEFA04F14C00F6F7CAFA25
:101000004049086858B1844203D1A068086006E0EE
:101010000846816819B1A142FAD1A1688160002215
:101020000FF219012046F9F7F3FF2046BDE8104002
:1010300000220121F9F7E6BF10BD000010B5012A1A
:101040000C4602D0022A07D004E0002202212046EA
:10105000F9F7D8FF002010BD2046FAF708F821461E
:101060000220F7F7CDFE012010BD2649096800E0F7
:10107000896800291CBFCA8D8242F9D10846704791
:101080002049096800E0896800291CBF91F82C20DC
:101090008242F8D10846704770B504461948066880
:1010A0000D4600E0B66856B1F069A842FAD10622B2
:1010B000214606F11400FAF7EBF90028F2D1304688
:1010C00070BD38B504460F48056800E0AD685DB1F5
:1010D00028690428FAD13CB10322214605F1170002
:1010E000FAF7D6F90028F1D1284632BD002806BF0C
:1010F0000448006880687047024900200860704713
:1011000000000000740A002010B10179491C01712F
:10111000704700000188491C89B201B90121018092
:101120000088704710B50446012000F0AFFADFF8E0
:10113000340804600020BDE81040A7E2DFF824086E
:1011400000210160C1610162C16281624FF6FF71DD
:101150000187002181608181016181827047DFF810
:101160000418C2784A6042F2130382889A4200D07F
:10117000704700B583B082788DF802208088ADF882
:10118000040001F13800FFF7C5FFADF800006A4622
:101190000621DFF8D407F9F782FF07BDF0B58BB061
:1011A000DFF8C077DFF8C0470546AE1CA878786046
:1011B000B6F80100B0F1100138D04FF47E72891AF0
:1011C00034D040F2FB72891A30D040F2FE32891AD4
:1011D00015D0091F25D0091F29D04FF47F72891A15
:1011E0005BD040F6FD32891A73D00C391ED0093914
:1011F00042D0491E2FD0491F02295FD96EE00A2034
:10120000F6F72BFCB6F805104180024631790170E3
:10121000F1790171718901813189C1804FF4837144
:1012200015E0B6F80700B860B088B88175E006220E
:10123000311D07F13000F4F7EDFE0620F6F70DFC46
:1012400005460622311DF4F7E5FE2A460821204610
:10125000F9F7D8FE61E008208DF80E000822311D54
:101260000DF10F00F4F7D6FE00F059F8ADF80C00C0
:1012700003AA40F608014DE010208DF81A00102254
:10128000311D0DF11B00F4F7C5FE00F048F8ADF874
:10129000180006AA40F607013CE068798DF80900BD
:1012A000E888FFF7E2FE08B190F82C008DF80800FE
:1012B00002AA287A8DF80A000B212BE069790091A7
:1012C0000CBFE8880020ADF804006A4640F2023105
:1012D00020E0B0793861B088B8821EE068798DF876
:1012E000020040F66D41B5F80300ADF80400B6F811
:1012F0000100401A06D041F29931401A02D0801EF6
:10130000042802D800F00BF800E0388FADF8000098
:101310006A4606212046F9F7C2FE0BB0F0BD07F180
:101320003800F7E68078002808BF00F0B9BF7047A2
:101330002DE9F8460546A878012872D0022808D081
:10134000032859D0052800F0AC80062800F0B480AE
:10135000BFE0AC1C0027657817E001EBC500001961
:1013600001F1010A807848445FFA80F95FFA8AF156
:10137000A942F2DB57FA89F000197F1C90F90200AC
:101380003070FFB2304600F0ACFEAF42E0DA2A2007
:10139000F6F763FB0600DBD0381906228078707000
:1013A0004FF0000A7819001980783072680012FB3B
:1013B00007000019811CB01CF4F72CFE07EBC500D8
:1013C00000198078B07205EBC50006E00AEBC50095
:1013D00000190AF1010A807848445FFA80F95FFA3F
:1013E0008AFABA45F2DB09EB0400B27A811C06F1F5
:1013F0000B00F4F70FFEB9E7A888FFF736FE0400EC
:1014000067D0E878002864D104F16000E9880180A1
:1014100069894180298981802046BDE8F24600F033
:10142000F3BDA879E979002808D101B1012105F1BE
:101430000800FFF731FE040011D14AE005F1080071
:10144000FFF782FD040044D00220E0630622DFF8AB
:101450001C1504F12000F4F7EDFD0020A062E878EF
:1014600078B9A9882046FFF7A2FD04F16000E98958
:101470000180698A4180298A81802046BDE8F4463E
:10148000ADE000202061E878002814BF40F400712E
:101490000021204601F0B2F82046BDE8F246FFF7F1
:1014A00089BD00F098F8040013D0B5F80D106A1D3E
:1014B000BDE8F84606F0E0B8B5F80B000090B5F8C6
:1014C0000930B5F80720B5F80510B5F8030000F0AD
:1014D0008AFBBDE8F18638B505462878032848D050
:1014E000052833D0082817D00E2808D00F280AD096
:1014F00030280CD03E2869D0FF2863D031BD284663
:10150000BDE832404AE62846BDE8324027E600F012
:1015100062F804005ED00EE000F05DF8040059D0DF
:10152000697994F84500002914BF40F0010000F0EB
:10153000FE0084F84500A878002814BF40F400712C
:1015400000212046BDE8344001F0ADB800F043F87A
:1015500004003FD00020206140F6FF70E0856879EC
:10156000002814BF40F400710021204601F031F83A
:1015700023E01021681DFFF78FFD04002AD0A87812
:1015800080B9B5F803102046FFF711FDE87A28B1BD
:1015900094F8450040F0010084F845002046BDE87D
:1015A00034401CE000202061A878002814BF40F4DB
:1015B00000710021204601F021F82046BDE83240AC
:1015C000FFF7F8BC2846BDE83240ABE62846BDE848
:1015D0003240ADE631BDB5F80300FFF746BD00214E
:1015E00001F00CB80146DFF88803F6F7B9B8DFF868
:1015F0007403C169002906BF806A00280120704772
:10160000DFF86013CA69002022B110461268CA616F
:1016100000210160704710B508F012F8040008D0EE
:1016200004F11000FFF757FF2046BDE8104007F017
:10163000E8BFFFF7E5FF00281CBFBDE8104000F041
:101640001BBC10BD80B507F0D1FF18B141F20901F4
:1016500000F0C2BA3CE210B1022801D07047F1E7B5
:1016600001205FE580B510B102280CD001BD002239
:101670000321DFF8F402F9F7C5FCDFF8F812096876
:101680000120887301BDBDE80140C4E7DFF8D42222
:10169000DFF8E412126851F8221008470220F5E73B
:1016A0000020F3E7F8B5AF4D0446A88A00280CBF28
:1016B00005F1200605F1240603E00768F5F7C1FEF1
:1016C0003760306820B1C168A142F6D00646F8E71D
:1016D00094F83900A98A19B129694018286102E0F3
:1016E000A9684018A860002084F83900F1BD10B541
:1016F00004462069002818BF012802D140F2811059
:1017000010BD032802D100F03BF90AE000F0D6F941
:1017100038B140F2064100F008F813228A7003F055
:101720008AFF01202061002010BD01820321817405
:1017300000F11301E28D0A80704732B504460120A2
:10174000E18D40F6FF72914207D16846F5F722FF1E
:1017500031BDF6F705F800950020009999B10D68A4
:10176000009A002111600099CC600099896860F3AB
:101770004101009881607B48818A0029009914BF4B
:1017800024302030E5E703F016FF31BDBDE802400C
:1017900003F051BF2DE9F84307468846164699469F
:1017A000232007F02DFF0024050006D042F206009A
:1017B000288205F113040F20A8742780A4F8028062
:1017C000267184F80590012E0898A07118BF032E89
:1017D00004D109990622E01DF4F71CFC0A986073F5
:1017E0000B98A073284603F026FFBDE8F2436DE096
:1017F00070B500F011F8060002D042F2080055E082
:10180000002070BD70B500F007F8060002D042F26B
:1018100009004BE0002070BD04460D46342007F05F
:10182000EFBE38B50446152007F0EAFE002530B1BA
:1018300042F20A01018200F11305012181742C702A
:1018400003F0F9FEBDE8324040E02DE9F0410446E6
:101850000D4690461F461B2007F0D2FE002630B1F1
:1018600042F20B01018200F11306072181743470EA
:10187000A6F80150A6F8038077710699B17103F0BC
:10188000DAFEBDE8F04121E070B504460D461620B1
:1018900007F0B6FE002630B142F20C01018200F1E1
:1018A000130602218174347075700BE030821F22A0
:1018B0002020B074294606F1130000F8014BF4F71C
:1018C000A9FB304603F0B7FEBDE870402B48FFF798
:1018D00021BC2DE9F84305460320286188461446BB
:1018E00099460622214905F12000F4F7A3FB0020C8
:1018F000A8620120E8630A9A09992846F9F788FB4B
:101900002D2007F07DFE060028D042F20D00308227
:1019100006F113071920B0740622C8203880788099
:1019200005F1140100203871E8697871B81DF4F7E9
:1019300071FB00203873A7F80D80A7F80F40A7F8B7
:1019400011900898A7F81300A7F817400020A7F8EF
:101950001500304603F06FFE002001E04FF4C17027
:10196000BDE8F283800C0020E4090020B00C0020C8
:101970009C0C0020E809002068570000B60C0020ED
:1019800080B507F033FE18B142F20E0100F001F805
:10199000FCE60182002181747047BDE8F24003F04B
:1019A0004ABEF8B500F040F950B142F2130100F020
:1019B00029F9E18D118000F02BF9BDE8F24085E7AF
:1019C000F2BD018200F113050221817470472DE9F7
:1019D000F8430446884615469946302007F010FE25
:1019E000070019D042F21900388207F113061C20B3
:1019F000B8740822E08D30804146B01CF4F70AFB31
:101A000075811022494606F10C00F4F703FB3846B5
:101A100003F011FE002001E04FF4C170BDE8F28335
:101A2000F8B50D0004460BD1162007F0E9FD00259E
:101A300018B142F21B01FFF7C4FFE18D298014E0C9
:101A4000262007F0DDFD0026070006D042F21A002E
:101A5000388207F113061220B8741022E08D30800E
:101A60002946B01CF4F7D6FA384696E710B5044676
:101A7000152007F0C5FD28B142F21D010182C47492
:101A8000012170E054E070B504460D46164600F0A2
:101A900015F858B142F21E01018200F00AF80C70EC
:101AA0004D708E7003F0C7FD002070BD4FF4C17003
:101AB00070BD0321817400F113017047172007F0F6
:101AC0009FBD80B507F092FD10B142F21F0183E087
:101AD0004FF4C17002BD80B507F088FD40B142F2FD
:101AE0001801FFF756FF03F0A6FDBDE80240EDE642
:101AF00002BDF8B5FFF790FE060017D042F21700BE
:101B0000308206F113072020B0741022214607F11D
:101B10001000F4F77FFA102229463846F4F77AFAD3
:101B2000304603F088FDBDE8F240CFE60020F2BD6C
:101B30004FF4C17010BD10B500F005F810B141F2BE
:101B400005410CE0F4E70446162007F059BD10B536
:101B5000FFF7F9FF10B14FF6044100E0E8E701821A
:101B6000A0F813400221817403F065FD002010BD30
:101B700038B500F00FF810B14FF605410FE04FF403
:101B8000C17032BD38B500F005F810B14FF606410E
:101B900005E0F4E704460D461A2007F031BD018246
:101BA0000621FFF787FF0C80C1F8025003F043FDC8
:101BB000002032BD38B504460D46192007F020FD3F
:101BC00048B14FF6074101820521FFF773FF0C7002
:101BD000C1F80150EAE7D2E701820021817403F0E5
:101BE0002AFD002002BDF8B500F01EF848B142F20F
:101BF000200100F007F8148000F00AF8BDE8F24078
:101C000064E6F2BD018200F113020E218174704777
:101C100055809680D78006991181002151814FF619
:101C2000FF71918103F007BD04460D4616461F461D
:101C3000222007F0E5BC0000427A8A184272827ABC
:101C4000891881727047002105E0827A5118427A22
:101C50000068891AC9B20028F7D10846704780B5D4
:101C600000220FF25D11DFF80802F9F7D1F9DFF871
:101C700004124020488001BDF4B504460D461046CC
:101C8000FFF7E1FF064600980421F5F7C8FC0700BE
:101C900003D16846F5F77EFC1BE00090417A0818F6
:101CA000103045800680606EC0F3004098B1042D6E
:101CB00018BF062D0FD10098FFF7C5FF1C280ADBBF
:101CC00000981B21F5F737FE07466846F5F762FCDA
:101CD00007B94CE00097009966E016469946002047
:101CE000F5F75CBB2DE9F843804662480D46017864
:101CF0004F1C0770FFF7F1FF040008BF4FF4C170DD
:101D000020D00421FFF798FF607A001900F110013C
:101D1000052048800A1D0C20088012201070577082
:101D2000082050809580D680A2F8089008985081AD
:101D30000988A07A091D0818A07221464046FFF7BD
:101D4000FCFC0020BDE8F283F8B500F00AF80700BB
:101D500000D10CE00421FFF76FFF00F02AF81322F6
:101D600014E004460D4616460020F5F717BB4FF465
:101D7000C170F2BDF8B5FFF7F4FF070000D1F6E738
:101D80000421FFF759FF00F014F801220621018019
:101D9000011D0A7002224D704A808E800088B97A37
:101DA000001D4018B87239462046FFF7C6FC0020D7
:101DB000F2BD787AC01910300521418070470000CB
:101DC00080B5062A01BF2B4801891A8891420AD1A1
:101DD000002101819A7802B10122018AC068FFF7CF
:101DE000B3FF012002BD002002BDF8B50D1D044661
:101DF0002878122802D013282FD031E0E06B022877
:101E00002ED0281D40F67B430288961F9E423EBF7F
:101E10004688B71F9F4216D2964214D38288B2F5E5
:101E2000FA7F10DAC1880A3940F6774291420AD225
:101E30006989009101882B89EA882046FFF7B1FD66
:101E40000C49088128B969782046BDE8F84001228C
:101E50007AE7CC6068780882F1BDE06B012805D193
:101E600069782046BDE8F840002283E7F1BD000014
:101E7000E4090020BC0C002070B50546687A4019C2
:101E800000F1100630880005000DFFF7EEF80400A1
:101E900004D12846BDE87040F5F7D3BAEC6030882D
:101EA00000F440510005000DB1F5805F308003D192
:101EB000A86820F0020006E004F13000F5F76AFBA4
:101EC000A86840F00200A8602946687A001D687280
:101ED00004F13000F5F744FC206B0146002201E0DC
:101EE0000968521C0029FBD1D2B2022AA8BFF5F71B
:101EF000D3FC206BFFF7A7FE04282CD3206B417A7C
:101F0000091801F11005FFF79EFE2988091D81427D
:101F100021D1688804280DD017D3062805D014D203
:101F200029462046FFF761FF0FE0216B204605F0B0
:101F3000CCFD07E0206B417A091D4172206D216BB9
:101F400001F040F90020206370BD04F13000BDE8CD
:101F50007040F5F71FBB70BD0A43104088420CBFAC
:101F6000012000207047012802BF487900F0C0001E
:101F700040280CBF01200020704770B51546202D69
:101F8000044602DB4FF4C07070BDDFF82C69002CF2
:101F900014BF06F1500006F13000F4F73BF82CB105
:101FA000F06A86F86F5040F0200004E0F06A86F88E
:101FB0004F5040F01000F06200F0F0F9002070BDCA
:101FC000DFF8F40800210160416081600022642193
:101FD0008182C821C1820021018364214183A02123
:101FE00081834FF4A071C183072180F82010102154
:101FF00041848184002180F826100167DFF8BC0845
:102000000FF68501F9F704B810B504460A20F5F774
:1020100024FD04F12C010A7802704A7E02F00302CA
:10202000012A03D0032A0CBF0222002202728A8EE8
:102030004280CA8EC2800246098F818040F2091117
:10204000BDE81040A7E070B50546DFF86C480846CB
:10205000216FD9B14D72606F00B14572E06ADFF84F
:102060005C58226F20F00200E06240F20716314611
:102070002846F8F7C7FF0020626F2067A2B13146FB
:102080002846F8F7BFFF002060670DE0FFF719F85A
:1020900050B100F10C0180F854500A6842F001027E
:1020A0000A60002100F0AAFA0020FFF70AF820B128
:1020B000BDE87040143007F02CBB70BD10B5921E07
:1020C000002301E053FA84F39A4208DB5C18647839
:1020D000844201D1581810BD5C5C002CF2D1002064
:1020E00010BD38B50446DFF8D05760780428E86A98
:1020F0002BD040084000E86204F10B01A27A0120D5
:10210000FFF7DCFF002100B181782868012802D0A8
:10211000022807D009E0C80707D42046BDE83240AE
:10212000F5F7B5BC03200142F7D0207AA11CFFF7D8
:102130001AFF90B1A01C07F0ECFA0028EDD0E86A75
:102140002C6740F00200E86231BDC10701D481076D
:10215000E3D5800701D56C6731BD207A10B906221E
:10216000A11C09E0012802BFE07900F0C000C028EE
:1021700005D10622A11C012001F024FB00E0FF2074
:1021800060722246E96A012060F30101E96240F2CF
:102190000711BDE83840DFF82407F8F733BFF8B57A
:1021A0000D461646AE421F4639D3A91F40F67B4264
:1021B000914234D2B6F5486F31DCB7F5FA7F2EDAAA
:1021C000069CA4F10A0340F677418B4227D27A1C81
:1021D00006FB02F1B1EB840F21DAFF2807D1DFF80B
:1021E000D8068582C682078344830020F2BDFEF7AD
:1021F00047FF00281CBFC169102910D0C16B009493
:1022000001293B463246294606D1FFF7CAFB002882
:10221000EBD140F28110F2BDFFF764FDF2BD4FF447
:10222000C070F2BD30B5039C2025234307D0DFF8F2
:10223000903653F82430022B14BF032BA025A8425C
:1022400028BFA9420AD344F201039942B8BF984279
:1022500004DA814202D3082A00DA0AB9002030BD2C
:10226000012030BDF8B5DFF850460546A068C0B281
:1022700000900E466068C3B217462846FFF7D2FFAB
:1022800000B9CCE707F0070084F82000A583E683B7
:10229000E06A40F00400E06200F080F80020F2BD47
:1022A000DFF8140600214160816000224FF4847140
:1022B00071E7FFF74CBC10B50C46FEF7E1FE00B924
:1022C00011E02146BDE81040C08DFFF751BC10B5AC
:1022D0000C46FEF7D5FE00B905E02146BDE81040EA
:1022E000C08DFFF74FBC4FF4C07010BD10B543F662
:1022F000FD73041F9C423CBF0C1F9C4201D28842CC
:1023000000D2F0E7DFF8B03503F1220420806180CD
:102310002271D86A40F4C070D86200F03FF8002003
:1023200010BD70B5054682B0052DBCBF0E46042E0B
:102330000ADADFF8844594F8202000910346E18B07
:10234000A08BFFF76FFF10B94FF4C07076BD6068C7
:10235000854204BFA06886421ED0E06A40F00C00AF
:10236000042D6560A660E06214D0012D02D0022D1C
:1023700002D003E0012002E0022000E000202169F9
:1023800009B940F00400002100F02BFAE06A40F0A7
:102390003000E06200F002F8002076BD70B5DFF892
:1023A000184504F1260586B06888002840F095801D
:1023B000E66A0022442100F092F8C0B100200390A8
:1023C000002394F82000A168029004A80190002046
:1023D0000090DFF8EC0450F82100E18BC2B2A08B32
:1023E000FFF7D8F96880E06A20F0040061E040223D
:1023F000082100F074F838B10020FFF712FA688065
:10240000E06A40F0400054E00022102100F067F83C
:1024100050B194F84F0004F13001FFF7E9F96880FA
:10242000E06A20F0100044E00022202100F057F87C
:1024300050B194F86F0004F15001FFF7E3F96880A0
:10244000E06A20F0200034E00022482100F047F844
:1024500060B126F04800E062A068002804BF606810
:10246000002803D00120FFF7DCF935E0E66A0022FE
:102470004FF4207100F033F860B100200090A28C7E
:10248000618C28780023FFF7E0F96880E06A20F08B
:1024900080000EE04FF400724FF4807100F01FF8DE
:1024A00048B100210020FFF7EFF96880E06A40F4AE
:1024B0000070E06211E000224FF4407100F00FF86C
:1024C00000281FBF26F44070E0622068002804D076
:1024D00000210120FFF7D8F9688006B070BD3046B2
:1024E0003AE580B5032802DB4FF4C07002BDDFF887
:1024F000C8130A6802B11AE0DFF8C82352F82000B6
:102500000860C86A40F4C070C862FFF747FF002047
:1025100002BD80B5DFF8A0030168491E022906D874
:1025200000210160C16A41F48071C162EDE740F2AF
:10253000811002BD2DE9F04784B080460C9CDE4F2F
:10254000002020600D46F86A40051646994602D5DF
:1025500040F281100AE005B1012529464046FEF708
:10256000F3FC5FEA000A03D14FF4C170206017E06A
:10257000062241460AF11400F3F74CFDCAF81C503C
:10258000CDF808900196788B00903B8BFA8AB98A37
:102590005046FFF79EF9206020B15046FEF70AFD35
:1025A00000200AE0F86A40F48060F862504605F0C6
:1025B00034FA5046FEF7A8FD504604B0BDE8F08757
:1025C00010B50446FFF793F82046FEF7F3FC002011
:1025D00010BD30B5044683B0206904280DD00191A8
:1025E00040F2032500946A462946B448F8F757FD9F
:1025F0006A4629462046F8F752FD37BD38B50446ED
:102600000D46207BC00712D4E06904F11401FFF7E6
:10261000AAFC60B194F9540010F1010F07D1042015
:10262000206104F11400BDE8324007F072B815B91A
:102630002046F8F7CEFFE16B9F48012911D1C16A0E
:1026400021F48061C162A5B10820F5F706FA0246BF
:10265000456004602046BDE8384040F20121F8F7AB
:10266000D1BC0021002D81604160ECD1204605F0F5
:10267000D4F9022020610420F5F7EFF9024640F278
:10268000062114608D48F8F7BDFC0420F5F7E5F944
:102690000246046040F202212046F8F7B3FC2046CF
:1026A000BDE83240B0E470B504460D460C20F5F7A5
:1026B000D4F906001CD004F145003460017811F013
:1026C000010131711CBF017801F0020171712946CD
:1026D000C07BB071B560204600F071F932464FF40E
:1026E00001712046F8F78EFC2046BDE870408BE46F
:1026F00070BDFEB50F46032F0546164632DB089C1B
:10270000BC42A8BF0C4602A90220F9F736FF00F030
:1027100062F838B30021ADF8001001AB01466A46FB
:102720000020FAF7ABF9BDF800108C4288BF0C46C8
:102730000199ADF80040A9B9BDF8001091B1891C0C
:102740008F420FDBBDF80010491C29706E700146E6
:10275000BDF80020A81CF3F75DFCBDF80000801C4C
:10276000C0B2FEBD0020FEBDDCB50E46032E044601
:102770002FDB55480088ADF802000DF10201022060
:10278000F9F7FBFE00F027F8010022D00020ADF899
:10279000000001AB6A46FAF771F9BDF8002009277D
:1027A000B11E914204DA082E13DBADF800100827A1
:1027B000BDF8001069B1491C217067700146BDF871
:1027C0000020A01CF3F726FCBDF80000801CC0B25E
:1027D000D6BD0020D6BD02464FF6FF710120FAF7A4
:1027E00034BA38B5344C04F130050021E97784F867
:1027F0006F10A870022129700320012169700091D7
:10280000E877C0F11F01001942F607230A22303091
:10281000FFF76FFF00F033F80421009142F6042324
:10282000C0F11F01C0B200191222C9B23030FFF747
:1028300060FF00F024F8C0B2C0F11F010019303071
:10284000FAF7D7F800F01BF8C0F11F01C0B2001969
:10285000C9B23030FFF788FF70B994F86F00C0F14B
:102860001F010019C9B25030FFF77EFF94F86F10B6
:10287000401884F86F0031BD00F001F831BDE97FE8
:102880004018E8777047000080B5062A09D040F666
:102890000700824203D11888D91C06F01EFF0020D1
:1028A00002BD05481A88018D9142F8D100210185A9
:1028B000FFF774FD012002BDBC0A0020E4090020DE
:1028C0001857000028570000FE61000080B502F094
:1028D00027FD04F0B1FE00220321002000F022F8C1
:1028E0008D4900200871BDE8014000F0A1BE04F050
:1028F0009DBE0100884818BF0121017170478648BC
:102900000179002906BF007A10F00200012070470B
:102910008148007A00F0020070477F48007A00F09A
:102920000800704710B50446052908460CDB032053
:102930000146794B19609C6004F0040304F0010126
:10294000BDE8104004F050BE0429F1D10121F0E7A8
:1029500080B509B9002002E0102900D010E004F091
:1029600058FE002002BD02B5FEF78AFB40B16B465F
:1029700045F21902002105F090F808B1002002BDCF
:102980004FF4C07002BD02B5FEF77AFB40B16B4652
:1029900045F21802002105F080F808B1002002BDC0
:1029A000EEE702B5FEF76CFB40B16B4645F21D0247
:1029B000002105F072F808B1002002BDE0E738B54B
:1029C0000D4604462B4645F21B02002105F065F832
:1029D00028B925B129462046BDE8344053E031BD31
:1029E00030B587B0FEF74CFB040008BF4FF4C07051
:1029F00033D004F13C052868012822D195F918004C
:102A000010F1010F1DD0697AC9071AD40A236A464A
:102A1000022100F005FFA0B195F91800102303AAC8
:102A2000032100F0FDFE60B19DF800009DF801104B
:102A300040EA012203AB0DF102012046FEF7C7FF79
:102A40000BE0002345F217020021204605F025F88F
:102A5000002814BF002040F2811007B030BD10B52F
:102A600004460220F4F7F9FF04F12C010A78027001
:102A7000024691F82810417040F60201BDE810406E
:102A80002648F8F7BFBA38B500F019F830B100F0B1
:102A900010F8BDE8384040F60101F1E731BD38B526
:102AA00000F00DF800F005F8BDE8384040F60501EB
:102AB000E6E794F82C100170456002467047044622
:102AC0000D460820F4F7C9BF13B5044692B101A919
:102AD000042006F039FE0198114A0146B1FBF2F1DB
:102AE00002FB1100019001AB45F2180200212046C3
:102AF00004F0D3FF0820F4F7B0FF50B194F82C1085
:102B0000017002460199416040F604010348F8F75C
:102B100079FA13BD00000000D00C0020E409002069
:102B200040420F0010B504460120F4F796FF40B173
:102B300094F82C1001700246BDE8104040F60301E5
:102B40009EE710BD38B5FFF7BAFFFFF7B2FFBDE84B
:102B5000384040F6090193E70749086808B10020AA
:102B600070470648C008C00008600549C908C90088
:102B7000091A0160704700BF78140020A7140020D4
:102B8000A02F0020DFF800F049050020DFF800F05A
:102B9000DD0400203F49096809070AD50178427819
:102BA0008378C0781B0443EA006040EA02200843AF
:102BB00070470068704706F0D7BD2DE9F041044624
:102BC000002014F0030682B015460F464FF0FF3880
:102BD0002BD00846FFF7DEFF0090F1008840C6F1D9
:102BE0000401C90028FA01F210430090C6F1040064
:102BF000854208D2A9190098C90008FA01F10843D2
:102C00000090002501E0301F4519A41B00F02CF8AE
:102C1000B91B0F1D241D08E058B93846FFF7BAFF4D
:102C200000F021F8241D3F1D2D1FADB2042DF3D25D
:102C300055B148B93846FFF7ADFF0090E90008FAF2
:102C400001F1084300F00FF858B16FF00301401A8A
:102C500002D0C01E02D003E00F4802E00F4800E09F
:102C60000F48BDE8F6810090042269462046FFF730
:102C700089BF80B5FFF78AFF58B16FF00301401A92
:102C800002D0C01E02D003E0034802BD034802BDCB
:102C9000034802BD14ED00E0022000F0012000F026
:102CA000072000F0427A8A184272827A891881726B
:102CB0007047002105E0827A5118427A0068891A2B
:102CC000C9B20028F7D108467047417A0818103079
:102CD000704710B50446A1F11800FFF7EAFFA1897B
:102CE000081A4CBF002080B210BD70B50C461546C6
:102CF0001E46FFF7EEFFB04201D2002070BDF2B2D7
:102D00002946A4F11800F4F735FD012070BD70B517
:102D100004460D460020F4F741FB060001D10020D7
:102D200070BD0821FFF7BEFFB07A2818B072304698
:102D3000FFF7CBFF016864F307010160304670BD07
:102D400080B5FFF7E4FF00281CBFBDE80240FFF795
:102D5000BCBF02BD2DE9F04104460D4690461F461A
:102D60000020F4F71BFB060011D00821FFF79AFFA3
:102D7000B07A2818B072FAB241463046F4F7FAFC3D
:102D80003046FFF7A2FF016864F307010160BDE868
:102D9000F08100B9704780B5183800906846F4F7A4
:102DA000F9FB01BD0A4600680421FEF765BF18392A
:102DB000F8E7F8B504460D4616461F4605210120E2
:102DC000FFF7BEFF00B917E045704680077141E08C
:102DD00038B504460D4603210220FFF7B1FF00B9C4
:102DE00022E00FE038B504460D4603210320FFF72B
:102DF000A7FF00B900E005E00121DFF84C0706F06D
:102E0000C9FC00BFA0F8015001462046BDE834408F
:102E1000CDE770B504460D46164605210420FFF7A0
:102E20008FFF00B92FE025E04FF4C17032BDF8B537
:102E300016461F4604460D46079B069A07210620A4
:102E4000FFF788FF00B9ECE0A0F80150A0F803609C
:102E5000A0F8057001462046BDE8F440A7E701212F
:102E600007206DE770B500F073F80820FFF772FFD8
:102E700000B908E0A0F80150A0F803600146204620
:102E8000BDE8704093E74FF4C17070BD38B504469B
:102E90000D4603210A20FFF753FF00B9C4E7B1E74D
:102EA00010B500F026F888BF13460A4601210B2012
:102EB000FFF750FF00B99FE716E070B504460D46D6
:102EC000164605210C20FFF73BFF00B9DBE7D1E7F1
:102ED00010B500F00EF888BF13460A4601210D20F8
:102EE000FFF738FF00B987E701462046BDE81040EC
:102EF0005DE70446A089431E9BB29342704710B51C
:102F000004464FF6FE73A089401E18409042B8BF99
:102F10000246D3B20A4601210E20FFF71BFF00B97B
:102F2000C0E0E1E710B5FFF7E4FF88BF13460A46AB
:102F300001210F20FFF70EFF00B95DE7D4E770B560
:102F400000F006F81020FFF705FF00B99BE791E7B6
:102F500016461A4604460D46049B0521704738B5AF
:102F600000F083F888BF1846034603211220FFF7BC
:102F7000F1FE00B958E745E710B5044601211320DA
:102F8000FFF7DEFE00B937E7AEE738B500F06DF8C1
:102F900088BF1846034603215220FFF7DBFE00B925
:102FA00042E72FE770B504461646A0891A46431F2C
:102FB00004989BB283420D4688BF03460521162024
:102FC000FFF7C8FE00B95EE754E7F8B504460D46C2
:102FD000A0891646471F1846FFF76BFEBFB287420F
:102FE00005DA0099897AC91B401800998872052171
:102FF0000098F4F714FB010003D16846F4F7CAFA0D
:103000000FE0487A4018172250F8103F62F3070388
:103010000360A0F80150A0F803602046FFF7C2FE4D
:10302000F2BD4FF4C170F2BD38B504460D46022121
:103030001820FFF785FE00B9F6E64570E4E610B506
:10304000044601211920FFF77BFE00B9D4E64BE7C7
:1030500038B500F00AF888BF1846034603211B2044
:10306000FFF778FE00B9DFE6CCE604460D46A089FE
:10307000C01E80B29842704738B5FFF7F6FF88BF90
:103080001846034603211D20FFF764FE00B9CBE676
:10309000B8E610B5044601211E20FFF751FE00B925
:1030A00000E021E74FF4C17010BD10B5417A091856
:1030B00001F11004FFF7FDFD401E80B22278411E91
:1030C000012A60D0022A18BF032A5AD0042A5AD0F3
:1030D000052A2ED0062A52D0072A39D0082A4AD0EB
:1030E000092A3CD00A2A4CD00B2A63D00C2A4AD099
:1030F0000D2A5FD00E2A48D00F2A5BD0102A3AD072
:10310000112A30D0122A48D0132A51D0162A18BFBB
:10311000172A47D0182A48D0192A49D01B2A18BF85
:103120001D2A3AD01E2A43D0522A36D0D22A36D06F
:103130000CE058B16078022808BF102002D00128A6
:1031400004D10220801C00F037F833D0002010BDDD
:10315000410800EB91718908B0EB810026E000285E
:10316000F4D0607804E00028F0D060780428EDDB2B
:1031700000F022F81AE006281CD0142816E00628D1
:1031800011E0022812E0042810E00428DEDB00EB46
:10319000D0714908B0EB410008E0022803E00E2896
:1031A000D4DB07E00428D1D304E00128CED101E02C
:1031B0000028CBD1012010BD91FBF0F200FB1210D2
:1031C000002870472DE9F241040083B007D100299F
:1031D00018BF01292BD003A8F4F7DCF927E0DFF8AA
:1031E0006883404606F0CCFAC8B1022811D0032803
:1031F00012D00398417A0818007D0399C00754BF84
:1032000004F10800201DF4F701FB002004B0BDE824
:10321000F0810020039004E0012003900CE003986B
:1032200040B9201DF4F7C1F903900398A8B94FF4F1
:10323000C070EBE7012802D104F10800F2E7417AFF
:103240000818007CC0074CBF201D04F1080001686D
:1032500019B10399F4F784FAD7E70398417A08186B
:1032600000F110063078C7B20398FFF722FD050081
:10327000B1D00398FFF719FF68B9F807ABD4522F04
:103280001CBFD22F1E2FA6D0042300223946204671
:10329000FFF78FFD9FE7681F3946012950D00229AB
:1032A00000F0EA80032900F09680042900F0FB80FA
:1032B000052900F09680062900F0FA80072900F021
:1032C0009C80082900F0E680092900F09B800A29EB
:1032D00000F0FA800B2900F09A800C2900F0F980A8
:1032E0000D2900F099800E2900F0F8800F2900F0D8
:1032F0009880102900F0C580112900F097801229CC
:1033000000F0F280132900F09680162900F0F68074
:10331000172900F09580182900F0F580192900F090
:103320009C801B2900F09E801D2900F0A0801E2992
:1033300000F0EE80522900F0DC80D22925D0EBE0AD
:10334000307900280CBF002100F5806170780228D8
:103350003FD0042838D0062831D008282AD00A289F
:1033600023D00C2817D00E281AD010280ED01228DF
:1033700062D0162802D0182807D16FE000910023F0
:10338000002200212046F9F7A7F8CAE000F0E9F88A
:10339000F9F78BF8C5E000F006F9F9F728F8C0E076
:1033A00000F001F9F9F739F8BBE000F0FCF8F8F7A4
:1033B000A1FFB6E000F0D5F8F9F745F8B1E000F06C
:1033C000F2F8F8F749FFACE000F0CBF8F8F734FF7B
:1033D000A7E0172101E0B6F801102046F8F7DEF962
:1033E0009FE003980399407A801C4872039A717891
:1033F00000232046F8F720FF96E000F0C1F8F8F728
:103400002BFF91E000F0C5F8F9F71DF88CE000F013
:10341000B7F8F8F76FFF87E000F0B2F8F8F7E7FFCA
:1034200082E000F0ADF8F8F7F8FF7DE000F0B1F8C9
:10343000F9F73BF878E000212046F9F744F870E00E
:1034400003980399407A401D487200200090039B26
:1034500000F081F8F9F740F866E000212046F9F71E
:1034600056F85EE000F082F8F9F761F85CE000F0F1
:103470007DF8F9F761F857E000F069F8F8F778F9A6
:103480004FE010280CBF1023022300F090F8F9F74A
:103490009FFC46E010280CBF1023022300F087F8A1
:1034A000F9F71FFD3DE000F056F8F9F7ABFD38E005
:1034B000E81F80B20190F01D0090B6F8053000F0D2
:1034C0004AF8F9F713FE2CE000F041F8F9F7DAFEBC
:1034D00027E000F040F8F9F7D9FE22E06A1E711CDF
:1034E0002046F9F7D6FE1CE000F030F8F9F73AFF75
:1034F0001AE000F02BF8F9F765FF15E00399204674
:10350000F9F789FF10E071782046FAF711F808E022
:103510002046FAF71FF804E0062300222046FFF7B2
:1035200048FC03A8F4F736F8F80704D560680028CB
:1035300003D0022104E0A06800283FF466AE032116
:10354000404606F027F900BFE0050020039AB6F8D0
:10355000011020467047B6F80320B6F80110204647
:1035600070470B46002200212046704703980399BC
:10357000407AC01C4872039AB6F801102046704782
:1035800003980399407A401C487200220399204610
:10359000704703980399407A801C487272780399A7
:1035A0000023204670470A46002120467047701DC0
:1035B0000090B6F80320B6F801102046704780B599
:1035C000F7F7A0FE009008B906F0F0F8009802BDE9
:1035D000F7F7F4BE002803D490490A79904201DB42
:1035E000002070470968012202FA00F0084018BF65
:1035F00001207047F0B583B04FF0FF35002600275B
:10360000864C10E02068F840C0070BD508236A46B6
:10361000082178B200F004F920B10198A8423CBF1B
:1036200005463E467F1C20798742EBD370B2FEBD33
:1036300030B583B00025794C05E00198A16881423E
:1036400038BFA0606D1C207985420FD22068E84009
:10365000C007F7D508236A46082168B200F0E0F8F1
:103660000028EAD168B200F071F8EBE737BD6B498A
:1036700009680020002903E0CA0748BF401C490828
:10368000FAD1704770B5040008BF012402D0212C84
:10369000A8BF2024614D2879844208D2264603E041
:1036A00070B200F053F8761C28798642F8DB2C7152
:1036B0002A46BDE8704001E0584A50710C2143F69B
:1036C000FF7006F043B81CB56A4601A943F6FF70C7
:1036D00006F041F8514C28B900990C222046F2F727
:1036E00099FC13BD00202060202020710020607113
:1036F000A06013BD494800687047F8B50446FFF75D
:10370000B6FF464D2979884205DB6879D8B1FFF7C5
:1037100071FF00F01BF828680026012101FA06F766
:1037200038420DD1384300F034F818B12868B84356
:10373000286008E0A868401CA860206070B2F2BD54
:10374000761C202EEADB4FF0FF30F2BD38B510F1C9
:10375000010F0446314D06D14FF40041084606F0F2
:1037600001F8002011E0FFF735FF10B940F20B30EF
:1037700032BD200240F400404FF47F4180B205F09A
:10378000F1FF28680121A140884300F002F80020E1
:1037900032BD28602A460C2143F6FF7005F0D6BFE3
:1037A000F8B500F061F810B940F21220F2BD3246CF
:1037B000394645EA0420BDE8F84040F4004080B2B4
:1037C00005F0C4BF2DE9FC4104460D469046002794
:1037D000124E30680121B940084217D044EA072050
:1037E00040F400406A4601A980B205F0B4FF002809
:1037F00004BF9DF80400404508D1009830B142460E
:103800002946F7F745FE08B978B204E07F1C202F5F
:10381000DFDB4FF0FF30BDE8F6810000DC0C00205C
:10382000F0B583B000F020F880B145EA042040F400
:10383000004001AA694680B205F08DFF30B99DF8BD
:10384000000000281CBF0198002801D10020FEBD07
:103850009DF80000874288BF074601993A463046E6
:10386000F2F7D8FB3846FEBD04460D4616461F4605
:10387000B0E6000072B64648016811F1010F1CBFA6
:10388000491C0160006870474149086818B1401E32
:10389000086000D162B6704780B53E4800682430A9
:1038A000F3F74BFF60B18168C1F38001002904BFC9
:1038B000BDE80240FAF72DB8BDE80240FAF726B895
:1038C00001BD80B5B2F5803F06D0B2F1011F06D12F
:1038D000FFF7E2FF012002BD00F01DF8FAE700202B
:1038E00002BD38B50446F6F7A5FA2A4D2A492860E4
:1038F000FCF7B2F82968062081F83C00032029680B
:1039000081F83E000020296808622C712868F6F7CB
:10391000D1FA286832BD38B51E4C2068806A18B3C9
:103920001E4D286810B905F061FE28602868D8B1DE
:10393000FFF7A0FF20682830F3F7FFFE0090FFF7A5
:10394000A3FF00988068C0F3800020B90098009918
:10395000407A801C487269462068C069F6F7ADFB62
:1039600010B10098F3F76DFD31BD38B504000ED0ED
:10397000084DFFF77FFF286821462830F3F7F0FE57
:10398000FFF782FF2868BDE83240F6F7BCB931BDC9
:103990005408002034100020C33801003C100020DF
:1039A000002818BFFFF7E1BF704700003EB504468E
:1039B000274D01F0B8FC8022294601F0CDFC01F032
:1039C000B2FC05F1100100910294019405F110037D
:1039D0000022102101F0F7FC0028EAD137BD30B5F4
:1039E00089B004460D466846FFF7E0FF2A4669465F
:1039F0002046F2F70FFB6846FFF7D8FF04A8FFF751
:103A0000D5FF69463CC912483CC03CC93CC009B01E
:103A100030BD70B504000D4605E0F1B22846FFF751
:103A2000DEFF7519A41B04D0112C2CBF10262646CE
:103A3000F3E770BD10B5064C10212046FBF76CFD76
:103A400004F11000BDE810401021FBF765BD000037
:103A5000780A002072B6DFF8BC04016811F1010F8A
:103A60001CBF491C016000687047DFF8A814086893
:103A700018B1401E086000D162B670470A4310407A
:103A800088420CBF01200020704700002DE9FC4156
:103A9000DFF88464351D0B2806F12C041ED8DFE8FE
:103AA00000F0067D1A242C387A7A7D7A7A22FF205B
:103AB00086F82B0000F074F82068FBF7CBFCE8696F
:103AC0000C220021FFF7DAFF2968BDE8FC4180F0F5
:103AD0000100FBF7E8BCFBF70DFEB0425ED1BDE88C
:103AE000F341FBF7D6BBFBF7D4FB287D20283CBF76
:103AF000401C2875BDE8F341AEE0287F10F0810F2F
:103B000002D0FBF7C6FB46E0BDE8F6410120FBF71B
:103B100091BCFBF785FB0600F3D000F0B9F9032850
:103B200026D0052833D1A768707A801900F11005D6
:103B30000020A06005F10C08FBF7ABFB012000F0B2
:103B40007AF86889CDF80080C0F38010019008F100
:103B50000C032868298900EBC10200213846F5F7DB
:103B600087FD3046F3F76DFCBDE8F341FBF78EBDF2
:103B70003046F3F766FCE86940F08000E861606871
:103B8000FBF768FCBDE8F6410020FBF7A6BC304619
:103B9000F3F757FCB5E7BDE8F3411EE0BDE8F3815C
:103BA00080B5DFF87803016821F080010160C17AF7
:103BB0004B1CC372DBB2032B01D1002002BD817A02
:103BC00001229A401142F2D003F12500D44AD5498E
:103BD000C0B2FBF7C5FB012002BD10B5FFF7E0FF47
:103BE000CD4C68B1E06AFBF735FC206A0C2200215D
:103BF000FFF744FFBDE8104080F00100FBF73FBC39
:103C0000206AC1050FD5218D491E218589B251B980
:103C100020F480702062012000F00DF8FBF736FDE3
:103C2000BDE81040A8E0207E112824BF401E207669
:103C3000BDE8104010E010B5B74C216A21F010012A
:103C4000216201462046FBF7BAFC606B18B1F5F71C
:103C500075FC0020606310BD38B5FBF765FBC5B28D
:103C6000AD4C01212046FBF7AAFC112295FBF2F294
:103C700002EB0212A18C6068AA1AD2B212FA81F188
:103C800040F2712202FB010060602046FBF77BFCE2
:103C9000BDE83140FBF7FABC10B59F48A24A00F1DD
:103CA000080100F12C044A6140F253724A608A60B4
:103CB00050220A600222CA6018220A744FF400627D
:103CC0008A83CA83072280F82A200020E0600C2023
:103CD00088610220F3F762FB20600220F3F75EFBAD
:103CE000606000220021002000F0A9F8BDE810402B
:103CF000002200210120A2E038B5884B1C78E406A0
:103D000001D5012032BD9A61884D1C68525D9880B2
:103D100024090698987242EA04121A60D980002099
:103D200000F05FF8012000F05CF8002032BD70B5B3
:103D300004460D461646FFF78DFE200018BF0120F1
:103D40003246294600F07BF8BDE870408DE610B59C
:103D50000446FFF77FFE7048016A048541F48071D4
:103D60000162BDE8104080E680B5FAF7C0F910B9ED
:103D7000BDE8024000E001BD4FF08050F6F744BEC0
:103D800010B5654C216ACA0606D540BBFFF762FE36
:103D90000020FFF750FF1EE008B3080705D5606B51
:103DA00018B9F5F7ACFB6063D0B1206AA18C40F084
:103DB00010002062E08C401A40F2712148432061DB
:103DC000FFF748FEFBF7B2FAA1680818643060609C
:103DD0002046FBF7D8FBFBF759FCFFF746FE012016
:103DE00010BD30B5524A83B018CA69464FF6F07517
:103DF00018C1494901EB8002D26A537A9B1803F13A
:103E000010021233002803BF8C6B14F80D0000F071
:103E10000F00042014882C40204310804FF6BF74FC
:103E200091F8201049064CBF402100212040084352
:103E3000108006223F491846F2F7ECF837BD2DE90D
:103E4000F0410C46344901EB80061546F16A4A7A86
:103E5000511801F1100701F11208398843F64F7229
:103E600011403980FFF7BDFF3988A81D60F30D218F
:103E7000398005F10800F16A88723CB12A46214672
:103E800008F10600BDE8F041F2F7C4B8BDE8F081E2
:103E900070B5214CE16A4A7A5118427A13181033EE
:103EA00012311D79002D31D09D79253D032D2DD264
:103EB00003F10A050C332E88360A06F03F06B218C5
:103EC0000C3282722D8805F00F00032816D194F869
:103ED000200040071AD50C2E18D10622981DF7F79E
:103EE000D7FA98B9E06A417A0818C5F3C011008A78
:103EF000C0F38010884209D1032070BD052805D188
:103F000094F82000000701D5052070BD4FF0FF3068
:103F100070BD000054080020800F0020A00F00207A
:103F2000D6BE898E555555008D3A01007857000050
:103F30007057000018090020890001EB401000F1C3
:103F400008500260704772B6DFF85808016811F136
:103F5000010F1CBF491C016000687047DFF844185E
:103F6000086818B1401E086000D162B6704701228F
:103F7000E2E70022E0E7000070B5DFF82C68341DAE
:103F80000B2806F134054CD8DFE800F0064B1B483F
:103F900026232C2C4B2C2C292878DFF81028DFF82E
:103FA0001018FBF7DDF9FBF774F9FBF7C4FA0546C7
:103FB00000F08BF82168A5F1C802BDE87040FBF75E
:103FC00010BAFBF797FBB0422BD1BDE87040FBF76E
:103FD00060B9BDE87040D5E1BDE870408EE1FBF707
:103FE00058F91BE0002000F056F9FBF7A8FAA16889
:103FF00081420CDAFBF74DF9FBF79DFA044600F01D
:1040000064F8A4F1C801BDE87040FBF7C9B9FBF73B
:104010008DF9E96940182168401AE861BDE87040EF
:10402000AEE070BDDFF88007102101854185C186B3
:104030000187002101634162DFF87817C161022125
:104040004161FA218160182101767047F8B5DFF8E7
:1040500058770C4697F82410C90715461E4601D517
:104060000020F2BD28B1012107F12400FFF77FFFF6
:1040700004E0012107F12400FFF77BFF3C857D85EB
:104080003E630120F2BDDFF8200790F8240010F015
:10409000050F04BF002000F030BA704780B5FFF76D
:1040A00052FFDFF80407416A4A0704D521F00401F2
:1040B0004162FFF7E8FFBDE801404FE7DFF8E8069F
:1040C000406A800800F001007047DFF8DC0690F8D5
:1040D000240010F0060018BF0120704770B5DFF80B
:1040E000C8562C1D216A50B9C80748D5FFF72BFFC9
:1040F000206A400840002062FFF7C5FF3CE0C80787
:104100003DD4880705F1340612D50220F3F746F9AD
:104110003061A0B3032105F12400FFF72AFF042139
:1041200005F12400FFF725FF002030760120708381
:10413000FFF709FF002105F12400FFF718FF94F8AD
:104140002000400718D40020F06140F2712140F6B1
:10415000C410A060E08C801E4843E06025203070D1
:10416000FBF7E4F861680818643020603062284684
:10417000FBF709FAFBF78AFABDE87040EEE670BD7E
:104180002DE9F041DFF82046251D01212046FBF7EF
:1041900016FA04F13407E98CF86940F27128091F16
:1041A00008FB01F188421AD301263878401CC0B2BE
:1041B0002828A8BF25203870A98C386A08FB010080
:1041C000286038620020F86195F82000297D00F011
:1041D0000400C6B1002814BF322010200FE0FBF706
:1041E000A5F8396A401AE9680026A1F6C411884288
:1041F000DBD2FBF79BF800F57A7028600BE0884271
:1042000009D2481E06E0002814BF3C20202081422D
:1042100001D2481C28752046FBF7B5F9BDE8F041EE
:10422000FBF734BAF0B585B0FFF78DFEDFF87805FF
:10423000016A019100210162FFF790FE02E0204631
:10424000F3F7FFF8019820B301A8F3F776FA0446D4
:104250000622607A0019103000F10A01098890F9ED
:10426000056001F00F05C1F3801700F10C0102A8F1
:10427000F1F7D0FE607AA17A12306072C0B281424A
:10428000DDD30094F3B202AA39462846F9F77AFF43
:10429000D8E705B0F0BD38B5DFF80C45616A0A070C
:1042A0002BD511F0100118BF012104F14C0558B1B4
:1042B00021B168880228A4BF40086880042104F165
:1042C0002400FFF754FE0AE021B96888FF28DCBF0C
:1042D00040006880042104F12400FFF74AFEFBF748
:1042E00023F8698890FBF1F201FB1200287003218A
:1042F00004F12400BDE834403BE631BD30B5DFF8C1
:10430000A84483B094F82400800636D5E06B256C71
:10431000697A0023E3632364491901F11002123121
:1043200012881206D20F019201F10C038A1D00922D
:10433000A16C01F215320121F5F79AF92846F3F73D
:1043400080F8606A20F024006062FAF7A2FF94F817
:104350002400C00703D4BDE83E400120CDE0182072
:104360002076FBF7E8F80446FFF7AFFEA4F1C8019A
:1043700003B0BDE83040FBF713B8BDE83E40012074
:10438000FBF758B82DE9F84FFAF74AFF00255FEA26
:10439000000826D098F8091001EB0800103000F151
:1043A0000A020079B8B1128802F00F04100A072C33
:1043B00000F03F000FD206280DDB26280BDA012C77
:1043C00001D10C2807D140180C30002C88F80A00C5
:1043D00001D4072C06D34046F3F733F80020FFF74B
:1043E0005AFF7BE0DFF8C0A3DFF8CC930AF1240684
:1043F000307840072BD519F82400800727D5D6F848
:104400001CB001EB080000F110079BF809007A8945
:104410005844C2F38012018AC1F3C011914216D1EF
:10442000062207F10C011830F7F732F878B9584630
:10443000FBF710F80020FBF750F83868398900EBDB
:10444000C10070620125306840F0200030603068A3
:10445000C1073FD5042C0CBF0127002745BB8007AF
:1044600026D53846FFF717FF19F82400C0071FD5D7
:104470009AF84C0018B1401E8AF84C0018E098F8E1
:104480000900002140440091032330F81A1FC1F3B2
:104490008012811C306A00F06FF8306AFAF7DAFF98
:1044A0000120FBF71AF803213046FFF760FD0125D4
:1044B00017B1307880070DD519F82400400709D5C9
:1044C00041460AF12000F3F74BF94FF08040F6F730
:1044D0009BFA02E04046F2F7B4FF65B9FAF7D9FE5D
:1044E000FBF729F80446FFF7F0FDA4F1C801BDE889
:1044F000F44FFAF755BFBDE8F18FF0B5AA4D85B07E
:104500000446686C18B1F2F79CFF00206864E86B01
:1045100018B3296CE1B14A7A511801F1100601F182
:104520001207F4F741FD022207F116010492BB1DA8
:10453000CA7A5209039280B28A8802924A8801920A
:104540000988009131880906CA0F0021F9F71DFD7D
:10455000E86BF4F7F3FF0020E863286C18B1F2F77A
:1045600070FF0020286421462846FBF728F805B094
:10457000BDE8F040FBF78AB8F8B504460020607249
:104580000D4604F1100003F00F030178069F01F0BF
:10459000C001194307F10C031B0203F47C531943B8
:1045A000814B018004F112061B6B03B140234FF6CF
:1045B000BF7C0CEA01011943018002B180224FF651
:1045C0007F7319401143018006227C493046F1F780
:1045D00021FD06222946B01DF1F71CFD607A38182E
:1045E0000E30A072F1BD80B504216846FAF78EFE48
:1045F0000098002100F03F023F2A18BF10F03F0F43
:1046000003D04008491C1B29F4DB1B29ECDB009874
:10461000664948400022002120FA01F3DB0748BF29
:10462000521C491C2029B8BF022AF5DB022ADBDB19
:104630009DF800009DF80110884201BF9DF802100E
:1046400088429DF803108842CED0009800221F2196
:1046500000F00303022B14BF012B521C4008491E1B
:10466000F6D1192AC0DA0098800E0022052100F048
:104670000303022B14BF012B521C4008491EF6D124
:10468000022AB1DB009802BD2DE9F041DFF8188164
:1046900008F1040588B0074695F8200040070C464D
:1046A00007D53846F2F7CDFE2046F4F747FF0C2039
:1046B00074E008F134061922B460787AC01900F168
:1046C000100101A8F1F7A6FC1620009005239DF823
:1046D00009200DF10A013846FFF74EFF787AC0191C
:1046E00000F11E04FFF77FFF20600321201DFAF771
:1046F0000DFE0220E071BDF813006081FAF714FE90
:104700006189491C90FBF1F201FB12002081FF221C
:10471000BDF81500A0810521BDF81700E08104F166
:104720001000F6F7FFFE207D00F01F0020750C2121
:10473000207990FBF1F10C2202FB1100617D401DFC
:1047400060F304016175FAF7E8FE617D01F01F0175
:1047500041EA40106075F760FFF7F5FB286A40F00A
:1047600004002862C00716D440F6C410A86040F2C6
:104770007121B088801E4843E86025203070FAF728
:10478000D5FD696808186430286030624046FAF741
:10479000FAFEFAF77BFFFFF7E1FB002008B0BDE867
:1047A000F081000054080020BC0F0020D6BE898E86
:1047B00055555500793F0100805700001809002029
:1047C00072B68748016811F1010F1CBF491C0160D6
:1047D000006870478249086818B1401E086000D11F
:1047E00062B6704710B57F4A946A00236372831CD7
:1047F000946AA372926A537A9A1802F1100319709C
:10480000587061B1022901D002D310BD552200E0D9
:104810000F22BDE810400146981CF6F783BEBDE8A4
:10482000104002467049981CF1F7F4BB10B56D4C6E
:1048300094F82000400706D5FAF781FE40F2722175
:1048400088420FDB4BE001212046FAF7B8FE606892
:1048500000F2712060602046FAF795FEBDE8104036
:10486000FAF714BF10BD000010B50B285D4C35D809
:10487000DFE800F006341A22312531313434312298
:10488000E06A5A4A5A49C0B2FAF75DFD94F820002E
:10489000800708D5A06AFAF7DDFD6168BDE8104021
:1048A0000020FAF700BE1AE0FAF724FFA04215D163
:1048B000BDE81040FAF7EDBCFAF7EBFC0BE0FAF7B5
:1048C000AFFC40B1417A0918097D11B1A18C491C96
:1048D000A184F2F7B6FDBDE81040A7E710BDFAF7D6
:1048E0002AFEBDE8104001460020FAF759BDF8B590
:1048F00005460E46282DB8BF262E174604DA394C39
:1049000094F82000C00701D50020F2BD0120F2F785
:1049100045FDA062E8B139463046FFF763FF03204A
:104920002062E5623348E061032060614FF49670D5
:10493000E0604FF4C87020616420A060FFF740FF82
:10494000FAF7F4FC00F02BF8FAF7A0FEFFF742FFAD
:104950000120F2BD10B5282804DA224C94F820106A
:10496000C90701D5002010BDE06205210020A08408
:10497000216221481F49E060E16103211F48206155
:1049800061616420A060FFF71BFFFAF7CFFC00F025
:1049900006F8FAF77BFEFFF71DFF012010BDA168A6
:1049A0000818643060602046FAF7EDBD38B5FFF7AF
:1049B00007FF0C4C0020206200212046FAF7FFFD83
:1049C000FAF764FEA06A18B1F2F73BFD0020A0627E
:1049D0000020A58CA084FFF7FDFE284632BD000014
:1049E00054080020081400207458000029417671F2
:1049F0005555550069480100C0C62D0000093D000D
:104A000080B501F078FE1F4901200870002002BD2A
:104A100010B5044600F09AFB20684168806802F0F7
:104A2000B9F902F09EF9002814BF1748174802F0A0
:104A300083FA1448017829B1002101704FF48030C5
:104A400004F0D4FE20680088C0B210BD80B5FCF729
:104A5000D5F9BDE80240FCF7EEB910B50446208850
:104A600002F064F82080608802F04EF86080A08830
:104A700001F0F4FFA080E08802F017F8E080002049
:104A800010BD00009B140020C0CF6A00E067350015
:104A900004F0D3BE890001EB401000F184400260B5
:104AA000704772B6DFF8A405016811F1010F1CBF51
:104AB000491C016000687047DFF89015086818B15C
:104AC000401E086000D162B6704780B505F069FAF3
:104AD000FCF7B1F900906846FAF751FB01BD2DE9EA
:104AE000F04786B001F0E0FE824601F013FF054674
:104AF00000264FF6FF7085426DD0A5EB0A05ADB2DA
:104B000005F10C00FAF7F8FB81461BE006F10A08F4
:104B1000AC1B00946A4641464846FAF7F1FB07464B
:104B2000009808B9002700943846009989B205F02A
:104B30005DF98619B6B207B90020024641464846DB
:104B4000FAF7E3FBAE42E1DB01A9504605F05EF95E
:104B50000C2000906A4600214846FAF7D1FB060077
:104B600002D000980C2801D200222AE0DFF8E004ED
:104B700035814168DFF8DC1409683279C90901F030
:104B8000010181F0010102F0FD0242EA41013171AF
:104B900001220721FFF77EFF9DF80A0000B10120E6
:104BA000317901F0FE01084330719DF80900707100
:104BB0000020B0710498FCF73EF930600C22002010
:104BC000F07100214846FAF7A0FB4846FAF7EEFAE2
:104BD0004846FAF794FB06B0BDE8F08780B501229D
:104BE0000721DFF86C04FFF755FFBDE802401020F5
:104BF000FAF702BB2020FAF7FFBADFF85C148968E5
:104C0000012806D002280AD1C80508D54FF48070C3
:104C100003E0880503D54FF40070FAF7EDBA70474A
:104C2000C0B2FAF7B9BA0220FAF7E6BA0420FAF7E6
:104C3000E3BADFF828040068000E00F00F00FAF76E
:104C4000EDBAC00244BF4020FAF7D6BA704710B59B
:104C500004460420FCF70AF8600213D52720FAF76F
:104C600087FF05F009F8DFF8F803006800F07F40DF
:104C7000B0F1007F1CD101220121DFF8E803FFF72A
:104C800009FF15E0E00204D5BDE810402820FAF73E
:104C90006FBFE00411D5FCF7B9F8DFF8CC0300686A
:104CA00010F4A00F09D12A20FAF762FF04F0E4FF04
:104CB000BDE810400420FAF76FBA10BD80B5DFF8E8
:104CC00098130120087105F01AFBBDE80140FAF7BE
:104CD00038BB10B50446F2F725FF6168884201D061
:104CE000012010BD04F06CFFDFF86C43207840F029
:104CF00007002070A07840F01000A07004F08DFD37
:104D0000C00703D5A07840F00200A0700FF2683011
:104D100004F01FFF206804F07EFEFAF7E6FA002098
:104D200010BD0022002118B1022805D003D20122B3
:104D3000104605F0B4B8704701220121F8E7DFF80A
:104D40001C03006800F07060B0F1807F18BFB0F104
:104D5000007F1CD0B0F1407F18BFB0F1806F16D03B
:104D6000B0F1A06F1CBFB0F1C06FB0F1E06F0ED01A
:104D7000B0F1006F18BFB0F1106F0AD0B0F1206F22
:104D80001CBFB0F1306FB0F1406F02D003E00120E2
:104D90007047022070470020704710B5FFF781FE72
:104DA0000320FBF7C7FF10B9FCF73EF810B1FFF77F
:104DB00083FE15E0DFF8A4020468FFF77DFE14F01F
:104DC000404F0DD104F07060B0F1407F18BFB0F1DA
:104DD000C06F05D0B0F1106F18BFB0F1406F01D1B6
:104DE000002010BD012010BD00B583B08188ADF852
:104DF000001000680190684604F031FF00200EBDED
:104E00007CB50C4600F002F96068022802D100254A
:104E1000022606E02068FCF711F86668054606B130
:104E20000126E068022802D10022022306E0A068E1
:104E3000FCF704F8E368024603B10123607C00B18B
:104E40000120247C0190611E8941C90F00912846F0
:104E5000314604F047FF76BD10B5446804B1012423
:104E60000068FBF7EBFF2146BDE8104004F098BF57
:104E700038B50C46154600F0C9F808B1022032BD1D
:104E8000200004BFBDE8314004F013BF2846A0470E
:104E900032BD10B570494A78430802F0FD0203F0B4
:104EA000010342EA4302830802F0FB0203F001031C
:104EB00042EA8302C30802F0F70203F0010342EA68
:104EC000C3024A7003090A7802F0F70203F00103F3
:104ED000840942EAC302430904F0010402F0EF022C
:104EE00003F0010342EA03128B780A7003F0FB031C
:104EF00043EA84038B7002F0DF0210F4407318BFA2
:104F0000012342EA431288600A70086804F083FDB6
:104F1000002010BD80B500F0010201215348FFF7C9
:104F2000B9FD002002BD10B5044600F012F90128B9
:104F300003D06168A06801F02DFF002010BD70B59E
:104F40000446C1B90025FFF7ACFD434EB07840F0F0
:104F50002000B070306804F05EFD00203071204603
:104F6000FBF76CFF294605F0C5F90446FFF7A4FDE1
:104F700084F0010070BD01250229E4D100F002F89F
:104F8000002070BD80B505F0BAF93348817801F092
:104F9000DF018170BDE80240006804F03CBD0120E3
:104FA00004F024BC10B52E4B1C6801221030A4B2B2
:104FB00002FA00F01831204302FA01F108430CE034
:104FC00010B5274B01221C68083102FA01F102FAE0
:104FD00000F0240C084340EA04401860002010BD93
:104FE00001F0F6BDFBF7B0BA10B5FBF7B2FA044614
:104FF0001F480268100004D01E4800680121C0B29A
:105000009047204610BD1A490860704738B50446DD
:1050100000F09FF8012817D0FFF7BFFE0F4D18B121
:10502000286810F0706FF7D1286810F0706F01D009
:10503000022032BD0E480268100002D00021204636
:105040009047204604F028FF002032BD540800207D
:105050006800084060000840241000200440084018
:10506000100F0021004008405C50084044000840F8
:105070002010002038300840CB4A0100214C0100AC
:10508000DF4A0100DD4B0100F54B0100FB4B010045
:10509000000000000000000000000000274C01009C
:1050A0002D4C01000000000000000000334C010006
:1050B0000000000000000000000000009F4F010001
:1050C000434C0100000000004F4C0100BD4C0100AA
:1050D00010B50446A06800F0011004F07DFB2046E6
:1050E000BDE81040FFF7F5BD10B50C46FFF719FEFF
:1050F0001CB1FFF724FE0028FBD110BDFFF71FBE37
:10510000F8B5154C616800291CBF0A68002A11D047
:10511000496879B100230C2505FB03F6B75AB8425C
:10512000A2BFB6187688864202DA5B1C8B42F3D3A4
:105130008B4201D30020F2BDA16805FB0320814210
:105140001CBFA060FFF7EFFEA068F2BD02494860F7
:1051500070470148006870471410002038B50446B5
:105160000D46022C18BF022D01D1012032BDFFF7E0
:10517000E6FD022805D029462046BDE83440FFF769
:1051800011BF32BD70B50D46022D0446164601D141
:10519000012070BDFFF7D3FD012801D1022070BDB1
:1051A00029462046FFF70CFF20B93046BDE8704085
:1051B000FFF7B0BE70BD10B50446FFF79FFF012892
:1051C00001D1022010BD2046BDE81040FFF761BEAE
:1051D00038B504460D46FFF791FF08B1022032BDF5
:1051E0002046FFF78DFF08B9012032BD294600880F
:1051F000201ABDE83440C0B2FFF702BE80B505F00A
:10520000A5F802490120087001BD00009A14002091
:1052100070B590FAA0F00C4615461E46000AFFF73E
:10522000DFFE204605F0A4F8E0074CBF5520AA2079
:1052300005F0A1F826B9012245F04001442002E022
:10524000002200210020BDE8704005F09FB800005A
:105250000148006880B270475850084010B50446B5
:105260004FF48E71F0F7CCFF204605F0FFF80021D7
:10527000204605F013F92046BDE810400022002129
:1052800005F013B910B50229144614D1802B05D0AE
:10529000C02B18BFB3F5807F0AD00CE08021C0F886
:1052A000F01010222146F430F0F7B4FE002010BDBB
:1052B0006FF01F0010BD6FF00C0010BD1FB5019303
:1052C000012400F023F820B100F005F808BF6FF0CA
:1052D0000C0004B010BD0C49884270471FB5019303
:1052E000002400F013F850B10649884208BF6FF05F
:1052F0000E0004D0FFF7EFFF08BF6FF00C0004B002
:1053000010BD0000025000F1045000F1039400F1C0
:10531000F4030093079C069B029405F010BA00006A
:10532000024800F005B80148704700004010002016
:1053300010B504464FF48E71F0F762FF204605F079
:1053400095F80021204605F0A9F82046BDE8104058
:105350000022002105F0A9B880B5802A18BFB2F557
:10536000807F02D06FF01F0002BDC0F8F820FC3033
:10537000D208F0F74FFE002002BD7CB5D0F8F860EF
:105380000C4600251946802E00F1FC0303D0B6F52B
:10539000807F09D013E0012C18BF002400930194F2
:1053A000102305F0E1FD07E0012C18BF0024009355
:1053B0000194102305F0E8FD18B1054601E06FF0F7
:1053C0001F05284676BD2DE9FE4F1400DDF834B0E8
:1053D000DDF8388081468A461E4603D0276817B11B
:1053E0000C9D30E000271AF00F0FF9D1D9F8F81012
:1053F0000024802909F1FC0003D0B1F5807F2AD078
:1054000030E000F034F805F09CFD28E097B92B4619
:10541000324601214846FFF7B0FF1020811982195A
:1054200011F8011C491C02F8011CC9B211B9401E37
:105430000128F3DA1BF8010B795D484008F8010BED
:10544000781C00F00F075FEA0A00A0F1010ADDD125
:105450005CB1276009E000F00AF805F078FD18B1AA
:10546000044601E06FF01F042046BDE8FE8F029461
:105470000090019653465A46414648467047000000
:1054800070470000021202F00F02012A02D0042A23
:105490000AD00BE0284AC0F30430800000EB421031
:1054A00000F1844001607047244AF4E7F1F708B83E
:1054B00010B510F47811224C0FD0B1F5003F23D075
:1054C000B1F5802F12D0B1F5C02F15D0B1F5002F56
:1054D00016D0B1F5202F1BD01EE0F2F708FB216893
:1054E000C1F30421491CB0FBF1F010BDF2F7FFFA43
:1054F000E168C1F30821F5E7F2F7F9FA2169F8E765
:10550000BDE81040F2F7F3BAF2F7F1FAA168F0E75C
:10551000F2F7EDFA6169E3E7BDE81040F1F70BB887
:10552000C0F30311062918BFF1F776B805480068E3
:10553000C0F308207047000000400E40C8400E40F5
:1055400000410E4010410E4080B5454800682430AF
:10555000F2F7F3F860B18168C1F38001002904BF5C
:10556000BDE80240FCF73EB8BDE8024004F070B868
:1055700001BD80B5B2F1011F03D1FFF7E5FF0120A6
:1055800002BD002002BD10B5F4F754FC344C35497F
:105590002060FAF761FA2168062081F83C000420B7
:1055A000216881F83E000020216808622068F4F735
:1055B00081FC206810BD70B582B0294C35E0806850
:1055C000009920F0040088602068C569009800995F
:1055D000807A497A461A00980421F2F720F8009858
:1055E000417A08184CF6FF7330F8101F8904890CB3
:1055F00001801940009A9268520802F0010282F07C
:10560000010241EA02310180F6B20099C9680288BC
:10561000C98D468061F30B02028069462846F4F783
:105620004CFD10B10098F1F70CFF03F0F6FF0028D5
:105630000090C4D173BD00B9704780B500900021BF
:105640004172807C0099C01C8872694604480068D9
:10565000C069F4F732FD10B10098F1F7F2FE01BD18
:10566000301000207355010010B50400DFF8B405B8
:1056700002D10021017010BDA17A627A8A1A0270EB
:10568000D2B2607A001900F11001DFF89C05F0F742
:10569000C1FC2046BDE81040F1F7D3BE2DE9F84328
:1056A00040F20160121A1E46DFF88095DFF8788517
:1056B000DFF87075DFF87845DFF878551FD0521E97
:1056C00026D0521E37D0521E5ED0521E4AD0521ED5
:1056D0006ED0521E00F07F80521E00F08580F93A95
:1056E00000F08C80521E00F09780521E00F09B80CC
:1056F000521E00F0A580521E00F0AB80B8E000F012
:10570000E8F828717088A5F80500DFF82C05A8E0F6
:1057100000F0DFF8287106F108037068C5F805008D
:10572000B0696872687A6A7A00F0B1F8DFF80C152F
:1057300000F0A9F88BE000F0CCF8287106F108031E
:105740007088A5F805003079E871B0692872287A68
:105750002A7A401D00F09CF8DFF8E41400F093F87A
:10576000092083E000F087F800F0B3F800F085F836
:105770003079E871F08828813878A872C01D00F06F
:1057800087F8DFF8C01456E000F0A3F82871331D45
:105790007088A5F805007069E871E879EA79001D5C
:1057A00000F076F8DFF8A01400F06DF808205DE056
:1057B00000F061F800F08DF800F05FF8B088A5F80F
:1057C00007003878687200F062F8DFF880146A7AAF
:1057D00000F059F83BE000F07CF828717068A5F8FB
:1057E0000500C5F800903DE000F073F82871C5F899
:1057F000009040F20310A5F8050033E000F03BF8FC
:1058000000F067F800F054F840F4202040F0A000C9
:1058100028602946AA7A11E000F05BF800F03CF815
:10582000DFF82C0412E000F026F800F052F800F047
:105830003FF8DFF82014AA7A00F025F80B2015E0D5
:1058400000F047F800F028F8DFF80C0428600A2080
:105850000CE000F03EF828717068A5F80500DFF84C
:10586000FC03286000230022294607202468A04763
:105870000020BDE8F283B068F6E6287143467088E0
:10588000A5F8050070470843286029467047801D29
:10589000010241EA10207047287100237088A5F8A2
:1058A000050000223079E8712946F0882881704788
:1058B000287143467088A5F805003079E871F088B2
:1058C00028813878A872C01D0106090C41EA102011
:1058D0007047307800F07ABB10B50088DFF8544389
:1058E000F3F772F8A0802146DFF8740308E010B5E2
:1058F00000F00EF8F3F76CF8A0802146DFF864039F
:1059000020600023CA4C246800220620A04710BD56
:105910000078C84C00F068BB10B586B004466946F4
:10592000601CFAF7CBF92078FFF7F3FF6946F3F72D
:1059300059F8A0802146CC482060002300F0FAF8F6
:1059400000220620A04706B010BD38B500F0A1F82F
:10595000D4F80110B64CF3F75AF8A8800023C348D6
:1059600061E038B500F095F8D4F80110B04CF3F7C9
:1059700058F8A8800023BE4855E030B585B000F047
:1059800042F800F03CF800F035F8F3F757F8A8803B
:105990000023B84826E038B500F07BF8B4F80110D1
:1059A00000230022F3F76BF8A8800023B24839E007
:1059B00038B500F06EF8B4F8053000F00DF9F3F7E3
:1059C0005EF8A8800023AD482DE030B585B000F02A
:1059D0001AF800F014F800F00DF8F3F75EF8A8805C
:1059E0000023A74828600022246829460620A047F3
:1059F00005B030BDD4F801108D4C6A467047207850
:105A00008C4D00F0F1BA04466946601DFAF756B9AC
:105A100038B500F03EF86278A11CF3F755F8A8807D
:105A200000239848824C28600022246829460620DA
:105A3000A04731BD38B500F02CF800F05CF8F3F762
:105A400055F8A88000239048ECE738B500F021F81D
:105A500000F051F8F3F755F8A88000238B48E1E7F0
:105A600038B500F016F861790091A31D00F0B4F884
:105A7000F3F752F8A88000238548D4E738B500F042
:105A800008F861786A4CF3F75DF8A8800023814834
:105A9000C9E70446674D207800F0A6BA38B5FFF78D
:105AA000F8FFE27800F09AF8F3F777F8A88000237F
:105AB0007948B8E738B5FFF7ECFF00F08FF8F2F758
:105AC000D1FFA88000237548ADE738B5FFF7E1FFA7
:105AD00000F084F8F3F74CF8A88000237048A2E7A0
:105AE00038B5FFF7D6FF00F006F8F3F74BF8A880BB
:105AF00000236C4896E7E378B4F80110221D704744
:105B000010B5B4B0C821ADF800106B4641880088CC
:105B1000484C01AAF3F74CF800F020F840F420209C
:105B200000F003F8A04734B010BD214640F020003B
:105B3000206007203E4C2468704710B586B000886E
:105B40006A4601A93B4CF3F766F800F007F840F00D
:105B50008570FFF7EAFFA04706B010BDA08001AB3B
:105B6000BDF80000A071A279D01C0106090C41EA21
:105B70001020704710B582B0028881786B46C01C37
:105B80002C4CF3F7BCF8A0802146BDF80000E08063
:105B90000023454820600022FFF7CCFF0820A047E3
:105BA00013BD10B503794188224C421D0088F3F7DC
:105BB0004AF8A08021463D48A2E638B5FFF769FFC4
:105BC00021790091631DE27800F008F8F3F765F899
:105BD000A8800023364826E7B4F80320B4F8011063
:105BE000134C704738B5FFF754FFE278FFF7F6FF24
:105BF000F3F763F8A88000232E4814E738B5FFF7C1
:105C000048FFFFF778FFF3F763F8A88000232A48DE
